:020000040800F2
:10000000000F002005010008D90D0008D10D0008DF
:10001000D50D0008590C00080B1500080000000061
:100020000000000000000000000000003110000887
:100030005D0C000800000000F30E000845110008E8
:100040001F0100081F0100081F0100081F01000810
:100050001F0100081F0100081F0100081F01000800
:100060001F0100081F0100081F0100081F010008F0
:100070001F0100081F0100081F0100081F010008E0
:100080001F0100081F0100081F0100081F010008D0
:100090001F0100081F0100081F0100081F010008C0
:1000A0001F0100081F0100081F0100081F010008B0
:1000B000091200081F0100081F0100081F010008A5
:1000C0001F0100081F0100081F0100081F01000890
:1000D0001F0100081F0100081F010008511300083C
:1000E0001F0100081F0100081F010008DFF810D0E1
:1000F00000F098FA00480047ED320008AFF30080A6
:10010000000F00200648804706480047FEE7FEE74C
:10011000FEE7FEE7FEE7FEE7FEE7FEE7FEE7FEE7B7
:100120005D110008ED000008D2B201E000F8012BDB
:10013000491EFBD270470022F6E710B513460A4667
:1001400004461946FFF7F0FF204610BD30B50546BE
:100150002A460B4612F8010B13F8014B08B1A042D6
:10016000F8D01CB1002802D06D1CF1E7284630BD44
:10017000421C10F8011B0029FBD1801A704730B5D2
:1001800005460020034600E05B1C934205D2EC5C70
:10019000C85C201A01D1002CF6D130BD70B50646DE
:1001A00001F0FAF9046805460A220021304600F001
:1001B00049F82C6070BD30B50B4601460020202266
:1001C000012409E021FA02F59D4205D303FA02F564
:1001D000491B04FA02F52844151EA2F10102F1DCC4
:1001E00030BD2DE9F05F0546002092469B468846CB
:1001F0000646814640241BE02846414647462246A3
:1002000000F031FA53465A46C01A914110D31146B4
:100210001846224600F018FA2D1A67EB01084F46DF
:1002200022460120002100F00FFA17EB00094E4191
:10023000201EA4F10104DFDC484631462A4643462D
:10024000BDE8F09F2DE9F04791460F4680460446F1
:10025000002614F8015B2DB100F028FA0068405D1B
:10026000C007F6D12B2D02D02D2D18D0641E4A4682
:100270003946204600F01EFA27B13968A14201D163
:10028000C7F8008071054FF002040BD540420028EA
:1002900003DD01F081F90460A007BDE8F08746F4B2
:1002A0008066E4E70028F8DA01F076F904606FF080
:1002B0000040F2E72DE9FE4F804681EA0300C00FBF
:1002C0000C46009021F0004123F00045B8EB0200FD
:1002D000A94105D24046214690461C460B4602469F
:1002E00023F00040104347D0270DC7F30A00C3F3A3
:1002F0000A510290401A019040286BDAC3F31300B0
:1003000040F4801B0098924620B10023D2EB030AF0
:1003100063EB0B0B01985946C0F14002504600F0C8
:1003200093F906460D4650465946019A00F0ABF93E
:1003300010EB08006141002487EA115284EAE77358
:100340001A4340D0009A62B3019A012A4FEA075239
:1003500015DC001B61EB02014FF0004202EA07527C
:10036000CDE90042001C41F5801132462B4600F0D9
:10037000FFF903B0BDE8F08F40462146F9E7001BC6
:1003800061EB0201001C41F5801300185B4120184D
:10039000A2F5001747EB030140EAD570B6196D418D
:1003A00011E06D084FEA360645EAC0754FEA07527C
:1003B000001B61EB0201001C41F5801149084FEA66
:1003C00030000019514132462B4603B0BDE8F04FD2
:1003D00000F0BFB90098012240000023D0EB0202D8
:1003E00063EBE073009821464FEAE074B8EB00003D
:1003F00061EB0401E9E783F000435BE781F0004132
:1004000058E72DE9FE4F81EA030404F0004421F08F
:10041000004100944FF0000B23F0004350EA010428
:100420005ED052EA03045BD0C3F30A54C1F30A5509
:100430002C44A4F2F3340194A0FB0254C1F3130141
:1004400041F48011C3F3130343F4801301FB02440E
:1004500000FB034E840A970A44EA815447EA835713
:10046000A4FB076802958D0A05FB07854FEA932CCC
:1004700004FB0C542705029D4FEA065847EA16373D
:10048000B5EB08056EEB070C870E920E47EA811755
:1004900042EA8312A7FB0201B6EB0B0164EB0004F6
:1004A0002B0D43EA0C335E1844EB1C50DA465146E0
:1004B000E7FB0201C5F313044FEA0B3343EA14537D
:1004C0004FEA0432019C43EA0603A4F10C040294AF
:1004D000009CCDE900B400F04BF903B0BDE8F08F0B
:1004E00000200146F9E72DE9F04D81EA030404F00C
:1004F000004B21F0004514464FF0000A23F0004164
:1005000050EA050220D054EA01021DD0C5F30A5773
:100510000246C5F31303C1F31300C1F30A5640F4B6
:10052000801543F48013A7EB0608101BD64608F28B
:10053000FD3873EB050002D308F1010801E09218C1
:100540005B41B8F1000F03DA00200146BDE8F08DF1
:1005500000204FF48011064684460EE0171B73EB13
:10056000050705D3121B63EB050306434CEA010C98
:1005700049084FEA300092185B4150EA0107EDD17B
:1005800052EA030012D082EA040083EA050108431C
:1005900005D0101BAB4106D20122002306E0002249
:1005A0004FF0004302E06FF0010253101AEB060017
:1005B0004CEB085110EB0A0041EB0B01BDE8F04D8C
:1005C00000F0C7B8C1F30A52C1F3130140F2FF3380
:1005D00041F480119A4202DA00200146704740F24D
:1005E00033439A42A2F2334202DC524200F03BB85B
:1005F00000F02AB830B5041E71F1000404DB4FF09E
:100600000044404264EB0101141E73F1000405DB59
:100610001C464FF00043524263EB0403994208BF6B
:10062000904230BD064C074D06E0E06840F0010303
:1006300094E8070098471034AC42F6D3FFF75AFD10
:10064000BC3F0008DC3F0008202A04DB203A00FA07
:1006500002F1002070479140C2F1200320FA03F319
:10066000194390407047202A04DB203A21FA02F017
:100670000021704721FA02F3D040C2F120029140DC
:10068000084319467047202A06DBCB17203A41FA67
:1006900002F043EAE07306E041FA02F3D040C2F10F
:1006A00020029140084319467047000000487047F7
:1006B000703F00082DE9F05F82460078002715465C
:1006C0008B460AF10104B946302801D09DB113E0F0
:1006D00014F8010B0127782803D0582801D045B120
:1006E0000AE00DB1102D07D10027102514F8010BD9
:1006F00002E0082500E00A250026B0460EE005FBD2
:10070000080005FB06F1012701EB10461FFA80F8EF
:10071000B6F5803F00D3B94614F8010B294600F026
:1007200075F80028EBDABBF1000F05D00FB1641E9D
:1007300000E05446CBF80040B9F1000F06D000F0BD
:100740002BFF02210160C81EBDE8F09F48EA064069
:10075000FAE710B5141E73F1000408DA401C41F1E9
:10076000000192185B411A4301D120F0010010BD35
:100770002DE9F04D92469B4611B1B1FA81F202E0AB
:10078000B0FA80F220329046FFF75EFF04460F4633
:1007900040EA0A0041EA0B0153465A46084313D087
:1007A000114653EA010019D0C8F140025046FFF744
:1007B0005AFF05460E46504659464246FFF744FF4B
:1007C000084305D0012004E020463946BDE8F08DFD
:1007D0000020054346EAE0762C4337430A98630538
:1007E000E40AA0EB08000022FD0A44EA47540A305C
:1007F00002D500200146E9E7010510196941DDE94C
:10080000084500196941BDE8F04DA2E73A2800D239
:10081000303820F02002412A01D3A2F1370088426B
:1008200001D34FF0FF30704770B58C1810F8015BA2
:1008300015F0070301D110F8013B2A1106D110F879
:10084000012B03E010F8016B01F8016B5B1EF9D17D
:100850002B0705D40023521E0DD401F8013BFAE703
:1008600010F8013BCB1A921C03E013F8015B01F86E
:10087000015B521EF9D5A142D8D3002070BD000003
:100880001CB5044605A040F235110B4B0BA2CDE977
:1008900000100FA1042001F0C3FD1CBD42544E31D5
:1008A0005F444F55424C455F436C69636B5F4861E1
:1008B0006E646C6572000000D33D000855534552CC
:1008C0005C4B45595C6170705F6B65792E6300000D
:1008D0004E4F5F54414700001CB5044605A040F24E
:1008E0003F110C4B0CA2CDE9001010A1042001F027
:1008F00097FD1CBD42544E315F4C4F4E475F5052E6
:100900004553535F484F4C445F48616E646C657259
:10091000000000000B3E0008555345525C4B455902
:100920005C6170705F6B65792E6300004E4F5F54A1
:10093000414700001CB5044605A04FF49D710C4BC7
:100940000CA2CDE9001010A1042001F069FD1CBD2E
:1009500042544E315F4C4F4E475F50524553535FA8
:1009600053544152545F48616E646C6572000000DC
:10097000ED3D0008555345525C4B45595C61707024
:100980005F6B65792E6300004E4F5F544147000056
:1009900070477047704700001CB5044605A04FF42F
:1009A00098710B4B0BA2CDE900100FA1042001F0B0
:1009B00037FD1CBD42544E315F53494E474C455F95
:1009C000436C69636B5F48616E646C657200000024
:1009D000B93D0008555345525C4B45595C617070F8
:1009E0005F6B65792E6300004E4F5F5441470000F6
:1009F0001CB5044605A04FF4AD710B4B0BA2CDE91D
:100A000000100FA1042001F00BFD1CBD42544E321A
:100A10005F444F55424C455F436C69636B5F48616F
:100A20006E646C65720000008A3E000855534552A2
:100A30005C4B45595C6170705F6B65792E6300009B
:100A40004E4F5F54414700001CB5044605A04FF4CB
:100A5000B2710C4B0CA2CDE9001010A1042001F0E2
:100A6000DFFC1CBD42544E325F4C4F4E475F50522C
:100A70004553535F484F4C445F48616E646C6572E8
:100A800000000000C23E0008555345525C4B4559DA
:100A90005C6170705F6B65792E6300004E4F5F5430
:100AA000414700001CB5044605A040F25F110C4B05
:100AB0000CA2CDE9001010A1042001F0B1FC1CBD76
:100AC00042544E325F4C4F4E475F50524553535F36
:100AD00053544152545F48616E646C65720000006B
:100AE000A43E0008555345525C4B45595C617070FB
:100AF0005F6B65792E6300004E4F5F5441470000E5
:100B00001CB5044605A040F245110A4B0AA2CDE9E6
:100B100000100EA1042001F083FC1CBD42544E3293
:100B20005F50524553535F444F574E5F48616E6468
:100B30006C657200283E0008555345525C4B455980
:100B40005C6170705F6B65792E6300004E4F5F547F
:100B5000414700001CB5044605A04FF4A8710B4B9B
:100B60000BA2CDE900100FA1042001F059FC1CBD1F
:100B700042544E325F50524553535F5245504541A7
:100B8000545F48616E646C6572000000563E000858
:100B9000555345525C4B45595C6170705F6B65798C
:100BA0002E6300004E4F5F54414700001CB50446C1
:100BB00005A040F24B110A4B0AA2CDE900100EA18C
:100BC000042001F02DFC1CBD42544E325F505245B2
:100BD00053535F55505F48616E646C65720000004E
:100BE000403E0008555345525C4B45595C6170705E
:100BF0005F6B65792E6300004E4F5F5441470000E4
:100C00001CB5044605A040F255110B4B0BA2CDE9D3
:100C100000100FA1042001F003FC1CBD42544E3211
:100C20005F53494E474C455F436C69636B5F486156
:100C30006E646C6572000000703E000855534552AA
:100C40005C4B45595C6170705F6B65792E63000089
:100C50004E4F5F544147000000BFFEE7704710B59C
:100C600001F0B6FB012001F063FFFF21002001F03D
:100C70009FFE0321012001F09BFE0321022001F0D1
:100C800097FE0321084601F093FEE321042001F0C2
:100C90008FFEFF21052001F08BFE01F04FFF10BDFC
:100CA0002DE9F04102460025002600200023002403
:100CB000002791F803C00CF00F0591F803C00CF069
:100CC000100CBCF1000F03D091F802C04CEA0505EE
:100CD00091F800C0BCF1000F31D0146800202BE067
:100CE0004FF0010C0CFA00F3B1F800C00CEA030657
:100CF0009E4220D183004FF00F0C0CFA03F7BC4347
:100D000005FA03FC4CEA040491F803C0BCF1280F77
:100D100006D14FF0010C0CFA00FCC2F814C00AE036
:100D200091F803C0BCF1480F05D14FF0010C0CFA4B
:100D300000FCC2F810C0401C0828D1D31460B1F8E0
:100D400000C0BCF1FF0F34DD546800202EE000F13C
:100D5000080C4FF0010808FA0CF3B1F800C00CEAD7
:100D600003069E4221D183004FF00F0C0CFA03F7CB
:100D7000BC4305FA03FC4CEA040491F803C0BCF13F
:100D8000280F05D100F1080C08FA0CF8C2F81480FD
:100D900091F803C0BCF1480F07D100F1080C4FF0E7
:100DA000010808FA0CF8C2F81080401C0828CED3BD
:100DB0005460BDE8F0810246002093680B400BB1FF
:100DC000012000E0002070474161704701617047D9
:100DD00000BFFEE700BFFEE7704700000249014385
:100DE000024A1160704700000000FA050CED00E0B7
:100DF00010B5044614B94FF0FF3010BD2D48046003
:100E0000AE2002F037FD202002F034FDB02002F0C9
:100E100031FDC82002F02EFD002002F02BFD102035
:100E200002F028FD402002F025FD812002F022FD85
:100E3000FF2002F01FFDA12002F01CFDA62002F001
:100E400019FDA82002F016FD3F2002F013FDA4209A
:100E500002F010FDD32002F00DFD002002F00AFD8B
:100E6000D52002F007FDF02002F004FDD92002F0A9
:100E700001FD222002F0FEFCDA2002F0FBFC122031
:100E800002F0F8FCDB2002F0F5FC202002F0F2FC7E
:100E90008D2002F0EFFC142002F0ECFCAF2002F0F9
:100EA000E9FCFF2000F008F8002000F005F8002021
:100EB000A3E70000A001002070B50646002415E05D
:100EC00004F1B001C8B202F0D5FC002002F0D2FC5F
:100ED000102002F0CFFC002504E0304602F0D1FCE7
:100EE000681CC5B2802DF8DB601CC4B2082CE7DB9F
:100EF00070BD704729B1064A92690243044B9A615A
:100F000004E0034A92698243014B9A6170470000F2
:100F10000010024030B500210022002400232D4D96
:100F20006D6805F00C0121B1042905D0082923D1F1
:100F300005E0294D056022E0274D05601FE0254DA5
:100F40006D6805F47012234D6D6805F48034022538
:100F500005EB92421CB9214D554305600BE01D4D38
:100F60006D6805F400351DB11C4D5543056002E068
:100F7000194D5543056002E0174D056000BF00BFE5
:100F8000144D6D6805F0F0010909154D6B5C05689D
:100F9000DD4045600F4D6D6805F4E061090A104DB4
:100FA0006B5C4568DD4085600A4D6D6805F46051F5
:100FB000C90A0B4D6B5C4568DD40C560054D6D6829
:100FC00005F44041890B074D6B5CC568B5FBF3F533
:100FD000056130BD0010024000127A0000093D009A
:100FE000000000201000002001460020034A506845
:100FF00020F0F000084350607047000000100240ED
:1010000001460020034A506820F4E0600843506025
:10101000704700000010024001460020034A50685B
:1010200020F4605040EAC100506070470010024058
:10103000704710B500F002F810BD00000CB500209C
:10104000019000903348006840F4803031490860D6
:1010500000BF3048006800F4003000900198401C48
:101060000190009818B90198B0F5A06FF1D1294806
:10107000006800F4003010B10120009001E0002071
:1010800000900098012843D12348006840F01000E8
:10109000214908600846006820F0030008600846FF
:1010A000006840F0020008601A484068194948602A
:1010B0000846406848600846406840F480604860E0
:1010C0000846406820F47C1048600846406840F4B8
:1010D000E81048600846006840F08070086000BF73
:1010E0000C48006800F000700028F9D009484068FA
:1010F00020F00300074948600846406840F00200BD
:10110000486000BF0348406800F00C000828F9D18F
:101110000CBD00000010024000200240042808D14D
:101120004FF0E021096941F004014FF0E022116124
:1011300007E04FF0E021096921F004014FF0E022BF
:101140001161704710B504480068401C02490860EE
:1011500002F068FC10BD0000A800002010B5134884
:10116000006840F0010011490860084640681049D5
:1011700008400E494860084600680E4908400B497F
:1011800008600846006820F480200860084640682F
:1011900020F4FE0048604FF41F008860FFF749FF0D
:1011A0004FF000600449086010BD000000100240CC
:1011B0000000FFF8FFFFF6FE08ED00E070B5002428
:1011C0004FF47A750420FFF7A9FF0020FFF718FFFE
:1011D0000020FFF709FF0020FFF71EFF0948006805
:1011E000B0FBF5F44FF0E020006940F002004FF052
:1011F000E021086108464461006940F0010008618F
:1012000070BD0000380000201CB50121880700F0E7
:101210004AF8C0B10CA02E21114B12A2CDE900104A
:1012200016A1032001F0FCF81648008840F40040A5
:10123000144908800121880700F026F800214FF0AA
:10124000804000F024F81CBD746869732069732025
:101250004B65795363616E20746573740000000000
:10126000DF3E0008555345525C54494D5C61707037
:101270005F74696D65722E63000000004E4F5F540D
:1012800041470000AA010020CA430282704721B1F1
:10129000028842F00102028004E002884FF6FE73E9
:1012A0001A400280704730B5024600200023002417
:1012B000158A05EA0103958905EA010413B10CB109
:1012C000012000E0002030BD8184704710B586B059
:1012D00004460020059001900290039004900121A3
:1012E00044F20400FFF706FE4FF40070ADF814005E
:1012F00003208DF8160018208DF8170005A9124854
:10130000FFF7CEFC4FF48060ADF8140004208DF898
:10131000170005A90C48FFF7C3FC01940020ADF8A5
:101320000800ADF80A00ADF80C00ADF810000C2074
:10133000ADF80E0001A9054800F076F80121034838
:1013400000F03CF806B010BD000801400038014034
:1013500010B540F22551164800F03CF8F8B1144899
:1013600000F0CEF8C4B21348008800F40040B0B9D1
:1013700010480088802813DA00214FF08040FFF7E2
:10138000A3FF0C48008818B901218807FFF77FFFE9
:1013900008490888411C074A118007490C5405E098
:1013A0000448008840F400400249088010BD000055
:1013B00000480040AA010020BC09002021B1828918
:1013C00042F40052828104E082894DF6FF731A4094
:1013D0008281704770B5024600240023002500205A
:1013E00040F66A16B14200D100BFC1F3421501F0C8
:1013F0001F03012606FA03F3012D02D1968933401B
:1014000006E0022D02D1168A334001E0968A33406D
:101410000C12012606FA04F41688344013B10CB1FC
:10142000012000E0002070BD2DE9F04786B00546A0
:101430000E460024A24600BFA1460027B08900B195
:1014400000BF2F462C8A4CF6FF700440F0880443FE
:101450002C82AC894EF6F3100440B08831890843E1
:10146000718908430443AC81AC8A4FF6FF400440C5
:10147000B0890443AC8201A8FFF74CFD1F488742A6
:1014800002D1DDF810A001E0DDF80CA0A88900F47D
:10149000004040B10AEBCA0000EB0A103168490075
:1014A000B0FBF1F807E00AEBCA0000EB0A10316864
:1014B0008900B0FBF1F86420B8FBF0F004012009CA
:1014C000642101FB1089A88900F4004040B132205A
:1014D00000EBC900B0FBF1F000F00700044308E0A6
:1014E000322000EB09106421B0FBF1F000F00F0096
:1014F00004432C8106B0BDE8F087000000380140AD
:1015000001468888C0F30800704700BFFEE700006E
:101510000FB4054B10B503A9044A029800F012F964
:1015200010BC5DF814FB0000DD2C00084C0000200E
:101530000FB47CB50C0009AD01D0611E00E00021A4
:10154000CDE90001064B6A462946089800F0FAF8F2
:10155000002C02D0009A002111707CBC5DF814FBB5
:101560004B1E00087CB50C001D461646014601D0F6
:10157000601E00E00020CDE90010064B6A462946B7
:10158000304600F0DFF8002C02D0009A00211170E4
:101590007CBD00004B1E000800487047AC010020D5
:1015A00002E008C8121F08C1002AFAD1704770472C
:1015B000002001E001C1121F002AFBD1704700008A
:1015C0002DE9FF5F82B00021DDE90430020DDDF876
:1015D00040B0034318D044F61050A2F2FF32424309
:1015E0001514119801281FD0A5EB0B00401C5FEAD1
:1015F000000A4FF000064E4FDFF83891B0465046D3
:1016000015D5CAF1000413E0119801244AA301285A
:1016100001D16FEA0B010298119AC0E90031C0E9CB
:10162000024206B0BDE8F09FCBF10000DFE70446C0
:101630000021404A491842EB0450CDE9001012E065
:10164000E00707D032463B4640464946FEF7D9FE02
:101650008046894632463B4610461946FEF7D1FE83
:1016600006460F466410002CEAD1DDE90401DDE9ED
:101670000023BAF1000F06DAFEF7C3FE42464B46DE
:10168000FEF7BFFE05E0FEF72EFF42464B46FEF793
:101690002AFF04460E460022284BFEF7ABFF03D874
:1016A0004FF0FF30014607E00022254B204631462F
:1016B000FEF700FEFEF786FF102409E0002C0ADB8F
:1016C0000A220023FEF78DFD039B30321A55641E5B
:1016D00050EA0102F2D1641C039AC4F111031444CC
:1016E000119A012A03D0012208430DD10AE00843D0
:1016F00004D000204FF0110B119072E7A3EB0B0503
:101700006D1E0DE05B4504DD4FF0000205F10105A3
:1017100004E003DA4FF00002A5F10105002AECD045
:1017200002981199C0E90231C0E9004579E700004B
:10173000000014400000F03F300000000000F043C3
:101740000000E03F2DE9FF4F95B09A4688460646D7
:101750000025EEE1252877D100242746F94A01210A
:10176000039400E0044316F8013F203B01FA03F024
:101770001042F7D130782A2811D06FF02F0330783B
:10178000A0F13002092A16D8039A44F0020402EBB1
:10179000820203EB42021044761C0390EFE758F8F4
:1017A000042B0392002A03DA504244F400540390BD
:1017B00044F00204761C30782E2816D116F8010F5A
:1017C00044F004042A280DD06FF02F023078A0F1E5
:1017D0003003092B09D807EB870302EB4303C71833
:1017E000761CF3E758F8047B761C30786C280FD011
:1017F00006DC4C2817D068280DD06A2814D104E0E4
:10180000742810D07A280FD10DE044F400140AE0B7
:1018100044F4801401E044F440147278824202D10E
:1018200004F58014761C761C307866280BD013DC07
:10183000582877D009DC002875D04528F6D04628EE
:10184000F4D047281AD193E118E0632835D06428F2
:1018500079D0652812D18BE1702873D008DC672815
:10186000F1D069286FD06E280DD06F2806D1ACE07A
:1018700073282CD0752874D0782853D052461799E5
:1018800090476D1C54E1C4F30250022809D003288C
:101890000DD0D8F8001004280DD00D6008F1040810
:1018A00046E1D8F80010EA17C1E90052F6E7D8F887
:1018B00000100D80F2E70D70F0E718F8041B8DF8AA
:1018C000001000208DF80100EB46012003E058F8DD
:1018D00004BB4FF0FF3061074FF0000102D40DE070
:1018E00009F101018946B9420FDA8145F8DB1BF89D
:1018F00009100029F4D108E009F10101894681426B
:10190000FADB1BF809100029F6D103985346A0EB27
:10191000090721463846179A00F080FA284400EB60
:10192000090507E044E008E10DE01BF8010B524611
:1019300017999047B9F10109F7D253462146384625
:10194000179AF2E039E00A21C4F302524FF0000B7B
:101950000091022A06D058F8040BC117032A09D0B7
:101960000AE023E008F1070020F00702F2E8020194
:10197000904605E000B2C117042A01D140B2C11758
:10198000002906DA0A460021404261EB02012D22BD
:1019900002E0220504D52B228DF80420012203E069
:1019A000E20701D02022F7E7914657E00A2100E044
:1019B00010214FF0000B00910BE010214FF0000BB5
:1019C00044F004040827009103E008204FF0000BC6
:1019D0000090C4F30252022A05D058F8040B0021EB
:1019E000032A08D008E008F1070020F00702F2E817
:1019F0000201904603E080B2042A00D1C0B24FF049
:101A0000000922072AD53278702A07D0DDF800C0F5
:101A10008CF0100C5CEA0B0C05D00EE040228DF827
:101A20000420012208E050EA010306D030238DF89B
:101A300004308DF8052002229146009B83F00803B4
:101A400053EA0B030AD150EA010201D1620705D51E
:101A500030228DF804204FF001097F1E3278582A79
:101A600004D039A20C920CAA02920BE03BA2F9E737
:101A70005B46009AFEF7B5FB0C9B9B5C029A521EDC
:101A80000292137050EA0102F2D1029804A9081AD6
:101A900000F1200B600702D524F4803400E0012718
:101AA0005F4502DDA7EB0B0000E0002000EB0B011F
:101AB000009003984944401A0390E00306D453462B
:101AC0002146179A039800F0A9F90544002706E07B
:101AD00001A85246C05D179990476D1C7F1C4F4569
:101AE000F6DBE0030CD553462146179A039800F025
:101AF00095F9054404E030205246179990476D1C33
:101B00000099481E00900029F5DC08E0029802992F
:101B100052460078491C0291179990476D1CBBF101
:101B20000001ABF1010BF1DC5BE100F065F905446C
:101B3000761C307800287FF40DAE19B02846BDE839
:101B4000F08F000009280100303132333435363748
:101B500038396162636465660000000030313233F9
:101B60003435363738394142434445460000000099
:101B7000600700D4062708F1070020F00700F0E80E
:101B80000223804603F0004C5FEA0C0001D097A0CE
:101B900009E0200501D596A005E0E00701D095A059
:101BA00001E0AFF24C001390307823F00043652839
:101BB0000CD006DC452809D046281DD047287FD107
:101BC0003BE0662818D067287AD136E00021112F33
:101BD00001DB112000E0781CCDE9000104A90CA86C
:101BE000FFF7EEFCDDE90D010C9A4FF0000B07F159
:101BF0000109109200914EE04FF000400097CDE9AE
:101C0000011004A90CA8FFF7DBFCDDE90D020C9B19
:101C10000F994FF0000B91461093009211B9791C67
:101C200000EB0109B7EB090003D4C0F1FF3B07F15A
:101C30000109A9EB0700019042E0012F00DA01271A
:101C40000021112F01DD112000E03846CDE900010F
:101C500004A90CA8FFF7B4FCDDE90D010C9A009172
:101C60004FF0000BB946109221070FD4009A4A4555
:101C700003DA914601E0A9F10109B9F1010F05DD8F
:101C8000109AA9F10101515C3029F4D0B84202DA6E
:101C900010F1040F03DA0121CDE9011010E0002852
:101CA00003DC8344A9EB000102E0411C494500DD4F
:101CB0008946A0EB0B00401C01904FF000400290C1
:101CC000200705D40198484502DB4FF0FF30019012
:101CD00000208DF84B0002980DF14B07B0F1004F3A
:101CE00025D002200C902B200D90029800280CDAB1
:101CF000404202902D200D9007E00A210298FEF745
:101D00005AFA3031029007F8011D0C99481E0C90C8
:101D10000029F2DC02980028EFD1791E0D98087096
:101D2000307800F0200040F0450007F8020D11A8BF
:101D3000C01BC01D02901398007800B1012000EB79
:101D40000901019801EBE071029801440398401ADF
:101D5000401E0390E00306D453462146179A039889
:101D600000F05CF805441398007818B152461799B2
:101D700090476D1CE00323D553462146179A0398DC
:101D800000F04CF805441BE0BBF1000F07DB0098A6
:101D9000584504DD1098179910F80B0001E01799C9
:101DA00030205246904701980BF1010B401E05F17F
:101DB0000105019004D12E205246179990476D1CC1
:101DC000B9F10001A9F10109DEDC05E017F8010B0A
:101DD0005246179990476D1C0299481E029000299F
:101DE000F4DC53462146179A03989EE62D00000026
:101DF0002B000000200000002DE9F04104460025E2
:101E00001E461746880404D405E039462020B04712
:101E10006D1C641EF9D52846BDE8F0812DE9F0411E
:101E2000044600251E469046C80301D5302700E031
:101E30002027880404D505E041463846B0476D1C8C
:101E4000641EF9D52846BDE8F0814A68002A06D00C
:101E50000A68531C0B6010704868401E4860704749
:101E600008B50020009030211548FEF764F90020E5
:101E7000144908601FE048208DF8030003208DF806
:101E800002001048006800EB40000F4901EB001011
:101E90008088ADF800000B49096801EB41010A4A4E
:101EA00002EB011108686946FEF7FAFE0548006872
:101EB000401C04490860034800680428DBDB08BDB7
:101EC0000C0700208C000020F03C000810B5234ACD
:101ED0000021234800F062F8224A0121204800F046
:101EE0005DF8214A02211E4800F058F81F4A0321DC
:101EF0001B4800F053F81E4A0421194800F04EF820
:101F00001C4A0521164800F049F81B4A06211448CE
:101F100000F044F8194A0021194800F03FF8194A26
:101F20000121174800F03AF8174A0221144800F03E
:101F300035F8164A0321124800F030F8144A0421FB
:101F40000F4800F02BF8134A05210D4800F026F841
:101F5000114A06210A4800F021F810BD9109000835
:101F6000B0010020950900089309000899090008AC
:101F70008108000835090008D9080008010B00088D
:101F8000DC010020AD0B0008550B0008010C000817
:101F9000F1090008A50A0008490A000800F10C032D
:101FA00043F82120704770B504462079A16888471E
:101FB0000546E07800F00700002802DD2088401C7C
:101FC0002080E078B5EBD01F13D0E078C008401C2B
:101FD000E17860F3C501E170C1F3C20003280CDBB6
:101FE000E07865F3C710E070E07820F03800E0702A
:101FF00003E0E07820F03800E070E07800F00700BF
:10200000062876D2DFE800F00326529DE7C6E07886
:10201000C0F38010E178B0EBD11F15D1A07820F08B
:10202000F000A070E06810B12046E1688847002009
:102030002080A07820F00F00401CA070E07820F0F5
:102040000700401CE07004E0A07820F0F000803031
:10205000A070C5E0E078C0F38010E178B0EBD11F4C
:1020600011D0A07820F0F0001030A070206910B1DD
:1020700020462169884700202080E07820F0070072
:10208000801CE07011E02088C8280EDDA07820F0C8
:10209000F0005030A070206A10B12046216A8847B5
:1020A000E07820F00700401DE07099E0E078C0F390
:1020B0008010E178B0EBD11F1CD1A07820F0F000A7
:1020C000A070E06810B12046E1688847A078401C05
:1020D000A17860F30301A170606910B120466169C5
:1020E000884700202080E07820F00700C01CE070C6
:1020F00026E070E020883C2822DDA07800F00F0068
:1021000001280AD1A07820F0F0003030A070A0693A
:1021100090B12046A16988470EE0A07800F00F003A
:10212000022809D1A07820F0F0004030A070E069CA
:1021300010B12046E1698847E07820F00700E070A0
:102140004EE0E078C0F38010E178B0EBD11F19D0F9
:10215000A07820F0F0001030A070206910B1204667
:102160002169884720883C2807DA00202080E07811
:1021700020F00700801CE0700BE0E07820F0070002
:10218000E07006E020883C2803DDE07820F00700BE
:10219000E07025E0E078C0F38010E178B0EBD11F6B
:1021A0000AD1A07820F0F0006030A070606A88B199
:1021B0002046616A88470DE0A07820F0F0001030DA
:1021C000A070206910B1204621698847E07820F08E
:1021D0000700E07004E0E07820F00700E07000BF46
:1021E00000BF70BD2DE9F04104460E4617461D465E
:1021F0002C212046FDF79FFFA07820F0F0008030D2
:10220000A070A6602846A1688847E17860F3C711EE
:10221000E170E07867F38610E0702571BDE8F08129
:1022200001460948026805E08A4202D14FF0FF30BA
:102230007047926A002AF7D1034800688862024812
:1022400001600020F4E70000A400002010B505485C
:10225000046803E02046FFF7A6FEA46A002CF9D12B
:1022600010BD0000A400002010B5174880780D288C
:1022700027D2DFE800F0260718081109120A0B130D
:102280000C140D0000BF00BF00BF00BF00BF00BFA7
:102290001F2000F0A9FF15E000BF00BF00BF1E20F7
:1022A00000F0A2FF0EE00849088801F006F80128B6
:1022B00003D11D2000F098FF02E01C2000F094FFE5
:1022C00000E000BF00BF10BD1400002070B586B054
:1022D0000546002D1BD12648006888B94FF4EE70E2
:1022E000244925A229A3CDE90310CDE901320090AC
:1022F0000B462FA233A1002000F092F800BFFEE7AA
:102300004FF4EE721B491CA0194B1B689847002420
:1023100005262E4890F8F00010B9304606B070BD82
:1023200000F068FA00241BE004EB44112748313028
:10233000084490F82000012810D104EB44122348EF
:1023400031301044411C1E222846FDF718FF28B9E1
:1023500004EB44111D483130465C03E0601CC4B2FC
:10236000052CE1DB00BF00F079FA3046D6E700002B
:10237000800000207D3C000874616720213D2028FA
:1023800028766F6964202A293029000028257329BE
:102390002068617320617373657274206661696C73
:1023A00065642061742025733A256C642E0000005A
:1023B000555345525C756172745C656C6F672E6332
:1023C00000000000656C6F67000000001402002030
:1023D00010B50024114890F8F000012801D12046E2
:1023E00010BD00F05BFA04460CB12046F8E701206E
:1023F00000F014FA0020094981F8F30081F8F40094
:10240000012000F095FB052000F05AFA00F0B2FA26
:102410000120024981F8F0002046E1E71402002083
:102420002DE9F04F8DB005460F4693469846384645
:10243000FDF79EFE814600244FF0020A00200B901B
:102440000C900790089009900A90052D1BDDC1485B
:10245000006888B940F23A20BF49C0A2C6A3CDE9BE
:102460000310CDE9013200900B46CCA2D0A1002090
:10247000FFF7D6FF00BFFEE740F23A22B649B7A009
:10248000B44B1B689847CC4890F8F10010B90DB0D8
:10249000BDE8F08FC8480078A84204DB3846FFF753
:1024A00015FFA84200DAF2E7C349491C3846FDF798
:1024B0004DFE00B9EBE718A8069000F09BF9BE4866
:1024C00090F8F50078B1BD480119BDA2204600F092
:1024D00077FB0444BB4850F82520B8480119204632
:1024E00000F06EFB04440121284600F01BFC40B1C3
:1024F000B54850F82520B1480119204600F060FB8E
:1025000004440221284600F00DFCE8B1AB48011953
:102510003A46204600F054FB0444B9F10F0F0CD8A2
:10252000C9F10F01202207A8FDF7FEFDA3480119FC
:1025300007AA204600F044FB0444A0480119A3A2C6
:10254000204600F03DFB04441C21284600F0EAFB35
:10255000002852D0994801199DA2204600F030FB76
:1025600004440421284600F0DDFBA8B100F092F9F4
:102570000590924801192046059A00F021FB044479
:102580001821284600F0CEFB30B18C4801198FA2EB
:10259000204600F015FB04440821284600F0C2FB49
:1025A000A8B100F06FF90590844801192046059AFA
:1025B00000F006FB04441021284600F0B3FB30B1C4
:1025C0007E48011981A2204600F0FAFA0444102145
:1025D000284600F0A7FB48B100F058F9059077486D
:1025E00001192046059A00F0EBFA044473480119DA
:1025F00078A2204600F0E4FA0444E021284600F0E6
:1026000091FB00285CD06D48011973A2204600F0B0
:10261000D7FA04442021284600F084FBF8B167482B
:1026200001195A46204600F0CBFA044440212846BE
:1026300000F078FB38B16148011968A2204600F02B
:10264000BFFA04440BE08021284600F06BFB30B158
:102650005A4801195DA2204600F0B2FA04448021D4
:10266000284600F05FFBC0B15DA205210BA8169BB8
:10267000FEF75EFF514801190BAA204600F0A0FAB0
:1026800004444021284600F04DFB30B14B4801196D
:102690004EA2204600F094FA04444021284600F05F
:1026A00041FB30B1454801194246204600F088FA06
:1026B0000444424801194BA2204600F081FA044428
:1026C000C4F580613D4A1019069B179AFEF74AFF30
:1026D000064600200690A019B0F5806F03D8002EA2
:1026E00001DB344401E04FF48064201D5044B0F518
:1026F000806F04D94FF48064241FA4EB0A042E4891
:1027000090F8200058B100202C4908552A49203162
:102710002A48FDF71BFD10B900F0A0F8B7E62648DF
:1027200090F8F50030B1254801192FA2204600F09D
:1027300047FA0444214801192DA2204600F040FA2E
:10274000044421461D4800F0ABF800F087F800BFB4
:102750009DE6000080000020953C00086C657665D1
:102760006C203C3D20454C4F475F4C564C5F5645D6
:1027700052424F5345000000282573292068617399
:1027800020617373657274206661696C6564206191
:10279000742025733A256C642E0000005553455271
:1027A0005C756172745C656C6F672E63000000007D
:1027B000656C6F6700000000140200200C0300200D
:1027C0001B5B00006800002050000020200000007B
:1027D0005B0000005D200000280000003A000000BF
:1027E000256C6400290000001B5B306D00000000B8
:1027F0000D0A000010B5084890F8F20030B100F062
:102800005DF80120044981F8F40003E00120024949
:1028100081F8F30010BD00001402002010B504463A
:102820000D4880F8F24090F8F200A0B10A4890F804
:10283000F40030B9084890F8F30010B100F03EF809
:1028400009E0054890F8F40028B1034890F8F30037
:1028500008B900F034F810BD1402002010B5084883
:1028600090F8F20030B100F02AF80020044981F815
:10287000F40003E00020024981F8F30010BD0000DD
:102880001402002000A070470000000000A0704764
:102890000000000000A0704700000000002070470A
:1028A00070B504460D462246294602A0FEF730FECA
:1028B00070BD0000252E2A7300000000704770478D
:1028C00010B586B00446052C1BDD1048006888B999
:1028D0004FF4AB700E490FA215A3CDE90310CDE95B
:1028E000013200900B461BA21FA10020FFF798FDAC
:1028F00000BFFEE74FF4AB72054906A0034B1B680F
:1029000098471B48047006B010BD000080000020EE
:10291000513C00086C6576656C203C3D20454C4F71
:10292000475F4C564C5F564552424F53450000009E
:102930002825732920686173206173736572742080
:102940006661696C65642061742025733A256C6446
:102950002E000000555345525C756172745C656CC5
:102960006F672E6300000000656C6F670000000059
:102970001402002010B5002400BF13E004EB441241
:102980000A491144481C1F21FDF7D5FB002104EB27
:1029900044120648815404EB4412104480F820107D
:1029A000601CC4B2052CE9DB10BD0000450200200C
:1029B00030B585B004460D46052C1BDD1048006877
:1029C00088B94FF49E700F490FA216A3CDE90310EA
:1029D000CDE9013200900B461BA220A10020FFF799
:1029E0001FFD00BFFEE74FF49E72064906A0044B90
:1029F0001B6898471B4840F8245005B030BD0000C4
:102A000080000020343C00086C6576656C203C3DFD
:102A100020454C4F475F4C564C5F564552424F53F2
:102A200045000000282573292068617320617373B5
:102A3000657274206661696C656420617420257319
:102A40003A256C642E000000555345525C75617246
:102A5000745C656C6F672E6300000000656C6F67C7
:102A600000000000EC02002010B586B00446002CE7
:102A70001ED0012C1CD011480068002811D140F252
:102A800013100F490FA219A3CDE90310CDE90132AC
:102A900000900B461EA223A10020FFF7C1FC00BF3F
:102AA000FEE740F21312064906A0044B1B68984744
:102AB0001E4880F8F14006B010BD000080000020E4
:102AC0001C3C000828656E61626C6564203D3D20F9
:102AD00066616C736529207C7C2028656E61626C60
:102AE0006564203D3D207472756529002825732991
:102AF0002068617320617373657274206661696C0C
:102B000065642061742025733A256C642E000000F2
:102B1000555345525C756172745C656C6F672E63CA
:102B200000000000656C6F670000000014020020C8
:102B3000014981F8F5007047140200200EB50B48DA
:102B400090F8F00000B90EBD0120FFF78DFF08A03E
:102B500009A1F422124BCDE90021029011A216A185
:102B60000420FFF75DFC00BFEDE700001402002029
:102B7000322E322E39390000456173794C6F676708
:102B800065722056257320697320696E69746961C6
:102B90006C697A6520737563636573732E0000003A
:102BA000073C0008555345525C756172745C656C56
:102BB0006F672E6300000000656C6F670000000007
:102BC000F0B585B006460D4614462746002D19D1AE
:102BD0002448006880B92C20234924A224A3CDE9ED
:102BE0000310CDE9013200900B462AA22FA100204C
:102BF000FFF716FC00BFFEE72C221B491BA0194B58
:102C00001B689847002C19D11648006880B92D2000
:102C1000154928A216A3CDE90310CDE90132009091
:102C20000B461CA221A10020FFF7FAFB00BFFEE724
:102C30002D220D491FA00B4B1B6898470AE0304618
:102C4000761CB0F5806F04D214F8010B05F8010B67
:102C500000E002E020780028F1D100BFE01B05B0C1
:102C6000F0BD000080000020CD3C000864737400BB
:102C7000282573292068617320617373657274203D
:102C80006661696C65642061742025733A256C6403
:102C90002E000000555345525C756172745C656C82
:102CA0006F675F7574696C732E630000656C6F6786
:102CB000000000007372630010B50246086800232C
:102CC00006E0047B944200D105E000695C1CE3B29D
:102CD0000C7A9C42F5DC00BF10BD000000BF054A25
:102CE000128802F04002002AF9D0C2B2014B1B1D2B
:102CF0001A807047003801400021027B074B43F8DF
:102D00002210FF21027B064B995400214173416040
:102D10008160016041610161704700004409002049
:102D20009409002030B585B004460D46052C1BDD06
:102D30001248006888B940F2D920114911A218A39D
:102D4000CDE90310CDE9013200900B461DA222A16E
:102D50000020FFF765FB00BFFEE740F2D9220849DB
:102D600008A0064B1B6898471D4850F824002840CF
:102D700010B1012005B030BD0020FBE7800000202D
:102D8000A13C00086C6576656C203C3D20454C4FAD
:102D9000475F4C564C5F564552424F53450000002A
:102DA000282573292068617320617373657274200C
:102DB0006661696C65642061742025733A256C64D2
:102DC0002E000000555345525C756172745C656C51
:102DD0006F672E6300000000656C6F6700000000E5
:102DE000EC02002008B508E01E21009100BF009908
:102DF0004A1E00920029FAD1401E0028F4D108BDD5
:102E00000248006800F0800040B2704708080140A6
:102E10000248006800F040007047000008080140C8
:102E200018B18021034A116003E08021014A121D7C
:102E3000116070471008014018B14021034A116029
:102E400003E04021014A121D116070471008014043
:102E50002DE9F04781460D4600240026AC88AF6876
:102E600015E0484600F0A6F800F0FF0887F800805B
:102E7000761C7F1C641E0AF0400020B91CB1484635
:102E800000F074F803E014B9484600F081F8002C13
:102E9000E7D13046BDE8F0872DE9F04781460C4682
:102EA00000260027A688D4F80880A07800F0200A21
:102EB00012E098F80010484600F00CF945B21DB138
:102EC000BAF1000F05D025B108F101087F1C761E6C
:102ED00002E00020BDE8F087002EEAD13846F9E78D
:102EE0002DE9F04781460F469046A07800F0200A71
:102EF000484600F011F900252EE007EB0514A078F4
:102F000000F0100068B915B1484600F07AF8214683
:102F1000484600F08BF806461EB1BAF1000F00D10A
:102F20001EE0A07800F0010050B121464846FFF7AE
:102F30008FFF0646A088B0420DDD4FF0FF360FE050
:102F400021464846FFF7A8FF0646A088B04202DDAA
:102F50004FF0FF3604E06D1C4545CED32E4600BF32
:102F6000484600F0E5F83046BDE8F08710B5044665
:102F70000020216888470220216988470120616874
:102F8000884703202169884700206168884710BD71
:102F900010B504460120216888470220216988472E
:102FA0000120616888470220216988470020616804
:102FB000884710BD70B50446002500206168884729
:102FC000012021688847032021698847002614E0F2
:102FD000680045B20120616888470320216988475D
:102FE000A068804708B145F0010500206168884766
:102FF000052021698847701C46B2082EE8DB284668
:1030000070BD10B504460120216888470120616821
:1030100088470320216988470020216888470320CA
:103020002169884700206168884710BD2DE9F04775
:1030300082460C46B4F80280A07800F0200708F021
:10304000040088B32088062101EAE01040F0F00671
:1030500094F80090227B3146504600F0A0F80546D7
:1030600025B11FB94FF0FF30BDE8F087227B4946FC
:10307000504600F094F805461DB117B94FF0FF30E7
:10308000F2E708F0010018B3504600F045F846F0AA
:103090000106227B3146504600F081F80546BDB15D
:1030A000B7B94FF0FF30DFE7FFE720784006060EA4
:1030B00008F0010008B146F00106227B3146504677
:1030C00000F06DF805461DB117B94FF0FF30CBE7A2
:1030D0002846C9E770B504460E46072510E00020D3
:1030E0006168884746FA05F202F0010021688847C6
:1030F000052021698847012061688847681E45B21C
:10310000002DECDA00206168884703202169884798
:10311000204600F01FF870BD10B50446002021685D
:10312000884703202169884700206168884710BDCF
:1031300010B504460020216888470120616888474F
:1031400003202169884701202168884705202169DB
:10315000884710BD70B504460125012021688847C5
:10316000032021698847012061688847032021697D
:103170008847A0688047C5B2002061688847284614
:1031800070BD2DE9F04104460D46164632462946EB
:1031900020462368984707463846BDE8F0812DE968
:1031A000F04106460F4614464FF00008002515E092
:1031B000F9B23046FFF78EFF8046B8F1000F01D01C
:1031C000A54200D10CE03046FFF7B2FF052031697F
:1031D00088473046FFF7A0FF681CC5B2A542E7DD6F
:1031E00000BF4046BDE8F0810B49C978491CC9B20F
:1031F000094AD17081420EDD0121D17011468978D2
:10320000491CC9B291700C2905DD0121917011464C
:103210000988491C1180704714000020002141607A
:103220000160017270472DE9F04107460C46207A93
:1032300020B92146384600F02EF81AE0256800260D
:1032400008E038682968884201D92D6900E004E067
:10325000701CC6B2207AB042F3DC00BF25B921460B
:10326000384600F018F804E022462946384600F0B7
:1032700002F8BDE8F08101614B691BB910600023C1
:10328000436103E04B6943614B6918614861137AFC
:103290005B1C137270474A680B7A2BB90860486050
:1032A00000230361436104E0106142610023036174
:1032B00048600B7A5B1C0B7270470146CA1701EB22
:1032C00092729210A1EB820272B9642291FBF2F326
:1032D00002FB131242B14FF4C87291FBF2F302FBEE
:1032E00013120AB9012070470020FCE71CB500F05A
:1032F000E3FA4FF4A060FDF771FD4FF4E130FDF704
:10330000E5FFFDF7ACFC00F023FC00F05FFAFEF7F0
:10331000A7FD012300223D493D48FEF763FF02233C
:1033200000223A493B48FEF75DFFFEF7CFFD3848E3
:10333000FEF776FF3748FEF773FF4FF6FF72364908
:10334000052000F015FB354800F0C8FB344800F0BC
:10335000C5FB3248FDF74CFD32490860084600685D
:1033600048B131A0F421364B36A2CDE9001038A186
:103370000120FFF755F838A04FF48571304B31A28A
:10338000CDE9001032A10020FFF74AF839A040F241
:103390000B112B4B2BA2CDE900102DA10120FFF723
:1033A0003FF83BA04FF48671254B26A2CDE90010D3
:1033B00027A10220FFF734F83CA040F20D11204B6A
:1033C00020A2CDE9001022A10320FFF729F83EA09A
:1033D0004FF487711A4B1BA2CDE900101CA10420E9
:1033E000FFF71EF83FA040F20F11154B15A2CDE9D3
:1033F000001017A10520FFF713F841494FF47A7028
:1034000000F002FB01E000F0C5FAFCE71936000805
:10341000B0010020DC0100204D2200082000002027
:1034200028000020340000206572726F72204F4C1B
:1034300045443132383634206932632100000000BF
:10344000023C0008555345525C6D61696E2E630065
:103450004E4F5F54414700005468697320697320E0
:10346000617373657274206C6F67206F757470750B
:103470007421000054686973206973206572726F4B
:1034800072206C6F67206F75747075742100000076
:1034900054686973206973207761726E696E672062
:1034A0006C6F67206F757470757421005468697350
:1034B00020697320696E666F206C6F67206F75746A
:1034C00070757421000000005468697320697320CE
:1034D0006465627567206C6F67206F7574707574B2
:1034E0002100000054686973206973207665726258
:1034F0006F7365206C6F67206F7574707574210031
:10350000C1360008002115E001EB41000B4A02EB37
:10351000C000407B60B9012001EB4102074B03EB87
:10352000C202507301EB41001A4602EBC000704723
:10353000481CC1B21429E7DB0020F8E73C07002053
:10354000F0B585B004460D46002000900026002707
:103550003C268DF800408DF80150ADF80460ADF8C0
:103560000600CDF80CD00220ADF80800012201A918
:1035700003480068FFF705FEC7B2384605B0F0BD46
:10358000A001002070B504460D4616463246294675
:103590006068FFF7A5FC70BD2DE9F04105460E46B9
:1035A0001746FFF7AFFF04466560A7600020206163
:1035B00015480068284420600020217B134A50549D
:1035C0001EB1207B124941F820600F49206809682C
:1035D00088420CD20F48007E80F0010000EB4000D2
:1035E0000C4A02EB80012046FFF71DFE09E0094866
:1035F000007E00EB4000074A02EB80012046FFF707
:1036000012FE2046BDE8F081AC00002094090020A5
:10361000440900201C09002010B50446012C02D0EA
:10362000022C0AD104E001210548FDF7C4FB10BDBE
:1036300002210348FDF7BFFBF9E70020F7E7000090
:103640000008014070B504460748007E00EB4000CA
:10365000054901EB80052946204600F009F8034999
:103660002046FFF718FE70BD1C0900203809002015
:103670000A6882420AD102690A600A6812B9002205
:103680004A600EE0002203695A610AE0D0E904238F
:103690001A61026912B942694A6002E0D0E9043253
:1036A0005A610A7A521E0A727047000010B5034828
:1036B00090F9000000F038F910BD00001C00002057
:1036C00000B585B01E4880791D4949791C4A127998
:1036D0001CA3CDE90132CDE903106C20234B24A2B9
:1036E00026A100900320FEF79BFE1548807914491F
:1036F0004979134A127923A3CDE90132CDE90310A8
:103700006D201A4B1AA21DA100900320FEF788FE1F
:103710004FF4FA6000F0BCF80948827941790079E9
:1037200021A3CDE90130CDE903126F200F4B10A288
:1037300012A100900320FEF773FE05B000BD00004B
:103740001400002061667465722072756E6C61747D
:1037500065723D3D3D3E5B253032643A2530326432
:103760003A253032645D0D0A00000000F43B000889
:10377000555345525C6D61696E2E63004E4F5F5428
:10378000414700006265666F72652064656C61790F
:103790003D3D3D3E5B253032643A253032643A256A
:1037A0003032645D0D0A00006166746572206465E4
:1037B0006C61793D3D3D3E5B253032643A253032C7
:1037C000643A253032645D0D0A00000010B51548DA
:1037D000FCF7E4FC144908801248401DFCF7DEFCAD
:1037E000114988700F480830FCF7D8FC0E49C870A2
:1037F0000C480B30FCF7D2FC0B49087109480E301D
:10380000FCF7CCFC0849487106481130FCF7C6FCAF
:10381000054988714FF6FF7204494FF47A7000F041
:10382000A7F810BDE03B0008140000203138000864
:1038300010B50F488079401CC0B20D4988713C28F2
:1038400015D10020887108464079401CC0B24871EB
:103850003C280CD10020487108460079401CC0B2B9
:103860000871182803D100200871FEF7FDFC10BD77
:103870001400002010B5044621460020FFF760FE2A
:1038800010BD10B5044621464020FFF759FE10BD7B
:1038900070B5044672B6012200212046FFF77CFE77
:1038A000054662B600BF287B0249085C0028FAD0B2
:1038B00070BD00009409002070B51548FFF7AEFCFC
:1038C0001448FFF7ABFC13480C30FFF7A7FC0020AF
:1038D0001049087610490860002514E005EB450002
:1038E0000E4901EBC0040020607360602060A0609E
:1038F0002061606125730A4941F82500FF200949CC
:103900004855681CC5B2142DE8DBFDF757FC70BDA7
:10391000380900201C090020AC0000203C070020D2
:1039200044090020940900202DE9F041074672B6B1
:10393000002414E004EB44000C4901EB80063146FE
:103940003846FFF7B9F905463DB131462846FFF73D
:103950008FFE2846FFF7D0F903E0601CC4B2022CAA
:10396000E8DB00BF62B6BDE8F08100001C09002062
:103970002DE9F04104460D46164672B632462946F8
:103980002046FFF709FE074662B6387B40B2BDE825
:10399000F081000070B5002416E01848005DFF2893
:1039A00010D01648005D00280CDD154850F82400A2
:1039B00018B1134951F8240080471048005D401E9B
:1039C0000E490855601CC4B2142CE6DB0D48007A81
:1039D000002812DD0B4805680CE0287B0749085CCD
:1039E00038B908492846FFF743FE2846FFF784F90F
:1039F00002E02D69002DF0D100BF70BD94090020B8
:103A0000440900203809002070B504460D4672B6FE
:103A1000012229462046FFF7BFFD064662B6307BED
:103A200040B270BD70B52A480068401C284909683A
:103A3000884205D22748007E80F00100254908769B
:103A400023480068401C224908602248007E00EBA1
:103A50004000204901EB80052C6831E0207B1E49A5
:103A6000085C401C217B1C4A50544FF6FF71A06833
:103A7000884209D0A068401EA06028B90220607367
:103A80002046FFF7DFFD1AE0114960680968084425
:103A9000206029462046FFF7EBFD0D4920680968A4
:103AA000884208D20B48007E80F0010000EB400005
:103AB000084901EB800529462046FFF7B4FB24693D
:103AC00024B10349206809688842C7D970BD000045
:103AD000AC0000201C0900209409002038B50446E1
:103AE00001210420FDF706FAC020ADF800001420E3
:103AF0008DF8030003208DF8020069460C48FDF79D
:103B0000CFF840200A491031086080200860094839
:103B10000949086009488860094848600948C86040
:103B200009480861084660600848206038BD000008
:103B300000080140392E0008A8090020112E0008B5
:103B4000212E0008012E0008E52D0008853500080B
:103B500008B50020009001211020FDF7CBF94FF4AB
:103B60000050ADF8000003208DF8020010208DF801
:103B7000030069460848FDF793F84FF6FF720749BE
:103B80004FF4FA70FFF7F4FE05490870054944F652
:103B90002060FFF739FF08BD00100140A93B000875
:103BA0001C000020AD36000810B50B48007828B97D
:103BB0004FF400510948FDF707F904E04FF40051B4
:103BC0000648FDF703F90448007808B9012000E031
:103BD00000200149087010BD300000200010014095
:103BE000323032333A30343A30362331373A3136A4
:103BF0003A30300072756E6C617465725F74657313
:103C000074006D61696E00656C6F675F73746172DB
:103C10007400656C6F675F73746F7000656C6F67BD
:103C20005F7365745F6F75747075745F656E6162E4
:103C30006C656400656C6F675F7365745F666D7457
:103C400000656C6F675F7365745F66696C7465723D
:103C500000656C6F675F7365745F66696C7465722D
:103C60005F6C766C00656C6F675F7365745F666927
:103C70006C7465725F7461675F6C766C00656C6F05
:103C8000675F6765745F66696C7465725F746167AE
:103C90005F6C766C00656C6F675F6F7574707574C0
:103CA000006765745F666D745F656E61626C656404
:103CB00000656C6F675F66696E645F6C766C00654B
:103CC0006C6F675F66696E645F74616700656C6FD7
:103CD000675F73747263707900656C6F675F6370A0
:103CE000796C6E00656C6F675F6D656D63707900F0
:103CF0000008014001000000C80000002C01000085
:103D00003200000000000000000000000000000081
:103D100000000000000000000000000000000000A3
:103D20000008014002000000C80000002C01000053
:103D30003200000000000000000000000000000051
:103D40000000000000000000000000000000000073
:103D50000008014004000000C80000002C01000021
:103D60003200000000000000000000000000000021
:103D70000000000000000000000000000000000043
:103D80000008014008000000C80000002C010000ED
:103D900032000000000000000000000000000000F1
:103DA0000000000000000000000000000000000013
:103DB0006B65795F7363616E0042544E315F5349A6
:103DC0004E474C455F436C69636B5F48616E646C42
:103DD00065720042544E315F444F55424C455F433B
:103DE0006C69636B5F48616E646C65720042544E2F
:103DF000315F4C4F4E475F50524553535F535441D0
:103E000052545F48616E646C65720042544E315F7B
:103E10004C4F4E475F50524553535F484F4C445FA1
:103E200048616E646C65720042544E325F50524578
:103E300053535F444F574E5F48616E646C65720028
:103E400042544E325F50524553535F55505F486164
:103E50006E646C65720042544E325F50524553534B
:103E60005F5245504541545F48616E646C65720015
:103E700042544E325F53494E474C455F436C696331
:103E80006B5F48616E646C65720042544E325F44F1
:103E90004F55424C455F436C69636B5F48616E648C
:103EA0006C65720042544E325F4C4F4E475F505229
:103EB0004553535F53544152545F48616E646C657F
:103EC000720042544E325F4C4F4E475F5052455342
:103ED000535F484F4C445F48616E646C6572005498
:103EE000494D325F49525148616E646C6572000001
:103EF00040404040404040404041414141414040BD
:103F000040404040404040404040404040404040B1
:103F1000050202020202020202020202020202027E
:103F20002020202020202020202002020202020245
:103F3000029090909090901010101010101010108F
:103F400010101010101010101010100202020202B7
:103F500002888888888888080808080808080808E7
:103F600008080808080808080808080202020240B1
:103F7000F03E0008412F0000442F0000452F0000B4
:103F8000492F0000562F0000572F000033323B32DC
:103F9000326D000033333B32326D000033343B323C
:103FA000326D000033353B32326D000033363B3228
:103FB000326D000033313B356D000000DC3F0008FE
:103FC00000000020B001000028080008E8400008B8
:103FD000B0010020500D0000B0150008412D010275
:103FE000030404000925060708090204060884A240
:103FF0004A04693C4113743F1B087C041A88041A64
:1040000080041A78041A84041AA4041AB4041A94B2
:10401000041AAC041A8C041A9C040130200F0424E6
:104020004484649C40300FC80808281810101008F9
:104030000601824C201806010618204080254040C9
:1040400042CC1CFC0402043304FC100F40201F204F
:10405000404F4442407F42444340180B8060F80781
:1040600004E4242424FF042AE4C312FF300C8081DA
:104070004529112F41418181801BFE2201490531D3
:104080001D80601F0201477F020242827F300C3098
:104090002CA67864A420FC8484781F0202017E4A46
:1040A0004B023A7E1C16E85452D830367E908888EF
:1040B000701C7F0949332D7E4844420E194B195D0F
:1040C0001119A429C71B0201AB323F330306280B89
:1040D00008C8380C0AE8080888080D1B0809012ED2
:0840E0007F090908080FE10047
:04000005080000ED02
:00000001FF
