:020000040800F2
:10000000000C00204901000811150008950C00089B
:100010000D150008D50A0008711D00080000000039
:10002000000000000000000000000000E1190008CE
:10003000D90A00080000000029150008F51A000878
:100040006301000863010008630100086301000800
:100050006301000863010008DD0A0008630100086D
:1000600063010008630100086301000863010008E0
:1000700063010008630100086301000863010008D0
:1000800063010008630100086301000863010008C0
:1000900063010008630100086301000863010008B0
:1000A00063010008630100086301000863010008A0
:1000B000B91B000863010008630100086301000820
:1000C0006301000863010008630100086301000880
:1000D0006301000863010008630100086301000870
:1000E0006301000863010008630100086301000860
:1000F0006301000863010008630100086301000850
:10010000630100086301000863010008630100083F
:10011000630100086301000863010008630100082F
:10012000630100086301000863010008630100081F
:10013000DFF810D000F098FA00480047A934000812
:10014000AFF30080000C00200648804706480047B7
:10015000FEE7FEE7FEE7FEE7FEE7FEE7FEE7FEE777
:10016000FEE7FEE70D1B000831010008D2B201E0F6
:1001700000F8012B491EFBD270470022F6E710B5AC
:1001800013460A4604461946FFF7F0FF204610BD05
:1001900030B505462A460B4612F8010B13F8014B01
:1001A00008B1A042F8D01CB1002802D06D1CF1E7C4
:1001B000284630BD421C10F8011B0029FBD1801AD3
:1001C000704730B505460020034600E05B1C9342B3
:1001D00005D2EC5CC85C201A01D1002CF6D130BDF0
:1001E00070B5064601F00AFE046805460A220021A1
:1001F000304600F049F82C6070BD30B50B46014622
:1002000000202022012409E021FA02F59D4205D3B5
:1002100003FA02F5491B04FA02F52844151EA2F15F
:100220000102F1DC30BD2DE9F05F05460020924669
:100230009B4688460646814640241BE028464146A8
:100240004746224600F031FA53465A46C01A9141B9
:1002500010D311461846224600F018FA2D1A67EB03
:1002600001084F4622460120002100F00FFA17EB4B
:1002700000094E41201EA4F10104DFDC484631464E
:100280002A464346BDE8F09F2DE9F04791460F46C8
:1002900080460446002614F8015B2DB100F028FAD0
:1002A0000068405DC007F6D12B2D02D02D2D18D04F
:1002B000641E4A463946204600F01EFA27B13968C6
:1002C000A14201D1C7F8008071054FF002040BD59F
:1002D0004042002803DD01F091FD0460A007BDE865
:1002E000F08746F48066E4E70028F8DA01F086FD3E
:1002F00004606FF00040F2E72DE9FE4F804681EA8E
:100300000300C00F0C46009021F0004123F000458F
:10031000B8EB0200A94105D24046214690461C4652
:100320000B46024623F00040104347D0270DC7F389
:100330000A00C3F30A510290401A019040286BDA78
:10034000C3F3130040F4801B0098924620B10023B1
:10035000D2EB030A63EB0B0B01985946C0F1400244
:10036000504600F093F906460D4650465946019A0C
:1003700000F0ABF910EB08006141002487EA11524C
:1003800084EAE7731A4340D0009A62B3019A012AC3
:100390004FEA075215DC001B61EB02014FF00042EF
:1003A00002EA0752CDE90042001C41F580113246B5
:1003B0002B4600F0FFF903B0BDE8F08F4046214620
:1003C000F9E7001B61EB0201001C41F580130018E6
:1003D0005B412018A2F5001747EB030140EAD570F6
:1003E000B6196D4111E06D084FEA360645EAC07551
:1003F0004FEA0752001B61EB0201001C41F580111E
:1004000049084FEA30000019514132462B4603B0EB
:10041000BDE8F04F00F0BFB9009801224000002372
:10042000D0EB020263EBE073009821464FEAE074E0
:10043000B8EB000061EB0401E9E783F000435BE700
:1004400081F0004158E72DE9FE4F81EA030404F0F2
:10045000004421F0004100944FF0000B23F00043D2
:1004600050EA01045ED052EA03045BD0C3F30A549D
:10047000C1F30A552C44A4F2F3340194A0FB0254B6
:10048000C1F3130141F48011C3F3130343F4801348
:1004900001FB024400FB034E840A970A44EA81549C
:1004A00047EA8357A4FB076802958D0A05FB078579
:1004B0004FEA932C04FB0C542705029D4FEA065883
:1004C00047EA1637B5EB08056EEB070C870E920E60
:1004D00047EA811742EA8312A7FB0201B6EB0B0140
:1004E00064EB00042B0D43EA0C335E1844EB1C5004
:1004F000DA465146E7FB0201C5F313044FEA0B331A
:1005000043EA14534FEA0432019C43EA0603A4F180
:100510000C040294009CCDE900B400F04BF903B048
:10052000BDE8F08F00200146F9E72DE9F04D81EAA2
:10053000030404F0004B21F0004514464FF0000A7C
:1005400023F0004150EA050220D054EA01021DD0F8
:10055000C5F30A570246C5F31303C1F31300C1F3F1
:100560000A5640F4801543F48013A7EB0608101BCD
:10057000D64608F2FD3873EB050002D308F10108F6
:1005800001E092185B41B8F1000F03DA0020014648
:10059000BDE8F08D00204FF48011064684460EE041
:1005A000171B73EB050705D3121B63EB050306430B
:1005B0004CEA010C49084FEA300092185B4150EABE
:1005C0000107EDD152EA030012D082EA040083EA67
:1005D0000501084305D0101BAB4106D201220023C0
:1005E00006E000224FF0004302E06FF001025310DA
:1005F0001AEB06004CEB085110EB0A0041EB0B0123
:10060000BDE8F04D00F0C7B8C1F30A52C1F31301C1
:1006100040F2FF3341F480119A4202DA0020014691
:10062000704740F233439A42A2F2334202DC524214
:1006300000F03BB800F02AB830B5041E71F1000498
:1006400004DB4FF00044404264EB0101141E73F1DF
:10065000000405DB1C464FF00043524263EB0403E9
:10066000994208BF904230BD064C074D06E0E06855
:1006700040F0010394E8070098471034AC42F6D3E9
:10068000FFF75AFDD83E0008F83E0008202A04DB98
:10069000203A00FA02F1002070479140C2F1200395
:1006A00020FA03F3194390407047202A04DB203AD4
:1006B00021FA02F00021704721FA02F3D040C2F182
:1006C00020029140084319467047202A06DBCB17C9
:1006D000203A41FA02F043EAE07306E041FA02F3FD
:1006E000D040C2F1200291400843194670470000F3
:1006F00000487047443E00082DE9F05F82460078CC
:10070000002715468B460AF10104B946302801D06E
:100710009DB113E014F8010B0127782803D0582865
:1007200001D045B10AE00DB1102D07D100271025E9
:1007300014F8010B02E0082500E00A250026B04667
:100740000EE005FB080005FB06F1012701EB104652
:100750001FFA80F8B6F5803F00D3B94614F8010BB4
:10076000294600F075F80028EBDABBF1000F05D040
:100770000FB1641E00E05446CBF80040B9F1000F01
:1007800006D001F03BFB02210160C81EBDE8F09FCE
:1007900048EA0640FAE710B5141E73F1000408DABF
:1007A000401C41F1000192185B411A4301D120F035
:1007B000010010BD2DE9F04D92469B4611B1B1FAF2
:1007C00081F202E0B0FA80F220329046FFF75EFF3D
:1007D00004460F4640EA0A0041EA0B0153465A46D6
:1007E000084313D0114653EA010019D0C8F1400262
:1007F0005046FFF75AFF05460E46504659464246B8
:10080000FFF744FF084305D0012004E020463946A5
:10081000BDE8F08D0020054346EAE0762C433743DF
:100820000A986305E40AA0EB08000022FD0A44EAE6
:1008300047540A3002D500200146E9E701051019A6
:100840006941DDE9084500196941BDE8F04DA2E7BD
:100850003A2800D2303820F02002412A01D3A2F1F8
:100860003700884201D34FF0FF30704710B50F4872
:10087000006820F00F000D4908600846006840F04D
:100880000300086001200A4908600A49C1F8A00174
:1008900000F05AF800200649091F086000F054F8DB
:1008A00000200449C1F8A40110BD0000040C01405F
:1008B000A48121420080214210B50D48006820F03B
:1008C0000F000B4908600846006840F0030008600C
:1008D0000020084908600849C1F8A00100F034F878
:1008E0000120044908600449C1F8A00110BD0000BE
:1008F000040C0140A48121420080214210B5002057
:100900000E4908600E48006820F00F000C4908608E
:100910000846006840F00300086000200949C1F85B
:10092000A00100F011F801200449086000F00CF863
:1009300000200449C1F8A40110BD0000A481214297
:10094000040C01400080214210B5022102480068D9
:1009500001F074FF10BD00002000002010B5002041
:100960000E4908600E48006820F00F000C4908602E
:100970000846006840F00300086001200949C1F8FA
:10098000A001FFF7E1FF012004490860FFF7DCFF49
:1009900000200449C1F8A40110BD0000A481214237
:1009A000040C01400080214270B505460024164821
:1009B000006820F00F00144908600846006840F005
:1009C00008000860002614E0002010490860FFF7C6
:1009D000BBFF01200E49C1F8A4016006040E0B48BC
:1009E0008438006808B1601CC4B2FFF7ADFF701C0A
:1009F000C6B2082EE8DB15B9FFF7B0FF01E0FFF73C
:100A00007DFF204670BD0000040C0140A4812142FE
:100A10000080214270B504461248006820F00F00A3
:100A2000104908600846006840F003000860002094
:100A30000D490860002512E0E0090B49091F086014
:100A40006006040E01200949C1F8A401FFF77CFFEC
:100A5000002005490860FFF777FF681CC5B2082D24
:100A6000EADB70BD040C0140A481214200802142D8
:100A700010B500241448006820F00F0012490860E7
:100A80000846006840F00800086001200F4908602F
:100A9000FFF75AFF01200E49C1F8A401FFF754FFE8
:100AA00007E0601CC4B2FA2C03DDFFF705FF01204C
:100AB00010BD0648803800680028F2D10349091D9E
:100AC000086000BFF4E70000040C0140A08121424F
:100AD0000080214200BFFEE77047000010B50A21E8
:100AE0000748006801F082FE0121064800F0BEF8C8
:100AF00008B900F01BFD012000F006F810BD000051
:100B000020000020000801400149086070470000F3
:100B10001404014010B501F03BFF012002F0E8FA97
:100B2000FF21002002F024FA0321012002F020FA24
:100B30000321022002F01CFA0321084602F018FAF1
:100B4000E321042002F014FAFF21052002F010FA3C
:100B500002F0D4FA10BD2DE9F0410246002500262E
:100B6000002000230024002791F803C00CF00F059B
:100B700091F803C00CF0100CBCF1000F03D091F8F9
:100B800002C04CEA050591F800C0BCF1000F31D05D
:100B9000146800202BE04FF0010C0CFA00F3B1F8C0
:100BA00000C00CEA03069E4220D183004FF00F0CD8
:100BB0000CFA03F7BC4305FA03FC4CEA040491F871
:100BC00003C0BCF1280F06D14FF0010C0CFA00FC59
:100BD000C2F814C00AE091F803C0BCF1480F05D177
:100BE0004FF0010C0CFA00FCC2F810C0401C0828A1
:100BF000D1D31460B1F800C0BCF1FF0F34DD5468EC
:100C000000202EE000F1080C4FF0010808FA0CF368
:100C1000B1F800C00CEA03069E4221D183004FF0D8
:100C20000F0C0CFA03F7BC4305FA03FC4CEA04046E
:100C300091F803C0BCF1280F05D100F1080C08FAA7
:100C40000CF8C2F8148091F803C0BCF1480F07D12A
:100C500000F1080C4FF0010808FA0CF8C2F81080F7
:100C6000401C0828CED35460BDE8F0810246002025
:100C700093680B400BB1012000E0002070474161F8
:100C8000704701617047000001480068704700002C
:100C90008C00002000BFFEE700B58BB01D208DF852
:100CA000040002208DF805003D208DF8060002208A
:100CB0008DF80700042301AA1F21AC2000F0E0FA00
:100CC000E1208DF8040025208DF8050006208DF820
:100CD000060032208DF807002C208DF80800012036
:100CE0008DF8090032208DF80A0000208DF80B00E5
:100CF000C1208DF80C003C208DF80D0002208DF8ED
:100D00000E0014208DF80F00C8208DF81000002070
:100D10008DF811000E2301AA2121AC2000F0B0FAB9
:100D20000A208DF8040000208DF8050032208DF88F
:100D3000060000208DF8070014208DF80800002020
:100D40008DF8090050208DF80A0000208DF80B0066
:100D5000A0208DF80C0000208DF80D000A208DF8E1
:100D60000E0000208DF80F003C208DF810000020B0
:100D70008DF811000A208DF8120000208DF8130064
:100D80000A208DF8140000208DF8150005208DF83C
:100D9000160008208DF8170064208DF81800002038
:100DA0008DF81900162301AA2821AC2000F068FA5A
:100DB00077208DF8040003208DF8050088208DF839
:100DC00006000F208DF8070014208DF808000E2073
:100DD0008DF8090008208DF80A0000208DF80B001E
:100DE00004208DF80C008DF80D00DC208DF80E002D
:100DF00008208DF80F00F0208DF8100010208DF8DD
:100E0000110002208DF812001A208DF81300022024
:100E10008DF814001A208DF8150003208DF81600A7
:100E20008C208DF8170067208DF818009C208DF815
:100E30001900162301AA3621AC2000F021FA2C203B
:100E40008DF8040006208DF805008DF806000120BD
:100E50008DF80700FF208DF8080000208DF80900AC
:100E6000FF208DF80A0000208DF80B0006208DF879
:100E70000C0000208DF80D007C208DF80E00002065
:100E80008DF80F0007208DF8100080208DF81100DC
:100E900014208DF8120003208DF8130046208DF8E1
:100EA00014008DF8150000208DF816008DF817003D
:100EB000142301AA4121AC2000F0E2F91F208DF893
:100EC0000400FF208DF8050096208DF80600002014
:100ED0008DF8070096208DF8080000208DF8090095
:100EE00032208DF80A0000208DF80B002C208DF8A0
:100EF0000C0001208DF80D0096208DF80E000020CA
:100F00008DF80F00C8208DF8100000208DF811001A
:100F1000C8208DF8120000208DF8130064208DF891
:100F2000140000208DF8150064208DF816000020B4
:100F30008DF8170017208DF818001E208DF8190065
:100F4000162301AA4B21AC2000F09AF900208DF85D
:100F5000040001208DF8050002208DF8060006200F
:100F60008DF8070004208DF8080005208DF8090091
:100F70000B208DF80A000A208DF80B0009208DF84F
:100F80000C0008208DF80D0007208DF80E000320BE
:100F90008DF80F000C208DF8100000208DF8110046
:100FA0000E2301AA5621AC2000F06AF905208DF825
:100FB0000400FF208DF8050003208DF806000520B1
:100FC0008DF8070001208DF8080004208DF8090035
:100FD00005208DF80A0002208DF80B00FF208DF807
:100FE0000C0005208DF80D0006208DF80E0009205C
:100FF0008DF80F0005208DF8100007208DF81100E6
:101000000A208DF8120005208DF8130008208DF8B5
:1010100014000B208DF8150005208DF816000C200B
:101020008DF817000F208DF8180005208DF8190095
:101030000D208DF81A0010208DF81B0005208DF86A
:101040001C000E208DF81D0011208DF81E000520BB
:101050008DF81F0012208DF8200015208DF821003A
:101060001E2301AA5D21AC2000F00AF905208DF8AD
:10107000040013208DF8050016208DF806000520C9
:101080008DF8070014208DF8080017208DF809004E
:1010900005208DF80A0018208DF80B001B208DF814
:1010A0000C0005208DF80D0019208DF80E001C2075
:1010B0008DF80F0005208DF810001A208DF8110012
:1010C0001D208DF8120005208DF81300FF208DF8EB
:1010D000140021208DF8150005208DF816001F2022
:1010E0008DF8170022208DF8180005208DF81900C2
:1010F00020208DF81A00FF208DF81B0005208DF8A8
:101100001C00FF208DF81D008DF81E0005208DF8B5
:101110001F00FF208DF820008DF8210005208DF89C
:101120002200FF208DF823008DF82400212301AA3E
:101130006C21AC2000F0A4F8A0208DF80400002061
:101140008DF805006C208DF8060007208DF807004B
:1011500000208DF808008DF80900062301AA33212C
:10116000AC2000F08DF80BB000BD70B50446FFF761
:101170007DFBAC20FFF74EFCFFF77AFC2046FFF723
:1011800049FCFFF775FCFFF771FBAD20FFF742FC50
:10119000FFF76EFC0020FFF707FC0546FFF78CFB0E
:1011A000284670BD2DE9F04104460F4615461E46FF
:1011B000FFF75CFB2046FFF72DFCFFF759FC20B141
:1011C000FFF77AFB0120BDE8F0813846FFF722FCEB
:1011D000FFF74EFCFFF74AFB44F00100FFF71AFC53
:1011E000FFF746FC0DE0012E04D10020FFF7BDFF04
:1011F000287003E00120FFF7B8FF2870701EC6B208
:101200006D1C002EEFD1FFF757FB0020DBE708B580
:101210006C208DF800009DF800203421AC2000F0F7
:101220000CF808BD08B52C208DF800009DF80020B2
:101230003421AC2000F001F808BD70B506460C461C
:101240001546FFF713FBAC20FFF7E4FBFFF710FC9C
:1012500018B1FFF731FB012070BD2046FFF7DAFB24
:10126000FFF706FC2846FFF7D5FBFFF701FC18B196
:10127000FFF722FB0120EFE7FFF71EFB0020EBE763
:101280002DE9F04105460E4617469846FFF7EEFA5F
:101290002846FFF7BFFBFFF7EBFB20B1FFF70CFB86
:1012A0000120BDE8F0813046FFF7B4FBFFF7E0FB1B
:1012B00000240BE0385DFFF7ADFBFFF7D9FB18B159
:1012C000FFF7FAFA0120ECE7601CC4B24445F1DBF9
:1012D000FFF7F2FA0020E4E71CB508215E48FFF7AB
:1012E000C5FCC40004215C48FFF7C0FC44EA80044C
:1012F00002215948FFF7BAFC44EA4004012156484C
:10130000FFF7B4FC0443554804605548007860B1C9
:101310005248006853490978884200D11CBD00201A
:101320004F4908700620504948704C4800680F2803
:1013300037D04E48007858B901204C4908704748CA
:10134000007848490870FFF79FFC4949086080E031
:101350004648007801287CD1424800783F49096816
:10136000884276D1FFF790FC41490968441A322C33
:1013700000D8D3E7B4F5966F12D900203B49087026
:1013800001203749087003203749487039A04F21A0
:101390003D4B3EA2CDE9001042A1032001F020FB0D
:1013A00057E032480078002830D0FFF76DFC304914
:1013B0000968441A322C00D8B0E7B4F5966F24D8E7
:1013C000FFF762FC39490968401ADC280FD8012070
:1013D000374908702449487036A06C212A4B2BA24B
:1013E000CDE900102FA1032001F0FAFA09E0012055
:1013F0003749087000202E490870FFF745FC354931
:101400000860FFF741FC2949086000BF30480078B8
:1014100001281BD1FFF738FC2E490968401ADC2847
:1014200014D92348007888B905200F494870002056
:10143000274908701E49087027A08621124B13A265
:10144000CDE9001017A1032001F0CAFA00200749D6
:10145000087000BF62E70000000801407000002033
:101460007E0000207D000020740000207C00002011
:10147000780000204B45595F545950455F4C4F4E02
:10148000472E0D0A00000000BA3D00085553455292
:101490005C4B45595C6170705F6B65795F7363612C
:1014A0006E2E63004E4F5F544147000084000020C1
:1014B000880000204B45595F545950455F444F55B3
:1014C000424C455F434C49434B2E0D0A000000003F
:1014D00089000020800000204B45595F5459504539
:1014E0005F53484F52545F55502E0D0A00000000C4
:1014F00010B54FF6FF720349052002F0A1FA024928
:10150000087010BDD91200081D00002000BFFEE7C2
:101510007047000002490143024A11607047000011
:101520000000FA050CED00E0704700002DE9F041E5
:101530008CB00024002500260027A0460121724817
:10154000FFF794FB00287BD1FFF761FE062307AA73
:101550000021AC20FFF726FE14236A460A21AC20A6
:10156000FFF720FE9DF80A0000F0800018B367A086
:1015700000F000FCFFF790FB6BA000F0FBFB9DF878
:101580001C009DF81D1000EB012084B29DF81E0088
:101590009DF81F1000EB012085B29DF820009DF8FA
:1015A000211000EB012086B233462A4621466548C9
:1015B00000F0E0FBA0E09DF80A0000F0200010B170
:1015C00061A000F0D7FB9DF80A0000F0080018B1F8
:1015D00064A000F0CFFB8FE09DF80A0000F010003F
:1015E00018B166A000F0C6FB86E09DF80B0000F085
:1015F0000300684908709DF80C009DF80D1000EB81
:10160000012087B29DF80E009DF80F1000EB01201D
:101610001FFA80F8394660A000F0ACFB414663A099
:1016200000F0A8FB9DF8080000F0010010B164A0D4
:1016300000F0A0FB9DF8080000F0020020B100E0DF
:101640005FE063A000F096FB9DF8080000F0040046
:1016500010B163A000F08EFB9DF8080000F00800B8
:1016600010B163A000F086FB9DF8080000F01000A8
:1016700010B164A000F07EFB9DF8090000F00100AD
:1016800010B164A000F076FB9DF8090000F00200A4
:1016900010B163A000F06EFB9DF8090000F004009B
:1016A00010B162A000F066FB9DF8090000F0080090
:1016B00010B161A000F05EFB9DF8090000F0100081
:1016C00010B160A000F056FB9DF8090000F020006A
:1016D00010B161A000F04EFB9DF8090000F0400041
:1016E00010B162A000F046FB9DF8090000F08000F8
:1016F00010B163A000F03EFBFFF794FD65A000F081
:1017000039FB0CB0BDE8F081000801400A204951C6
:101710005337323131455F52657365745F6F636370
:1017200075727265640000000A20495153373231E6
:1017300031455F496E69745F66696E697368656497
:1017400000000000903E00080A2049515337323112
:1017500031455F414C505F4154495F4572726F7231
:10176000000000000A2049515337323131455F41B2
:1017700054495F4572726F72000000000A2049519F
:101780005337323131455F4154495F616374697643
:1017900065000000940000200A20585F636F6F729C
:1017A00064696E6174653E3E202564000A20595FBD
:1017B000636F6F7264696E6174653E3E20256400DC
:1017C0000A2053696E676C65205461700000000048
:1017D0000A20446F75626C6520546170000000003F
:1017E0000A20547269706C6520546170000000001A
:1017F0000A20507265737320616E6420486F6C64B8
:10180000000000000A2050616C6D204765737475FC
:10181000726500000A20537769706520582B00001C
:101820000A20537769706520582D00000A205377ED
:1018300069706520592B00000A2053776970652074
:10184000592D00000A20537769706520616E64206D
:10185000486F6C6420582B000A205377697065200C
:10186000616E6420486F6C6420582D000A20537705
:1018700069706520616E6420486F6C6420592B008C
:101880000A20537769706520616E6420486F6C642C
:1018900020592D000A20454E442052445920436FC0
:1018A0006D6D730029B1064A92690243044B9A6137
:1018B00004E0034A92698243014B9A617047000039
:1018C0000010024030B500210022002400232D4DDD
:1018D0006D6805F00C0121B1042905D0082923D138
:1018E00005E0294D056022E0274D05601FE0254DEC
:1018F0006D6805F47012234D6D6805F4803402257F
:1019000005EB92421CB9214D554305600BE01D4D7E
:101910006D6805F400351DB11C4D5543056002E0AE
:10192000194D5543056002E0174D056000BF00BF2B
:10193000144D6D6805F0F0010909154D6B5C0568E3
:10194000DD4045600F4D6D6805F4E061090A104DFA
:101950006B5C4568DD4085600A4D6D6805F460513B
:10196000C90A0B4D6B5C4568DD40C560054D6D686F
:1019700005F44041890B074D6B5CC568B5FBF3F579
:10198000056130BD0010024000127A0000093D00E0
:10199000000000201000002001460020034A50688B
:1019A00020F0F00008435060704700000010024033
:1019B00001460020034A506820F4E060084350606C
:1019C000704700000010024001460020034A5068A2
:1019D00020F4605040EAC10050607047001002409F
:1019E000704710B500F002F810BD00000CB50020E3
:1019F000019000903348006840F48030314908601D
:101A000000BF3048006800F4003000900198401C8E
:101A10000190009818B90198B0F5A06FF1D129484C
:101A2000006800F4003010B10120009001E00020B7
:101A300000900098012843D12348006840F010002E
:101A4000214908600846006820F003000860084645
:101A5000006840F0020008601A4840681949486070
:101A60000846406848600846406840F48060486026
:101A70000846406820F47C1048600846406840F4FE
:101A8000E81048600846006840F08070086000BFB9
:101A90000C48006800F000700028F9D00948406840
:101AA00020F00300074948600846406840F0020003
:101AB000486000BF0348406800F00C000828F9D1D6
:101AC0000CBD00000010024000200240042808D194
:101AD0004FF0E021096941F004014FF0E02211616B
:101AE00007E04FF0E021096921F004014FF0E02206
:101AF0001161704710B504480068401C0249086035
:101B000001F0F8FF10BD00008C00002010B5134854
:101B1000006840F00100114908600846406810491B
:101B200008400E494860084600680E4908400B49C5
:101B300008600846006820F4802008600846406875
:101B400020F4FE0048604FF41F008860FFF749FF53
:101B50004FF000600449086010BD00000010024012
:101B60000000FFF8FFFFF6FE08ED00E070B500246E
:101B70004FF47A750420FFF7A9FF0020FFF718FF44
:101B80000020FFF709FF0020FFF71EFF094800684B
:101B9000B0FBF5F44FF0E020006940F002004FF098
:101BA000E021086108464461006940F001000861D5
:101BB00070BD00002000002010B50121880700F052
:101BC0000BF808B1FFF788FB0121880700F001F846
:101BD00010BDCA430282704730B502460020002380
:101BE0000024158A05EA0103958905EA010413B169
:101BF0000CB1012000E0002030BD000010B586B01F
:101C00000446002005900190029003900490012169
:101C100044F20400FFF746FE4FF40070ADF81400E4
:101C200003208DF8160018208DF8170005A912481A
:101C3000FEF791FF4FF48060ADF8140004208DF89A
:101C4000170005A90C48FEF786FF01940020ADF8A7
:101C50000800ADF80A00ADF80C00ADF810000C203B
:101C6000ADF80E0001A9054800F016F8012103485F
:101C700000F006F806B010BD000801400038014031
:101C800021B1828942F40052828104E082894DF6BA
:101C9000FF731A40828170472DE9F04786B00546F0
:101CA0000E460024A24600BFA1460027B08900B11D
:101CB00000BF2F462C8A4CF6FF700440F088044386
:101CC0002C82AC894EF6F3100440B0883189084369
:101CD000718908430443AC81AC8A4FF6FF4004404D
:101CE000B0890443AC8201A8FFF7ECFD1F4887428E
:101CF00002D1DDF810A001E0DDF80CA0A88900F405
:101D0000004040B10AEBCA0000EB0A1031684900FC
:101D1000B0FBF1F807E00AEBCA0000EB0A103168EB
:101D20008900B0FBF1F86420B8FBF0F00401200951
:101D3000642101FB1089A88900F4004040B13220E1
:101D400000EBC900B0FBF1F000F00700044308E02D
:101D5000322000EB09106421B0FBF1F000F00F001D
:101D600004432C8106B0BDE8F08700000038014034
:101D700000BFFEE70FB4054B10B503A9044A029853
:101D800000F012F910BC5DF814FB00009D32000851
:101D9000380000200FB47CB50C0009AD01D0611EE5
:101DA00000E00021CDE90001064B6A46294608986B
:101DB00000F0FAF8002C02D0009A002111707CBCCF
:101DC0005DF814FBAF2600087CB50C001D461646D6
:101DD000014601D0601E00E00020CDE90010064B56
:101DE0006A462946304600F0DFF8002C02D0009AFF
:101DF000002111707CBD0000AF260008004870472C
:101E00009800002002E008C8121F08C1002AFAD179
:101E100070477047002001E001C1121F002AFBD16A
:101E2000704700002DE9FF5F82B00021DDE904303A
:101E3000020DDDF840B0034318D044F61050A2F272
:101E4000FF3242431514119801281FD0A5EB0B0057
:101E5000401C5FEA000A4FF000064E4FDFF8389151
:101E6000B046504615D5CAF1000413E0119801247C
:101E70004AA3012801D16FEA0B010298119AC0E927
:101E80000031C0E9024206B0BDE8F09FCBF100008E
:101E9000DFE704460021404A491842EB0450CDE9EF
:101EA000001012E0E00707D032463B464046494664
:101EB000FEF7C9FA8046894632463B461046194627
:101EC000FEF7C1FA06460F466410002CEAD1DDE9A0
:101ED0000401DDE90023BAF1000F06DAFEF7B3FAD8
:101EE00042464B46FEF7AFFA05E0FEF71EFB4246C0
:101EF0004B46FEF71AFB04460E460022284BFEF71F
:101F00009BFB03D84FF0FF30014607E00022254B32
:101F100020463146FEF7F0F9FEF776FB102409E083
:101F2000002C0ADB0A220023FEF77DF9039B3032E6
:101F30001A55641E50EA0102F2D1641C039AC4F1DE
:101F400011031444119A012A03D0012208430DD130
:101F50000AE0084304D000204FF0110B119072E703
:101F6000A3EB0B056D1E0DE05B4504DD4FF0000299
:101F700005F1010504E003DA4FF00002A5F10105C7
:101F8000002AECD002981199C0E90231C0E900455D
:101F900079E70000000014400000F03F300000002E
:101FA0000000F0430000E03F2DE9FF4F95B09A4656
:101FB000884606460025EEE1252877D100242746ED
:101FC000F94A0121039400E0044316F8013F203B45
:101FD00001FA03F01042F7D130782A2811D06FF0BF
:101FE0002F033078A0F13002092A16D8039A44F062
:101FF000020402EB820203EB42021044761C0390BF
:10200000EFE758F8042B0392002A03DA504244F415
:102010000054039044F00204761C30782E2816D128
:1020200016F8010F44F004042A280DD06FF02F0297
:102030003078A0F13003092B09D807EB870302EBB6
:102040004303C718761CF3E758F8047B761C3078F6
:102050006C280FD006DC4C2817D068280DD06A28D1
:1020600014D104E0742810D07A280FD10DE044F484
:1020700000140AE044F4801401E044F4401472783F
:10208000824202D104F58014761C761C30786628D2
:102090000BD013DC582877D009DC002875D04528F0
:1020A000F6D04628F4D047281AD193E118E06328E7
:1020B00035D0642879D0652812D18BE1702873D08F
:1020C00008DC6728F1D069286FD06E280DD06F2802
:1020D00006D1ACE073282CD0752874D0782853D062
:1020E0005246179990476D1C54E1C4F302500228E0
:1020F00009D003280DD0D8F8001004280DD00D60A9
:1021000008F1040846E1D8F80010EA17C1E90052C6
:10211000F6E7D8F800100D80F2E70D70F0E718F838
:10212000041B8DF8001000208DF80100EB46012003
:1021300003E058F804BB4FF0FF3061074FF0000197
:1021400002D40DE009F101018946B9420FDA814557
:10215000F8DB1BF809100029F4D108E009F10101AE
:1021600089468142FADB1BF809100029F6D1039851
:102170005346A0EB090721463846179A00F080FA2B
:10218000284400EB090507E044E008E10DE01BF8F6
:10219000010B524617999047B9F10109F7D25346FE
:1021A00021463846179AF2E039E00A21C4F3025278
:1021B0004FF0000B0091022A06D058F8040BC1170B
:1021C000032A09D00AE023E008F1070020F0070203
:1021D000F2E80201904605E000B2C117042A01D1DD
:1021E00040B2C117002906DA0A460021404261EBDD
:1021F00002012D2202E0220504D52B228DF80420B5
:10220000012203E0E20701D02022F7E7914657E0E0
:102210000A2100E010214FF0000B00910BE010218B
:102220004FF0000B44F004040827009103E008205D
:102230004FF0000B0090C4F30252022A05D058F868
:10224000040B0021032A08D008E008F1070020F061
:102250000702F2E80201904603E080B2042A00D1AE
:10226000C0B24FF0000922072AD53278702A07D071
:10227000DDF800C08CF0100C5CEA0B0C05D00EE011
:1022800040228DF80420012208E050EA010306D024
:1022900030238DF804308DF8052002229146009BF2
:1022A00083F0080353EA0B030AD150EA010201D17B
:1022B000620705D530228DF804204FF001097F1EFA
:1022C0003278582A04D039A20C920CAA02920BE060
:1022D0003BA2F9E75B46009AFDF7A5FF0C9B9B5CD0
:1022E000029A521E0292137050EA0102F2D1029831
:1022F00004A9081A00F1200B600702D524F48034E9
:1023000000E001275F4502DDA7EB0B0000E00020A5
:1023100000EB0B01009003984944401A0390E0033E
:1023200006D453462146179A039800F0A9F90544AC
:10233000002706E001A85246C05D179990476D1C22
:102340007F1C4F45F6DBE0030CD553462146179A18
:10235000039800F095F9054404E03020524617999F
:1023600090476D1C0099481E00900029F5DC08E09C
:102370000298029952460078491C02911799904799
:102380006D1CBBF10001ABF1010BF1DC5BE100F076
:1023900065F90544761C307800287FF40DAE19B03D
:1023A0002846BDE8F08F00000928010030313233A3
:1023B0003435363738396162636465660000000081
:1023C000303132333435363738394142434445466B
:1023D00000000000600700D4062708F1070020F085
:1023E0000700F0E80223804603F0004C5FEA0C008F
:1023F00001D097A009E0200501D596A005E0E007EF
:1024000001D095A001E0AFF24C001390307823F09A
:10241000004365280CD006DC452809D046281DD08D
:1024200047287FD13BE0662818D067287AD136E06C
:102430000021112F01DB112000E0781CCDE9000103
:1024400004A90CA8FFF7EEFCDDE90D010C9A4FF092
:10245000000B07F10109109200914EE04FF000408F
:102460000097CDE9011004A90CA8FFF7DBFCDDE91A
:102470000D020C9B0F994FF0000B914610930092A8
:1024800011B9791C00EB0109B7EB090003D4C0F1C5
:10249000FF3B07F10109A9EB0700019042E0012F82
:1024A00000DA01270021112F01DD112000E038465C
:1024B000CDE9000104A90CA8FFF7B4FCDDE90D018A
:1024C0000C9A00914FF0000BB946109221070FD4DF
:1024D000009A4A4503DA914601E0A9F10109B9F1F0
:1024E000010F05DD109AA9F10101515C3029F4D0EA
:1024F000B84202DA10F1040F03DA0121CDE901102C
:1025000010E0002803DC8344A9EB000102E0411C39
:10251000494500DD8946A0EB0B00401C01904FF0BF
:1025200000400290200705D40198484502DB4FF097
:10253000FF30019000208DF84B0002980DF14B0701
:10254000B0F1004F25D002200C902B200D90029866
:1025500000280CDA404202902D200D9007E00A215D
:102560000298FDF74AFE3031029007F8011D0C99E0
:10257000481E0C900029F2DC02980028EFD1791E49
:102580000D980870307800F0200040F0450007F802
:10259000020D11A8C01BC01D02901398007800B155
:1025A000012000EB0901019801EBE0710298014460
:1025B0000398401A401E0390E00306D45346214678
:1025C000179A039800F05CF805441398007818B146
:1025D0005246179990476D1CE00323D55346214678
:1025E000179A039800F04CF805441BE0BBF1000F6C
:1025F00007DB0098584504DD1098179910F80B0078
:1026000001E0179930205246904701980BF1010BD9
:10261000401E05F10105019004D12E205246179964
:1026200090476D1CB9F10001A9F10109DEDC05E05C
:1026300017F8010B5246179990476D1C0299481ED6
:1026400002900029F4DC53462146179A03989EE62F
:102650002D0000002B000000200000002DE9F041BB
:10266000044600251E461746880404D405E0394672
:102670002020B0476D1C641EF9D52846BDE8F081C6
:102680002DE9F041044600251E469046C80301D5B9
:10269000302700E02027880404D505E0414638466D
:1026A000B0476D1C641EF9D52846BDE8F0814A6824
:1026B000002A06D00A68531C0B6010704868401E40
:1026C000486070470EB50020029048208DF80B003E
:1026D0000120ADF8080003208DF80A0002A91A486D
:1026E000FEF739FA48208DF80B000220ADF80800FB
:1026F00003208DF80A0002A91348FEF72CFA48209F
:102700008DF80B000420ADF8080003208DF80A00B6
:1027100002A90D48FEF71FFA48208DF80B0008208B
:10272000ADF8080003208DF80A0002A90648FEF75C
:1027300012FA06A021210C4B0CA2CDE9001010A129
:10274000032000F04DF90EBD000801404B657920D3
:102750006770696F20636F6E66696720636F6D7065
:102760006C6574652E0D0A00AD3D00085553455249
:102770005C4B45595C6170705F6B65792E6300003E
:102780004E4F5F544147000010B5174880780D2820
:1027900027D2DFE800F0260718081109120A0B13E8
:1027A0000C140D0000BF00BF00BF00BF00BF00BF82
:1027B0001F2000F0F7FD15E000BF00BF00BF1E2086
:1027C00000F0F0FD0EE00849088800F054FE0128F2
:1027D00003D11D2000F0E6FD02E01C2000F0E2FD28
:1027E00000E000BF00BF10BD1400002010B502467D
:1027F0004FF4FA53B2FBF3F34B434FF0E024636121
:102800000023A36123461B6943F00103236100BF3A
:102810004FF0E023186900F001031BB100F480338E
:10282000002BF5D04FF0E0231B6923F001034FF09C
:10283000E02423610023A36110BD000010B502460F
:10284000114BB2FBF3F34B434FF0E02463610023E1
:10285000A36123461B6943F00103236100BF4FF0CE
:10286000E023186900F001031BB100F48033002B52
:10287000F5D04FF0E0231B6923F001034FF0E02473
:1028800023610023A36110BD00127A0070B586B0E9
:102890000546002D1BD12648006888B94FF4EE701C
:1028A000244925A229A3CDE90310CDE901320090E6
:1028B0000B462FA233A1002000F092F800BFFEE7E4
:1028C0004FF4EE721B491CA0194B1B68984700245B
:1028D00005262E4890F8F00010B9304606B070BDBD
:1028E00000F068FA00241BE004EB44112748313063
:1028F000084490F82000012810D104EB441223482A
:1029000031301044411C1E222846FDF75AFC28B9DC
:1029100004EB44111D483130465C03E0601CC4B236
:10292000052CE1DB00BF00F079FA3046D6E7000065
:102930006C0000203A3D000874616720213D20288A
:1029400028766F6964202A293029000028257329F8
:102950002068617320617373657274206661696CAD
:1029600065642061742025733A256C642E00000094
:10297000555345525C756172745C656C6F672E636C
:1029800000000000656C6F67000000009C000020E4
:1029900010B50024114890F8F000012801D120461C
:1029A00010BD00F05BFA04460CB12046F8E70120A8
:1029B00000F014FA0020094981F8F30081F8F400CE
:1029C000012000F095FB052000F05AFA00F0B2FA61
:1029D0000120024981F8F0002046E1E79C00002038
:1029E0002DE9F04F8DB005460F4693469846384680
:1029F000FDF7E0FB814600244FF0020A00200B9017
:102A00000C900790089009900A90052D1BDDC14895
:102A1000006888B940F23A20BF49C0A2C6A3CDE9F8
:102A20000310CDE9013200900B46CCA2D0A10020CA
:102A3000FFF7D6FF00BFFEE740F23A22B649B7A043
:102A4000B44B1B689847CC4890F8F10010B90DB012
:102A5000BDE8F08FC8480078A84204DB3846FFF78D
:102A600015FFA84200DAF2E7C349491C3846FDF7D2
:102A70008FFB00B9EBE718A8069000F09BF9BE4861
:102A800090F8F50078B1BD480119BDA2204600F0CC
:102A900077FB0444BB4850F82520B848011920466C
:102AA00000F06EFB04440121284600F01BFC40B1FD
:102AB000B54850F82520B1480119204600F060FBC8
:102AC00004440221284600F00DFCE8B1AB4801198E
:102AD0003A46204600F054FB0444B9F10F0F0CD8DD
:102AE000C9F10F01202207A8FDF740FBA3480119F7
:102AF00007AA204600F044FB0444A0480119A3A201
:102B0000204600F03DFB04441C21284600F0EAFB6F
:102B1000002852D0994801199DA2204600F030FBB0
:102B200004440421284600F0DDFBA8B100F092F92E
:102B30000590924801192046059A00F021FB0444B3
:102B40001821284600F0CEFB30B18C4801198FA225
:102B5000204600F015FB04440821284600F0C2FB83
:102B6000A8B100F06FF90590844801192046059A34
:102B700000F006FB04441021284600F0B3FB30B1FE
:102B80007E48011981A2204600F0FAFA044410217F
:102B9000284600F0A7FB48B100F058F905907748A7
:102BA00001192046059A00F0EBFA04447348011914
:102BB00078A2204600F0E4FA0444E021284600F020
:102BC00091FB00285CD06D48011973A2204600F0EB
:102BD000D7FA04442021284600F084FBF8B1674866
:102BE00001195A46204600F0CBFA044440212846F9
:102BF00000F078FB38B16148011968A2204600F066
:102C0000BFFA04440BE08021284600F06BFB30B192
:102C10005A4801195DA2204600F0B2FA044480210E
:102C2000284600F05FFBC0B15DA205210BA8169BF2
:102C3000FFF7B0F8514801190BAA204600F0A0FA9E
:102C400004444021284600F04DFB30B14B480119A7
:102C50004EA2204600F094FA04444021284600F099
:102C600041FB30B1454801194246204600F088FA40
:102C70000444424801194BA2204600F081FA044462
:102C8000C4F580613D4A1019069B179AFFF79CF81E
:102C9000064600200690A019B0F5806F03D8002EDC
:102CA00001DB344401E04FF48064201D5044B0F552
:102CB000806F04D94FF48064241FA4EB0A042E48CB
:102CC00090F8200058B100202C4908552A4920319D
:102CD0002A48FDF75DFA10B900F0A0F8B7E62648DB
:102CE00090F8F50030B1254801192FA2204600F0D8
:102CF00047FA0444214801192DA2204600F040FA69
:102D0000044421461D4800F0ABF800F087F800BFEE
:102D10009DE600006C000020523D00086C65766561
:102D20006C203C3D20454C4F475F4C564C5F564510
:102D300052424F53450000002825732920686173D3
:102D400020617373657274206661696C65642061CB
:102D5000742025733A256C642E00000055534552AB
:102D60005C756172745C656C6F672E6300000000B7
:102D7000656C6F67000000009C000020940100203B
:102D80001B5B0000540000203C00002020000000DD
:102D90005B0000005D200000280000003A000000F9
:102DA000256C6400290000001B5B306D00000000F2
:102DB0000D0A000010B5084890F8F20030B100F09C
:102DC0005DF80120044981F8F40003E00120024984
:102DD00081F8F30010BD00009C00002010B50446EF
:102DE0000D4880F8F24090F8F200A0B10A4890F83F
:102DF000F40030B9084890F8F30010B100F03EF844
:102E000009E0054890F8F40028B1034890F8F30071
:102E100008B900F034F810BD9C00002010B5084837
:102E200090F8F20030B100F02AF80020044981F84F
:102E3000F40003E00020024981F8F30010BD000017
:102E40009C00002000A070470000000000A0704718
:102E50000000000000A07047000000000020704744
:102E600070B504460D462246294602A0FEF782FFB1
:102E700070BD0000252E2A730000000070477047C7
:102E800010B586B00446052C1BDD1048006888B9D3
:102E90004FF4AB700E490FA215A3CDE90310CDE995
:102EA000013200900B461BA21FA10020FFF798FDE6
:102EB00000BFFEE74FF4AB72054906A0034B1B6849
:102EC00098471B48047006B010BD00006C0000203D
:102ED0000E3D00086C6576656C203C3D20454C4FEE
:102EE000475F4C564C5F564552424F5345000000D9
:102EF00028257329206861732061737365727420BB
:102F00006661696C65642061742025733A256C6480
:102F10002E000000555345525C756172745C656CFF
:102F20006F672E6300000000656C6F670000000093
:102F30009C00002010B5002400BF13E004EB4412F5
:102F40000A491144481C1F21FDF717F9002104EB21
:102F500044120648815404EB4412104480F82010B7
:102F6000601CC4B2052CE9DB10BD0000CD000020C0
:102F700030B585B004460D46052C1BDD10480068B1
:102F800088B94FF49E700F490FA216A3CDE9031024
:102F9000CDE9013200900B461BA220A10020FFF7D3
:102FA0001FFD00BFFEE74FF49E72064906A0044BCA
:102FB0001B6898471B4840F8245005B030BD0000FE
:102FC0006C000020F13C00086C6576656C203C3D8F
:102FD00020454C4F475F4C564C5F564552424F532D
:102FE00045000000282573292068617320617373F0
:102FF000657274206661696C656420617420257354
:103000003A256C642E000000555345525C75617280
:10301000745C656C6F672E6300000000656C6F6701
:10302000000000007401002010B586B00446002C9A
:103030001ED0012C1CD011480068002811D140F28C
:1030400013100F490FA219A3CDE90310CDE90132E6
:1030500000900B461EA223A10020FFF7C1FC00BF79
:10306000FEE740F21312064906A0044B1B6898477E
:103070001E4880F8F14006B010BD00006C00002032
:10308000D93C000828656E61626C6564203D3D2076
:1030900066616C736529207C7C2028656E61626C9A
:1030A0006564203D3D2074727565290028257329CB
:1030B0002068617320617373657274206661696C46
:1030C00065642061742025733A256C642E0000002D
:1030D000555345525C756172745C656C6F672E6305
:1030E00000000000656C6F67000000009C0000207D
:1030F000014981F8F50070479C0000200EB50B488F
:1031000090F8F00000B90EBD0120FFF78DFF08A078
:1031100009A1F422124BCDE90021029011A216A1BF
:103120000320FFF75DFC00BFEDE700009C000020DE
:10313000322E322E39390000456173794C6F676742
:1031400065722056257320697320696E6974696100
:103150006C697A6520737563636573732E00000074
:10316000C43C0008555345525C756172745C656CD3
:103170006F672E6300000000656C6F670000000041
:10318000F0B585B006460D4614462746002D19D1E8
:103190002448006880B92C20234924A224A3CDE927
:1031A0000310CDE9013200900B462AA22FA1002086
:1031B000FFF716FC00BFFEE72C221B491BA0194B92
:1031C0001B689847002C19D11648006880B92D203B
:1031D000154928A216A3CDE90310CDE901320090CC
:1031E0000B461CA221A10020FFF7FAFB00BFFEE75F
:1031F0002D220D491FA00B4B1B6898470AE0304653
:10320000761CB0F5806F04D214F8010B05F8010BA1
:1032100000E002E020780028F1D100BFE01B05B0FB
:10322000F0BD00006C0000208A3D0008647374004B
:103230002825732920686173206173736572742077
:103240006661696C65642061742025733A256C643D
:103250002E000000555345525C756172745C656CBC
:103260006F675F7574696C732E630000656C6F67C0
:10327000000000007372630010B502460868002366
:1032800006E0047B944200D105E000695C1CE3B2D7
:103290000C7A9C42F5DC00BF10BD000000BF054A5F
:1032A000128802F04002002AF9D0C2B2014B1B1D65
:1032B0001A807047003801400021027B074B43F819
:1032C0002210FF21027B064B99540021417341607B
:1032D0008160016041610161704700009C0700202E
:1032E000EC07002030B585B004460D46052C1BDDEB
:1032F0001248006888B940F2D920114911A218A3D8
:10330000CDE90310CDE9013200900B461DA222A1A8
:103310000020FFF765FB00BFFEE740F2D922084915
:1033200008A0064B1B6898471D4850F82400284009
:1033300010B1012005B030BD0020FBE76C0000207B
:103340005E3D00086C6576656C203C3D20454C4F29
:10335000475F4C564C5F564552424F534500000064
:103360002825732920686173206173736572742046
:103370006661696C65642061742025733A256C640C
:103380002E000000555345525C756172745C656C8B
:103390006F672E6300000000656C6F67000000001F
:1033A000740100200B49C978491CC9B2094AD1707F
:1033B00081420EDD0121D17011468978491CC9B2C4
:1033C00091700C2905DD0121917011460988491C75
:1033D00011807047140000200021416001600172DB
:1033E00070472DE9F04107460C46207A20B9214666
:1033F000384600F02EF81AE02568002608E0386804
:103400002968884201D92D6900E004E0701CC6B229
:10341000207AB042F3DC00BF25B92146384600F0DF
:1034200018F804E022462946384600F002F8BDE8C4
:10343000F08101614B691BB910600023436103E017
:103440004B6943614B6918614861137A5B1C1372C5
:1034500070474A680B7A2BB9086048600023036103
:10346000436104E0106142610023036148600B7A0C
:103470005B1C0B7270470146CA1701EB92729210E7
:10348000A1EB820272B9642291FBF2F302FB1312E8
:1034900042B14FF4C87291FBF2F302FB13120AB966
:1034A000012070470020FCE786B000F06DFA4FF471
:1034B000A060FEF72FF84FF4E130FEF79FFBFDF719
:1034C00029FB00F073FB00F0F7F9FFF7FBF82DA0E4
:1034D000CA21334B33A2CDE9001035A10020FFF7FC
:1034E0007FFA35A0CB212E4B2EA2CDE9001030A1C2
:1034F0000120FFF775FA37A0CC21294B29A2CDE98D
:1035000000102BA10220FFF76BFA39A0CD21244B2C
:1035100024A2CDE9001026A10320FFF761FA3BA009
:10352000CE211F4B1FA2CDE9001021A10420FFF7DF
:1035300057FA3DA0CF211A4B1AA2CDE900101CA1C9
:103540000520FFF74DFA3F4880793E4949793D4AC9
:1035500012793DA3CDE90132CDE90310D120104B02
:1035600010A213A100900320FFF73AFA40494FF44C
:103570007A7000F0B1FAFDF7BBFF01E000F072FADB
:10358000FCE70000546869732069732061737365F8
:103590007274206C6F67206F7574707574210000F1
:1035A000BF3C0008555345525C6D61696E2E630047
:1035B0004E4F5F544147000054686973206973207F
:1035C0006572726F72206C6F67206F75747075749E
:1035D0002100000054686973206973207761726E5E
:1035E000696E67206C6F67206F7574707574210049
:1035F0005468697320697320696E666F206C6F6709
:10360000206F757470757421000000005468697330
:10361000206973206465627567206C6F67206F7521
:1036200074707574210000005468697320697320F8
:10363000766572626F7365206C6F67206F7574704A
:1036400075742100140000206265666F7265207237
:10365000756E6C617465723D3D3D3E5B2530326434
:103660003A253032643A253032645D0D0A0000009C
:10367000AD370008002115E001EB41000B4A02EBD9
:10368000C000407B60B9012001EB4102074B03EB16
:10369000C202507301EB41001A4602EBC0007047B2
:1036A000481CC1B21429E7DB0020F8E7940500208C
:1036B0002DE9F04105460E461746FFF7DBFF0446AD
:1036C0006560A760002020611548006828442060DC
:1036D0000020217B134A50541EB1207B124941F82F
:1036E00020600F492068096888420CD20F48007E8C
:1036F00080F0010000EB40000C4A02EB8001204604
:10370000FFF76FFE09E00948007E00EB4000074A22
:1037100002EB80012046FFF764FE2046BDE8F08101
:1037200090000020EC0700209C0700207407002078
:1037300070B504460748007E00EB4000054901EBE8
:1037400080052946204600F009F803492046FFF786
:1037500080FE70BD74070020900700200A68824236
:103760000AD102690A600A6812B900224A600EE0B2
:10377000002203695A610AE0D0E904231A61026950
:1037800012B942694A6002E0D0E904325A610A7A09
:10379000521E0A727047000010B5034890F90000ED
:1037A00000F02AF910BD00001C00002000B585B013
:1037B0001E4880791D4949791C4A12791CA3CDE91C
:1037C0000132CDE903105220234B24A226A1009000
:1037D0000320FFF705F91548807914494979134A00
:1037E000127923A3CDE90132CDE9031053201A4BFE
:1037F0001AA21DA100900320FFF7F2F84FF4FA601F
:1038000000F0AEF8094882794179007921A3CDE929
:103810000130CDE9031255200F4B10A212A10090E8
:103820000320FFF7DDF805B000BD00001400002004
:1038300061667465722072756E6C617465723D3D6F
:103840003D3E5B253032643A253032643A253032D1
:10385000645D0D0A00000000B13C0008555345525C
:103860005C6D61696E2E63004E4F5F5441470000EE
:103870006265666F72652064656C61793D3D3D3EB1
:103880005B253032643A253032643A253032645D4B
:103890000D0A000061667465722064656C61793D93
:1038A0003D3D3E5B253032643A253032643A253066
:1038B00032645D0D0A00000010B51548FCF790FC5D
:1038C000144908801248401DFCF78AFC1149887091
:1038D0000F480830FCF784FC0E49C8700C480B30C8
:1038E000FCF77EFC0B49087109480E30FCF778FCA8
:1038F0000849487106481130FCF772FC0549887187
:103900004FF6FF7204494FF47A7000F099F810BD39
:10391000903C0008140000201D39000810B50F4825
:103920008079401CC0B20D4988713C2815D1002017
:10393000887108464079401CC0B248713C280CD1BF
:103940000020487108460079401CC0B20871182850
:1039500003D100200871FEF717FF10BD14000020EE
:1039600070B5044672B6012200212046FFF7A0FE82
:10397000054662B600BF287B0249085C0028FAD0E1
:1039800070BD0000EC07002070B51548FFF724FD5E
:103990001448FFF721FD13480C30FFF71DFD0020F0
:1039A0001049087610490860002514E005EB450031
:1039B0000E4901EBC0040020607360602060A060CD
:1039C0002061606125730A4941F82500FF200949FB
:1039D0004855681CC5B2142DE8DBFEF7C7F870BD6A
:1039E000900700207407002090000020940500201C
:1039F0009C070020EC0700202DE9F041074672B635
:103A0000002414E004EB44000C4901EB800631462D
:103A10003846FFF731FC05463DB131462846FFF7F1
:103A20009DFE2846FFF748FC03E0601CC4B2022C50
:103A3000E8DB00BF62B6BDE8F0810000740700203B
:103A40002DE9F04104460D46164672B63246294627
:103A50002046FFF72DFE074662B6387B40B2BDE830
:103A6000F081000070B5002416E01848005DFF28C2
:103A700010D01648005D00280CDD154850F82400D1
:103A800018B1134951F8240080471048005D401ECA
:103A90000E490855601CC4B2142CE6DB0D48007AB0
:103AA000002812DD0B4805680CE0287B0749085CFC
:103AB00038B908492846FFF751FE2846FFF7FCFBB6
:103AC00002E02D69002DF0D100BF70BDEC07002091
:103AD0009C0700209007002070B504460D4672B682
:103AE000012229462046FFF7E3FD064662B6307BF9
:103AF00040B270BD70B52A480068401C284909686A
:103B0000884205D22748007E80F0010025490876CA
:103B100023480068401C224908602248007E00EBD0
:103B20004000204901EB80052C6831E0207B1E49D4
:103B3000085C401C217B1C4A50544FF6FF71A06862
:103B4000884209D0A068401EA06028B90220607396
:103B50002046FFF7EDFD1AE0114960680968084446
:103B6000206029462046FFF7F9FD0D4920680968C5
:103B7000884208D20B48007E80F0010000EB400034
:103B8000084901EB800529462046FFF72AFC2469F5
:103B900024B10349206809688842C7D970BD000074
:103BA0009000002074070020EC07002008B50020DA
:103BB000009001212020FDF775FE0420ADF80000E3
:103BC00003208DF8020010208DF803006946094893
:103BD000FCF7C1FF4FF6FF7207494FF4FA70FFF789
:103BE0002FFF06490870064944F62060FFF774FF6E
:103BF00008BD000000140140053C00081C00002026
:103C0000993700081CB51448007870B9042113488E
:103C1000FDF735F812A03221144B15A2CDE90010A2
:103C200016A10320FEF7DCFE0DE004210B48FDF792
:103C300028F814A037210D4B0DA2CDE900100FA1DB
:103C40000320FEF7CDFE0448007808B9012000E00B
:103C50000020014908701CBD1E0000200014014016
:103C60006C6564206F66660D0A000000A43C0008C5
:103C7000555345525C6D61696E2E63004E4F5F5423
:103C8000414700006C6564206F6E0D0A0000000063
:103C9000323032333A30343A30362331373A3136F3
:103CA0003A3030007379735F6C6564666C61736879
:103CB0000072756E6C617465725F74657374006D0B
:103CC00061696E00656C6F675F7374617274006523
:103CD0006C6F675F73746F7000656C6F675F73659F
:103CE000745F6F75747075745F656E61626C656426
:103CF00000656C6F675F7365745F666D7400656CFB
:103D00006F675F7365745F66696C74657200656C7C
:103D10006F675F7365745F66696C7465725F6C76FC
:103D20006C00656C6F675F7365745F66696C746562
:103D3000725F7461675F6C766C00656C6F675F675C
:103D400065745F66696C7465725F7461675F6C76D9
:103D50006C00656C6F675F6F757470757400676574
:103D6000745F666D745F656E61626C656400656C3E
:103D70006F675F66696E645F6C766C00656C6F6719
:103D80005F66696E645F74616700656C6F675F731F
:103D9000747263707900656C6F675F6370796C6EC5
:103DA00000656C6F675F6D656D6370790061707041
:103DB0005F4B65795F496E6974004B657953636148
:103DC0006E00004040404040404040404141414141
:103DD00041404040404040404040404040404040E2
:103DE00040404005020202020202020202020202F6
:103DF0000202022020202020202020202002020277
:103E000002020202909090909090101010101010EA
:103E100010101010101010101010101010100202BE
:103E2000020202028888888888880808080808082A
:103E3000080808080808080808080808080802020E
:103E400002024000C33D0008412F0000442F000043
:103E5000452F0000492F0000562F0000572F00006B
:103E600033323B32326D000033333B32326D00006F
:103E700033343B32326D000033353B32326D00005B
:103E800033363B32326D000033313B356D0000007C
:103E90000A2050726F647563745F4E756D6265724F
:103EA000203D25642C200909090909094D616A6F23
:103EB000725F56657273696F6E203D25642C200910
:103EC00009090909094D696E6F725F566572736958
:103ED0006F6E203D25640000F83E000800000020C1
:103EE0009C000000041E0008943F00089C00002075
:103EF000640B0000141E000800000000010203040F
:103F00000102030406070809020406080000000075
:103F1000000000000000000000A24A0400000000B1
:103F20000000000001020304060708090000000069
:103F300000000000483E0008503E00085C3E0008BB
:103F4000543E00084C3E0008583E0008783E0008E9
:103F5000883E0008683E0008803E0008603E000879
:103F6000703E00080000000000000000000000009B
:103F70000000000000000000000000000000000041
:103F80000000000000000000000000000000000031
:043F9000000000002D
:0400000508000131BD
:00000001FF
