:020000040800F2
:1000000098160020050100080D0A0008050A0008DE
:10001000090A00087F0800083F11000800000000DE
:10002000000000000000000000000000650C000857
:100030008308000800000000270B0008790D000865
:100040001F0100081F0100081F0100081F01000810
:100050001F0100081F0100081F0100081F01000800
:100060001F0100081F0100081F0100081F010008F0
:100070001F0100081F0100081F0100081F010008E0
:100080001F0100081F0100081F0100081F010008D0
:100090001F0100081F0100081F0100081F010008C0
:1000A0001F0100081F0100081F0100081F010008B0
:1000B0003D0E00081F0100081F0100081F01000875
:1000C0001F0100081F0100081F0100081F01000890
:1000D0001F0100081F0100081F010008850F00080C
:1000E0001F0100081F0100081F010008DFF810D0E1
:1000F00000F098FA00480047852E0008AFF3008012
:10010000981600200648804706480047FEE7FEE7AD
:10011000FEE7FEE7FEE7FEE7FEE7FEE7FEE7FEE7B7
:10012000910D0008ED000008D2B201E000F8012BAB
:10013000491EFBD270470022F6E710B513460A4667
:1001400004461946FFF7F0FF204610BD30B50546BE
:100150002A460B4612F8010B13F8014B08B1A042D6
:10016000F8D01CB1002802D06D1CF1E7284630BD44
:10017000421C10F8011B0029FBD1801A704730B5D2
:1001800005460020034600E05B1C934205D2EC5C70
:10019000C85C201A01D1002CF6D130BD70B50646DE
:1001A00001F014F8046805460A220021304600F0E8
:1001B00049F82C6070BD30B50B4601460020202266
:1001C000012409E021FA02F59D4205D303FA02F564
:1001D000491B04FA02F52844151EA2F10102F1DCC4
:1001E00030BD2DE9F05F0546002092469B468846CB
:1001F0000646814640241BE02846414647462246A3
:1002000000F031FA53465A46C01A914110D31146B4
:100210001846224600F018FA2D1A67EB01084F46DF
:1002200022460120002100F00FFA17EB00094E4191
:10023000201EA4F10104DFDC484631462A4643462D
:10024000BDE8F09F2DE9F04791460F4680460446F1
:10025000002614F8015B2DB100F028FA0068405D1B
:10026000C007F6D12B2D02D02D2D18D0641E4A4682
:100270003946204600F01EFA27B13968A14201D163
:10028000C7F8008071054FF002040BD540420028EA
:1002900003DD00F09BFF0460A007BDE8F08746F493
:1002A0008066E4E70028F8DA00F090FF04606FF061
:1002B0000040F2E72DE9FE4F804681EA0300C00FBF
:1002C0000C46009021F0004123F00045B8EB0200FD
:1002D000A94105D24046214690461C460B4602469F
:1002E00023F00040104347D0270DC7F30A00C3F3A3
:1002F0000A510290401A019040286BDAC3F31300B0
:1003000040F4801B0098924620B10023D2EB030AF0
:1003100063EB0B0B01985946C0F14002504600F0C8
:1003200093F906460D4650465946019A00F0ABF93E
:1003300010EB08006141002487EA115284EAE77358
:100340001A4340D0009A62B3019A012A4FEA075239
:1003500015DC001B61EB02014FF0004202EA07527C
:10036000CDE90042001C41F5801132462B4600F0D9
:10037000FFF903B0BDE8F08F40462146F9E7001BC6
:1003800061EB0201001C41F5801300185B4120184D
:10039000A2F5001747EB030140EAD570B6196D418D
:1003A00011E06D084FEA360645EAC0754FEA07527C
:1003B000001B61EB0201001C41F5801149084FEA66
:1003C00030000019514132462B4603B0BDE8F04FD2
:1003D00000F0BFB90098012240000023D0EB0202D8
:1003E00063EBE073009821464FEAE074B8EB00003D
:1003F00061EB0401E9E783F000435BE781F0004132
:1004000058E72DE9FE4F81EA030404F0004421F08F
:10041000004100944FF0000B23F0004350EA010428
:100420005ED052EA03045BD0C3F30A54C1F30A5509
:100430002C44A4F2F3340194A0FB0254C1F3130141
:1004400041F48011C3F3130343F4801301FB02440E
:1004500000FB034E840A970A44EA815447EA835713
:10046000A4FB076802958D0A05FB07854FEA932CCC
:1004700004FB0C542705029D4FEA065847EA16373D
:10048000B5EB08056EEB070C870E920E47EA811755
:1004900042EA8312A7FB0201B6EB0B0164EB0004F6
:1004A0002B0D43EA0C335E1844EB1C50DA465146E0
:1004B000E7FB0201C5F313044FEA0B3343EA14537D
:1004C0004FEA0432019C43EA0603A4F10C040294AF
:1004D000009CCDE900B400F04BF903B0BDE8F08F0B
:1004E00000200146F9E72DE9F04D81EA030404F00C
:1004F000004B21F0004514464FF0000A23F0004164
:1005000050EA050220D054EA01021DD0C5F30A5773
:100510000246C5F31303C1F31300C1F30A5640F4B6
:10052000801543F48013A7EB0608101BD64608F28B
:10053000FD3873EB050002D308F1010801E09218C1
:100540005B41B8F1000F03DA00200146BDE8F08DF1
:1005500000204FF48011064684460EE0171B73EB13
:10056000050705D3121B63EB050306434CEA010C98
:1005700049084FEA300092185B4150EA0107EDD17B
:1005800052EA030012D082EA040083EA050108431C
:1005900005D0101BAB4106D20122002306E0002249
:1005A0004FF0004302E06FF0010253101AEB060017
:1005B0004CEB085110EB0A0041EB0B01BDE8F04D8C
:1005C00000F0C7B8C1F30A52C1F3130140F2FF3380
:1005D00041F480119A4202DA00200146704740F24D
:1005E00033439A42A2F2334202DC524200F03BB85B
:1005F00000F02AB830B5041E71F1000404DB4FF09E
:100600000044404264EB0101141E73F1000405DB59
:100610001C464FF00043524263EB0403994208BF6B
:10062000904230BD064C074D06E0E06840F0010303
:1006300094E8070098471034AC42F6D3FFF75AFD10
:10064000F03D0008103E0008202A04DB203A00FAA2
:1006500002F1002070479140C2F1200320FA03F319
:10066000194390407047202A04DB203A21FA02F017
:100670000021704721FA02F3D040C2F120029140DC
:10068000084319467047202A06DBCB17203A41FA67
:1006900002F043EAE07306E041FA02F3D040C2F10F
:1006A00020029140084319467047000000487047F7
:1006B000A43D00082DE9F05F82460078002715462A
:1006C0008B460AF10104B946302801D09DB113E0F0
:1006D00014F8010B0127782803D0582801D045B120
:1006E0000AE00DB1102D07D10027102514F8010BD9
:1006F00002E0082500E00A250026B0460EE005FBD2
:10070000080005FB06F1012701EB10461FFA80F8EF
:10071000B6F5803F00D3B94614F8010B294600F026
:1007200075F80028EBDABBF1000F05D00FB1641E9D
:1007300000E05446CBF80040B9F1000F06D000F0BD
:1007400045FD02210160C81EBDE8F09F48EA064051
:10075000FAE710B5141E73F1000408DA401C41F1E9
:10076000000192185B411A4301D120F0010010BD35
:100770002DE9F04D92469B4611B1B1FA81F202E0AB
:10078000B0FA80F220329046FFF75EFF04460F4633
:1007900040EA0A0041EA0B0153465A46084313D087
:1007A000114653EA010019D0C8F140025046FFF744
:1007B0005AFF05460E46504659464246FFF744FF4B
:1007C000084305D0012004E020463946BDE8F08DFD
:1007D0000020054346EAE0762C4337430A98630538
:1007E000E40AA0EB08000022FD0A44EA47540A305C
:1007F00002D500200146E9E7010510196941DDE94C
:10080000084500196941BDE8F04DA2E73A2800D239
:10081000303820F02002412A01D3A2F1370088426B
:1008200001D34FF0FF30704770B58C1810F8015BA2
:1008300015F0070301D110F8013B2A1106D110F879
:10084000012B03E010F8016B01F8016B5B1EF9D17D
:100850002B0705D40023521E0DD401F8013BFAE703
:1008600010F8013BCB1A921C03E013F8015B01F86E
:10087000015B521EF9D5A142D8D3002070BD00BF44
:10088000FEE7704710B501F0EFF9012001F09CFD83
:10089000FF21002001F0D8FC0321012001F0D4FC4D
:1008A0000321022001F0D0FC0321084601F0CCFC1A
:1008B000E321042001F0C8FCFF21052001F0C4FC65
:1008C00001F088FD10BD2DE9F0410246002500260B
:1008D000002000230024002791F803C00CF00F052E
:1008E00091F803C00CF0100CBCF1000F03D091F88C
:1008F00002C04CEA050591F800C0BCF1000F31D0F0
:10090000146800202BE04FF0010C0CFA00F3B1F852
:1009100000C00CEA03069E4220D183004FF00F0C6A
:100920000CFA03F7BC4305FA03FC4CEA040491F803
:1009300003C0BCF1280F06D14FF0010C0CFA00FCEB
:10094000C2F814C00AE091F803C0BCF1480F05D109
:100950004FF0010C0CFA00FCC2F810C0401C082833
:10096000D1D31460B1F800C0BCF1FF0F34DD54687E
:1009700000202EE000F1080C4FF0010808FA0CF3FB
:10098000B1F800C00CEA03069E4221D183004FF06B
:100990000F0C0CFA03F7BC4305FA03FC4CEA040401
:1009A00091F803C0BCF1280F05D100F1080C08FA3A
:1009B0000CF8C2F8148091F803C0BCF1480F07D1BD
:1009C00000F1080C4FF0010808FA0CF8C2F810808A
:1009D000401C0828CED35460BDE8F08102460020B8
:1009E00093680B400BB1012000E00020704741618B
:1009F00070470161704700000148006870470000BF
:100A0000A400002000BFFEE700BFFEE77047000023
:100A100002490143024A1160704700000000FA05D4
:100A20000CED00E010B5044614B94FF0FF3010BDD6
:100A30002D480460AE2002F0EFFC202002F0ECFC18
:100A4000B02002F0E9FCC82002F0E6FC002002F031
:100A5000E3FC102002F0E0FC402002F0DDFC8120ED
:100A600002F0DAFCFF2002F0D7FCA12002F0D4FC57
:100A7000A62002F0D1FCA82002F0CEFC3F2002F01C
:100A8000CBFCA42002F0C8FCD32002F0C5FC00205F
:100A900002F0C2FCD52002F0BFFCF02002F0BCFC4A
:100AA000D92002F0B9FC222002F0B6FCDA2002F0D4
:100AB000B3FC122002F0B0FCDB2002F0ADFC2020E1
:100AC00002F0AAFC8D2002F0A7FC142002F0A4FC86
:100AD000AF2002F0A1FCFF2000F008F8002000F099
:100AE00005F80020A3E700009C01002070B5064631
:100AF000002415E004F1B001C8B202F08DFC002022
:100B000002F08AFC102002F087FC002504E0304649
:100B100002F089FC681CC5B2802DF8DB601CC4B2F1
:100B2000082CE7DB70BD704729B1064A9269024381
:100B3000044B9A6104E0034A92698243014B9A6133
:100B4000704700000010024030B500210022002450
:100B500000232D4D6D6805F00C0121B1042905D04D
:100B6000082923D105E0294D056022E0274D0560C5
:100B70001FE0254D6D6805F47012234D6D6805F476
:100B80008034022505EB92421CB9214D5543056086
:100B90000BE01D4D6D6805F400351DB11C4D55432E
:100BA000056002E0194D5543056002E0174D0560F0
:100BB00000BF00BF144D6D6805F0F0010909154D27
:100BC0006B5C0568DD4045600F4D6D6805F4E061C4
:100BD000090A104D6B5C4568DD4085600A4D6D6803
:100BE00005F46051C90A0B4D6B5C4568DD40C5607A
:100BF000054D6D6805F44041890B074D6B5CC56878
:100C0000B5FBF3F5056130BD0010024000127A001B
:100C100000093D00000000201000002001460020D7
:100C2000034A506820F0F00008435060704700000D
:100C30000010024001460020034A506820F4E060A2
:100C40000843506070470000001002400146002039
:100C5000034A506820F4605040EAC1005060704779
:100C600000100240704710B500F002F810BD0000FF
:100C70000CB50020019000903348006840F48030AB
:100C80003149086000BF3048006800F4003000902F
:100C90000198401C0190009818B90198B0F5A06F18
:100CA000F1D12948006800F4003010B10120009013
:100CB00001E0002000900098012843D123480068FB
:100CC00040F01000214908600846006820F0030049
:100CD00008600846006840F0020008601A48406852
:100CE000194948600846406848600846406840F432
:100CF000806048600846406820F47C1048600846E0
:100D0000406840F4E81048600846006840F0807091
:100D1000086000BF0C48006800F000700028F9D09F
:100D20000948406820F003000749486008464068C9
:100D300040F00200486000BF0348406800F00C002B
:100D40000828F9D10CBD000000100240002002402C
:100D5000042808D14FF0E021096941F004014FF067
:100D6000E022116107E04FF0E021096921F0040160
:100D70004FF0E0221161704710B504480068401C34
:100D80000249086002F020FC10BD0000A400002011
:100D900010B51348006840F001001149086008468A
:100DA0004068104908400E494860084600680E49EE
:100DB00008400B4908600846006820F4802008605D
:100DC0000846406820F4FE0048604FF41F00886029
:100DD000FFF749FF4FF000600449086010BD0000B4
:100DE000001002400000FFF8FFFFF6FE08ED00E0F3
:100DF00070B500244FF47A750420FFF7A9FF002096
:100E0000FFF718FF0020FFF709FF0020FFF71EFF84
:100E100009480068B0FBF5F44FF0E020006940F0AD
:100E200002004FF0E021086108464461006940F08B
:100E30000100086170BD0000380000201CB50121D0
:100E4000880700F04AF8C0B10CA02E21114B12A265
:100E5000CDE9001016A1032000F02EFF16480088EF
:100E600040F40040144908800121880700F026F86A
:100E700000214FF0804000F024F81CBD74686973B5
:100E8000206973204B65795363616E2074657374B8
:100E900000000000113D0008555345525C54494D77
:100EA0005C6170705F74696D65722E630000000094
:100EB0004E4F5F5441470000A0090020CA43028200
:100EC000704721B1028842F00102028004E00288EA
:100ED0004FF6FE731A400280704730B5024600207C
:100EE00000230024158A05EA0103958905EA010417
:100EF00013B10CB1012000E0002030BD81847047A7
:100F000010B586B004460020059001900290039031
:100F10000490012144F20400FFF706FE4FF4007034
:100F2000ADF8140003208DF8160018208DF8170076
:100F300005A91248FFF7C7FC4FF48060ADF8140014
:100F400004208DF8170005A90C48FFF7BCFC01949C
:100F50000020ADF80800ADF80A00ADF80C00ADF8BF
:100F600010000C20ADF80E0001A9054800F076F83D
:100F70000121034800F03CF806B010BD0008014014
:100F80000038014010B540F22551164800F03CF8F9
:100F9000F8B1144800F0CEF8C4B21348008800F449
:100FA0000040B0B910480088802813DA00214FF0C3
:100FB0008040FFF7A3FF0C48008818B9012188077B
:100FC000FFF77FFF08490888411C074A118007493D
:100FD0000C5405E00448008840F4004002490880B1
:100FE00010BD000000480040A00900205011002062
:100FF00021B1828942F40052828104E082894DF657
:10100000FF731A408281704770B5024600240023A6
:101010000025002040F66A16B14200D100BFC1F39E
:10102000421501F01F03012606FA03F3012D02D138
:101030009689334006E0022D02D1168A334001E042
:10104000968A33400C12012606FA04F416883440BE
:1010500013B10CB1012000E0002070BD2DE9F04774
:1010600086B005460E460024A24600BFA1460027D2
:10107000B08900B100BF2F462C8A4CF6FF700440A7
:10108000F08804432C82AC894EF6F3100440B088FB
:1010900031890843718908430443AC81AC8A4FF617
:1010A000FF400440B0890443AC8201A8FFF74CFD27
:1010B0001F48874202D1DDF810A001E0DDF80CA046
:1010C000A88900F4004040B10AEBCA0000EB0A1006
:1010D00031684900B0FBF1F807E00AEBCA0000EB09
:1010E0000A1031688900B0FBF1F86420B8FBF0F019
:1010F00004012009642101FB1089A88900F4004043
:1011000040B1322000EBC900B0FBF1F000F0070065
:10111000044308E0322000EB09106421B0FBF1F039
:1011200000F00F0004432C8106B0BDE8F0870000FA
:101130000038014001468888C0F30800704700BFAE
:10114000FEE700000FB4054B10B503A9044A02984E
:1011500000F012F910BC5DF814FB000075250008C2
:101160004C0000200FB47CB50C0009AD01D0611E0D
:1011700000E00021CDE90001064B6A4629460898A7
:1011800000F0FAF8002C02D0009A002111707CBC0B
:101190005DF814FB7F1A00087CB50C001D4616464E
:1011A000014601D0601E00E00020CDE90010064B92
:1011B0006A462946304600F0DFF8002C02D0009A3B
:1011C000002111707CBD00007F1A000800487047A4
:1011D000A409002002E008C8121F08C1002AFAD1A1
:1011E00070477047002001E001C1121F002AFBD1A7
:1011F000704700002DE9FF5F82B00021DDE9043077
:10120000020DDDF840B0034318D044F61050A2F2AE
:10121000FF3242431514119801281FD0A5EB0B0093
:10122000401C5FEA000A4FF000064E4FDFF838918D
:10123000B046504615D5CAF1000413E011980124B8
:101240004AA3012801D16FEA0B010298119AC0E963
:101250000031C0E9024206B0BDE8F09FCBF10000CA
:10126000DFE704460021404A491842EB0450CDE92B
:10127000001012E0E00707D032463B4640464946A0
:10128000FFF7BFF88046894632463B46104619466E
:10129000FFF7B7F806460F466410002CEAD1DDE9E7
:1012A0000401DDE90023BAF1000F06DAFFF7A9F81F
:1012B00042464B46FFF7A5F805E0FFF714F9424612
:1012C0004B46FFF710F904460E460022284BFFF765
:1012D00091F903D84FF0FF30014607E00022254B7B
:1012E00020463146FEF7E6FFFFF76CF9102409E0CF
:1012F000002C0ADB0A220023FEF773FF039B303227
:101300001A55641E50EA0102F2D1641C039AC4F11A
:1013100011031444119A012A03D0012208430DD16C
:101320000AE0084304D000204FF0110B119072E73F
:10133000A3EB0B056D1E0DE05B4504DD4FF00002D5
:1013400005F1010504E003DA4FF00002A5F1010503
:10135000002AECD002981199C0E90231C0E9004599
:1013600079E70000000014400000F03F300000006A
:101370000000F0430000E03F2DE9FF4F95B09A4692
:10138000884606460025EEE1252877D10024274629
:10139000F94A0121039400E0044316F8013F203B81
:1013A00001FA03F01042F7D130782A2811D06FF0FB
:1013B0002F033078A0F13002092A16D8039A44F09E
:1013C000020402EB820203EB42021044761C0390FB
:1013D000EFE758F8042B0392002A03DA504244F452
:1013E0000054039044F00204761C30782E2816D165
:1013F00016F8010F44F004042A280DD06FF02F02D4
:101400003078A0F13003092B09D807EB870302EBF2
:101410004303C718761CF3E758F8047B761C307832
:101420006C280FD006DC4C2817D068280DD06A280D
:1014300014D104E0742810D07A280FD10DE044F4C0
:1014400000140AE044F4801401E044F4401472787B
:10145000824202D104F58014761C761C307866280E
:101460000BD013DC582877D009DC002875D045282C
:10147000F6D04628F4D047281AD193E118E0632823
:1014800035D0642879D0652812D18BE1702873D0CB
:1014900008DC6728F1D069286FD06E280DD06F283E
:1014A00006D1ACE073282CD0752874D0782853D09E
:1014B0005246179990476D1C54E1C4F3025002281C
:1014C00009D003280DD0D8F8001004280DD00D60E5
:1014D00008F1040846E1D8F80010EA17C1E9005203
:1014E000F6E7D8F800100D80F2E70D70F0E718F875
:1014F000041B8DF8001000208DF80100EB46012040
:1015000003E058F804BB4FF0FF3061074FF00001D3
:1015100002D40DE009F101018946B9420FDA814593
:10152000F8DB1BF809100029F4D108E009F10101EA
:1015300089468142FADB1BF809100029F6D103988D
:101540005346A0EB090721463846179A00F080FA67
:10155000284400EB090507E044E008E10DE01BF832
:10156000010B524617999047B9F10109F7D253463A
:1015700021463846179AF2E039E00A21C4F30252B4
:101580004FF0000B0091022A06D058F8040BC11747
:10159000032A09D00AE023E008F1070020F007023F
:1015A000F2E80201904605E000B2C117042A01D119
:1015B00040B2C117002906DA0A460021404261EB19
:1015C00002012D2202E0220504D52B228DF80420F1
:1015D000012203E0E20701D02022F7E7914657E01D
:1015E0000A2100E010214FF0000B00910BE01021C8
:1015F0004FF0000B44F004040827009103E008209A
:101600004FF0000B0090C4F30252022A05D058F8A4
:10161000040B0021032A08D008E008F1070020F09D
:101620000702F2E80201904603E080B2042A00D1EA
:10163000C0B24FF0000922072AD53278702A07D0AD
:10164000DDF800C08CF0100C5CEA0B0C05D00EE04D
:1016500040228DF80420012208E050EA010306D060
:1016600030238DF804308DF8052002229146009B2E
:1016700083F0080353EA0B030AD150EA010201D1B7
:10168000620705D530228DF804204FF001097F1E36
:101690003278582A04D039A20C920CAA02920BE09C
:1016A0003BA2F9E75B46009AFEF79BFD0C9B9B5C17
:1016B000029A521E0292137050EA0102F2D102986D
:1016C00004A9081A00F1200B600702D524F4803425
:1016D00000E001275F4502DDA7EB0B0000E00020E2
:1016E00000EB0B01009003984944401A0390E0037B
:1016F00006D453462146179A039800F0A9F90544E9
:10170000002706E001A85246C05D179990476D1C5E
:101710007F1C4F45F6DBE0030CD553462146179A54
:10172000039800F095F9054404E0302052461799DB
:1017300090476D1C0099481E00900029F5DC08E0D8
:101740000298029952460078491C029117999047D5
:101750006D1CBBF10001ABF1010BF1DC5BE100F0B2
:1017600065F90544761C307800287FF40DAE19B079
:101770002846BDE8F08F00000928010030313233DF
:1017800034353637383961626364656600000000BD
:1017900030313233343536373839414243444546A7
:1017A00000000000600700D4062708F1070020F0C1
:1017B0000700F0E80223804603F0004C5FEA0C00CB
:1017C00001D097A009E0200501D596A005E0E0072B
:1017D00001D095A001E0AFF24C001390307823F0D7
:1017E000004365280CD006DC452809D046281DD0CA
:1017F00047287FD13BE0662818D067287AD136E0A9
:101800000021112F01DB112000E0781CCDE900013F
:1018100004A90CA8FFF7EEFCDDE90D010C9A4FF0CE
:10182000000B07F10109109200914EE04FF00040CB
:101830000097CDE9011004A90CA8FFF7DBFCDDE956
:101840000D020C9B0F994FF0000B914610930092E4
:1018500011B9791C00EB0109B7EB090003D4C0F101
:10186000FF3B07F10109A9EB0700019042E0012FBE
:1018700000DA01270021112F01DD112000E0384698
:10188000CDE9000104A90CA8FFF7B4FCDDE90D01C6
:101890000C9A00914FF0000BB946109221070FD41B
:1018A000009A4A4503DA914601E0A9F10109B9F12C
:1018B000010F05DD109AA9F10101515C3029F4D026
:1018C000B84202DA10F1040F03DA0121CDE9011068
:1018D00010E0002803DC8344A9EB000102E0411C76
:1018E000494500DD8946A0EB0B00401C01904FF0FC
:1018F00000400290200705D40198484502DB4FF0D4
:10190000FF30019000208DF84B0002980DF14B073D
:10191000B0F1004F25D002200C902B200D900298A2
:1019200000280CDA404202902D200D9007E00A2199
:101930000298FEF740FC3031029007F8011D0C9927
:10194000481E0C900029F2DC02980028EFD1791E85
:101950000D980870307800F0200040F0450007F83E
:10196000020D11A8C01BC01D02901398007800B191
:10197000012000EB0901019801EBE071029801449C
:101980000398401A401E0390E00306D453462146B4
:10199000179A039800F05CF805441398007818B182
:1019A0005246179990476D1CE00323D553462146B4
:1019B000179A039800F04CF805441BE0BBF1000FA8
:1019C00007DB0098584504DD1098179910F80B00B4
:1019D00001E0179930205246904701980BF1010B16
:1019E000401E05F10105019004D12E2052461799A1
:1019F00090476D1CB9F10001A9F10109DEDC05E099
:101A000017F8010B5246179990476D1C0299481E12
:101A100002900029F4DC53462146179A03989EE66B
:101A20002D0000002B000000200000002DE9F041F7
:101A3000044600251E461746880404D405E03946AE
:101A40002020B0476D1C641EF9D52846BDE8F08102
:101A50002DE9F041044600251E469046C80301D5F5
:101A6000302700E02027880404D505E041463846A9
:101A7000B0476D1C641EF9D52846BDE8F0814A6860
:101A8000002A06D00A68531C0B6010704868401E7C
:101A90004860704708B50020009030211548FEF7D7
:101AA0004AFB0020144908601FE048208DF803001D
:101AB00003208DF802001048006800EB40000F4939
:101AC00001EB00108088ADF800000B49096801EBBC
:101AD00041010A4A02EB011108686946FEF7F3FE6C
:101AE00005480068401C0449086003480068042851
:101AF000DBDB08BDA00E00208C000020483C000865
:101B000010B5174880780D2827D2DFE800F02607A7
:101B100018081109120A0B130C140D0000BF00BFA6
:101B200000BF00BF00BF00BF1F2000F0A9FF15E0ED
:101B300000BF00BF00BF1E2000F0A2FF0EE008495A
:101B4000088801F006F8012803D11D2000F098FF55
:101B500002E01C2000F094FF00E000BF00BF10BDB9
:101B60001400002070B586B00546002D1BD1264814
:101B7000006888B94FF4EE70244925A229A3CDE965
:101B80000310CDE9013200900B462FA233A10020B3
:101B900000F092F800BFFEE74FF4EE721B491CA064
:101BA000194B1B689847002405262E4890F8F00032
:101BB00010B9304606B070BD00F068FA00241BE092
:101BC00004EB441127483130084490F820000128E4
:101BD00010D104EB4412234831301044411C1E2222
:101BE0002846FEF7CCFA28B904EB44111D483130E1
:101BF000465C03E0601CC4B2052CE1DB00BF00F0D2
:101C000079FA3046D6E7000080000020D53B000876
:101C100074616720213D202828766F6964202A2975
:101C200030290000282573292068617320617373AF
:101C3000657274206661696C656420617420257327
:101C40003A256C642E000000555345525C75617254
:101C5000745C656C6F672E6300000000656C6F67D5
:101C600000000000A809002010B50024114890F8D9
:101C7000F000012801D1204610BD00F05BFA0446B7
:101C80000CB12046F8E7012000F014FA00200949C1
:101C900081F8F30081F8F400012000F095FB0520A5
:101CA00000F05AFA00F0B2FA0120024981F8F0007F
:101CB0002046E1E7A80900202DE9F04F8DB0054648
:101CC0000F46934698463846FEF752FA814600245E
:101CD0004FF0020A00200B900C900790089009909A
:101CE0000A90052D1BDDC148006888B940F23A20F2
:101CF000BF49C0A2C6A3CDE90310CDE901320090CF
:101D00000B46CCA2D0A10020FFF7D6FF00BFFEE714
:101D100040F23A22B649B7A0B44B1B689847CC486A
:101D200090F8F10010B90DB0BDE8F08FC848007808
:101D3000A84204DB3846FFF715FFA84200DAF2E7B5
:101D4000C349491C3846FEF701FA00B9EBE718A869
:101D5000069000F09BF9BE4890F8F50078B1BD48B8
:101D60000119BDA2204600F077FB0444BB4850F89F
:101D70002520B8480119204600F06EFB04440121DB
:101D8000284600F01BFC40B1B54850F82520B1486A
:101D90000119204600F060FB04440221284600F0AF
:101DA0000DFCE8B1AB4801193A46204600F054FB5F
:101DB0000444B9F10F0F0CD8C9F10F01202207A874
:101DC000FEF7B2F9A348011907AA204600F044FB28
:101DD0000444A0480119A3A2204600F03DFB04449E
:101DE0001C21284600F0EAFB002852D0994801192E
:101DF0009DA2204600F030FB04440421284600F058
:101E0000DDFBA8B100F092F9059092480119204637
:101E1000059A00F021FB04441821284600F0CEFB6F
:101E200030B18C4801198FA2204600F015FB044404
:101E30000821284600F0C2FBA8B100F06FF9059018
:101E4000844801192046059A00F006FB044410213D
:101E5000284600F0B3FB30B17E48011981A220462C
:101E600000F0FAFA04441021284600F0A7FB48B11C
:101E700000F058F90590774801192046059A00F0BE
:101E8000EBFA04447348011978A2204600F0E4FA02
:101E90000444E021284600F091FB00285CD06D4806
:101EA000011973A2204600F0D7FA044420212846E5
:101EB00000F084FBF8B1674801195A46204600F04B
:101EC000CBFA04444021284600F078FB38B1614841
:101ED000011968A2204600F0BFFA04440BE08021FB
:101EE000284600F06BFB30B15A4801195DA220462C
:101EF00000F0B2FA04448021284600F05FFBC0B134
:101F00005DA205210BA8169BFFF72CF9514801197A
:101F10000BAA204600F0A0FA04444021284600F015
:101F20004DFB30B14B4801194EA2204600F094FA07
:101F300004444021284600F041FB30B145480119D6
:101F40004246204600F088FA0444424801194BA258
:101F5000204600F081FA0444C4F580613D4A10191E
:101F6000069B179AFFF718F9064600200690A0195D
:101F7000B0F5806F03D8002E01DB344401E04FF44C
:101F80008064201D5044B0F5806F04D94FF4806404
:101F9000241FA4EB0A042E4890F8200058B100201A
:101FA0002C4908552A4920312A48FEF7CFF810B9A4
:101FB00000F0A0F8B7E6264890F8F50030B12548C3
:101FC00001192FA2204600F047FA044421480119C4
:101FD0002DA2204600F040FA044421461D4800F09E
:101FE000ABF800F087F800BF9DE6000080000020FD
:101FF000ED3B00086C6576656C203C3D20454C4F00
:10200000475F4C564C5F564552424F5345000000C7
:1020100028257329206861732061737365727420A9
:102020006661696C65642061742025733A256C646F
:102030002E000000555345525C756172745C656CEE
:102040006F672E6300000000656C6F670000000082
:10205000A8090020A00A00201B5B000068000020E7
:1020600050000020200000005B0000005D20000008
:10207000280000003A000000256C640029000000E0
:102080001B5B306D000000000D0A000010B5084811
:1020900090F8F20030B100F05DF80120044981F8B9
:1020A000F40003E00120024981F8F30010BD0000B4
:1020B000A809002010B504460D4880F8F24090F8B9
:1020C000F200A0B10A4890F8F40030B9084890F83E
:1020D000F30010B100F03EF809E0054890F8F40074
:1020E00028B1034890F8F30008B900F034F810BDA7
:1020F000A809002010B5084890F8F20030B100F0AF
:102100002AF80020044981F8F40003E00020024985
:1021100081F8F30010BD0000A809002000A070475E
:102120000000000000A070470000000000A0704701
:10213000000000000020704770B504460D4622469E
:10214000294602A0FEF7FEFF70BD0000252E2A736F
:10215000000000007047704710B586B00446052C9B
:102160001BDD1048006888B94FF4AB700E490FA210
:1021700015A3CDE90310CDE9013200900B461BA257
:102180001FA10020FFF798FD00BFFEE74FF4AB72E0
:10219000054906A0034B1B6898471B48047006B00E
:1021A00010BD000080000020A93B00086C6576652A
:1021B0006C203C3D20454C4F475F4C564C5F56458C
:1021C00052424F534500000028257329206861734F
:1021D00020617373657274206661696C6564206147
:1021E000742025733A256C642E0000005553455227
:1021F0005C756172745C656C6F672E630000000033
:10220000656C6F6700000000A809002010B500246D
:1022100000BF13E004EB44120A491144481C1F217B
:10222000FDF789FF002104EB44120648815404EBBA
:102230004412104480F82010601CC4B2052CE9DB65
:1022400010BD0000D909002030B585B004460D4608
:10225000052C1BDD1048006888B94FF49E700F49AB
:102260000FA216A3CDE90310CDE9013200900B4671
:102270001BA220A10020FFF71FFD00BFFEE74FF4C7
:102280009E72064906A0044B1B6898471B4840F8FD
:10229000245005B030BD0000800000208C3B0008B9
:1022A0006C6576656C203C3D20454C4F475F4C5635
:1022B0004C5F564552424F53450000002825732974
:1022C0002068617320617373657274206661696C44
:1022D00065642061742025733A256C642E0000002B
:1022E000555345525C756172745C656C6F672E6303
:1022F00000000000656C6F6700000000800A00208D
:1023000010B586B00446002C1ED0012C1CD01148FC
:102310000068002811D140F213100F490FA219A331
:10232000CDE90310CDE9013200900B461EA223A196
:102330000020FFF7C1FC00BFFEE740F21312064980
:1023400006A0044B1B6898471E4880F8F14006B071
:1023500010BD000080000020743B000828656E61FD
:10236000626C6564203D3D2066616C736529207C4C
:102370007C2028656E61626C6564203D3D2074722E
:10238000756529002825732920686173206173739E
:10239000657274206661696C6564206174202573C0
:1023A0003A256C642E000000555345525C756172ED
:1023B000745C656C6F672E6300000000656C6F676E
:1023C00000000000A8090020014981F8F5007047CD
:1023D000A80900200EB50B4890F8F00000B90EBD1A
:1023E0000120FFF78DFF08A009A1F422124BCDE9CF
:1023F0000021029011A216A10420FFF75DFC00BF8E
:10240000EDE70000A8090020322E322E39390000F5
:10241000456173794C6F6767657220562573206933
:102420007320696E697469616C697A65207375637C
:10243000636573732E0000005F3B000855534552DF
:102440005C756172745C656C6F672E6300000000E0
:10245000656C6F6700000000F0B585B006460D465C
:1024600014462746002D19D12448006880B92C2035
:10247000234924A224A3CDE90310CDE90132009021
:102480000B462AA22FA10020FFF716FC00BFFEE793
:102490002C221B491BA0194B1B689847002C19D1F3
:1024A0001648006880B92D20154928A216A3CDE949
:1024B0000310CDE9013200900B461CA221A100209F
:1024C000FFF7FAFB00BFFEE72D220D491FA00B4BC3
:1024D0001B6898470AE03046761CB0F5806F04D23E
:1024E00014F8010B05F8010B00E002E02078002849
:1024F000F1D100BFE01B05B0F0BD0000800000205E
:10250000253C0008647374002825732920686173D2
:1025100020617373657274206661696C6564206103
:10252000742025733A256C642E00000055534552E3
:102530005C756172745C656C6F675F7574696C73F0
:102540002E630000656C6F6700000000737263000B
:1025500010B502460868002306E0047B944200D1CF
:1025600005E000695C1CE3B20C7A9C42F5DC00BF1C
:1025700010BD000000BF054A128802F04002002A88
:10258000F9D0C2B2014B1B1D1A80704700380140C0
:102590000021027B074B43F82210FF21027B064BF0
:1025A0009954002141734160816001604161016182
:1025B00070470000D81000202811002030B585B0E9
:1025C00004460D46052C1BDD1248006888B940F210
:1025D000D920114911A218A3CDE90310CDE9013288
:1025E00000900B461DA222A10020FFF765FB00BF53
:1025F000FEE740F2D922084908A0064B1B6898471D
:102600001D4850F82400284010B1012005B030BD0D
:102610000020FBE780000020F93B00086C65766530
:102620006C203C3D20454C4F475F4C564C5F564517
:1026300052424F53450000002825732920686173DA
:1026400020617373657274206661696C65642061D2
:10265000742025733A256C642E00000055534552B2
:102660005C756172745C656C6F672E6300000000BE
:10267000656C6F6700000000800A002008B508E064
:102680001E21009100BF00994A1E00920029FAD134
:10269000401E0028F4D108BD0248006800F0800008
:1026A00040B27047080801400248006800F040004E
:1026B000704700000808014018B18021034A1160EA
:1026C00003E08021014A121D11607047100801408B
:1026D00018B14021034A116003E04021014A121D54
:1026E00011607047100801402DE9F04781460D4602
:1026F00000240026AC88AF6815E0484600F0A6F834
:1027000000F0FF0887F80080761C7F1C641E0AF02A
:10271000400020B91CB1484600F074F803E014B939
:10272000484600F081F8002CE7D13046BDE8F0873C
:102730002DE9F04781460C4600260027A688D4F8EC
:102740000880A07800F0200A12E098F800104846AF
:1027500000F00CF945B21DB1BAF1000F05D025B15A
:1027600008F101087F1C761E02E00020BDE8F0871A
:10277000002EEAD13846F9E72DE9F04781460F46A9
:102780009046A07800F0200A484600F011F9002594
:102790002EE007EB0514A07800F0100068B915B121
:1027A000484600F07AF82146484600F08BF8064685
:1027B0001EB1BAF1000F00D11EE0A07800F00100B8
:1027C00050B121464846FFF78FFF0646A088B04229
:1027D0000DDD4FF0FF360FE021464846FFF7A8FF1A
:1027E0000646A088B04202DD4FF0FF3604E06D1CC3
:1027F0004545CED32E4600BF484600F0E5F83046AA
:10280000BDE8F08710B50446002021688847022003
:10281000216988470120616888470320216988472A
:1028200000206168884710BD10B50446012021686A
:102830008847022021698847012061688847022073
:102840002169884700206168884710BD70B504463B
:1028500000250020616888470120216888470320FF
:1028600021698847002614E0680045B201206168AC
:102870008847032021698847A068804708B145F050
:102880000105002061688847052021698847701C80
:1028900046B2082EE8DB284670BD10B5044601207C
:1028A000216888470120616888470320216988479B
:1028B000002021688847032021698847002061683B
:1028C000884710BD2DE9F04782460C46B4F80280D7
:1028D000A07800F0200708F0040088B320880621C3
:1028E00001EAE01040F0F00694F80090227B3146B7
:1028F000504600F0A0F8054625B11FB94FF0FF3053
:10290000BDE8F087227B4946504600F094F8054622
:102910001DB117B94FF0FF30F2E708F0010018B30E
:10292000504600F045F846F00106227B31465046FD
:1029300000F081F80546BDB1B7B94FF0FF30DFE7D1
:10294000FFE720784006060E08F0010008B146F0C7
:102950000106227B3146504600F06DF805461DB158
:1029600017B94FF0FF30CBE72846C9E770B50446EA
:102970000E46072510E000206168884746FA05F2F8
:1029800002F001002168884705202169884701205D
:1029900061688847681E45B2002DECDA0020616846
:1029A0008847032021698847204600F01FF870BD42
:1029B00010B5044600202168884703202169884714
:1029C00000206168884710BD10B5044600202168CA
:1029D00088470120616888470320216988470120D2
:1029E0002168884705202169884710BD70B50446D5
:1029F000012501202168884703202169884701209B
:102A000061688847032021698847A0688047C5B26C
:102A1000002061688847284670BD2DE9F0410446D2
:102A20000D461646324629462046236898470746F3
:102A30003846BDE8F0812DE9F04106460F461446C0
:102A40004FF00008002515E0F9B23046FFF78EFF81
:102A50008046B8F1000F01D0A54200D10CE030460D
:102A6000FFF7B2FF0520316988473046FFF7A0FF26
:102A7000681CC5B2A542E7DD00BF4046BDE8F08155
:102A80000B49C978491CC9B2094AD17081420EDD8F
:102A90000121D17011468978491CC9B291700C2965
:102AA00005DD0121917011460988491C118070478C
:102AB00014000020002141600160017270472DE97F
:102AC000F04107460C46207A20B92146384600F0EE
:102AD0002EF81AE02568002608E038682968884240
:102AE00001D92D6900E004E0701CC6B2207AB04222
:102AF000F3DC00BF25B92146384600F018F804E0A1
:102B000022462946384600F002F8BDE8F08101610E
:102B10004B691BB910600023436103E04B694361BB
:102B20004B6918614861137A5B1C137270474A68DD
:102B30000B7A2BB90860486000230361436104E00D
:102B4000106142610023036148600B7A5B1C0B72C9
:102B500070470146CA1701EB92729210A1EB8202F4
:102B600072B9642291FBF2F302FB131242B14FF4EB
:102B7000C87291FBF2F302FB13120AB901207047ED
:102B80000020FCE71CB508218E48FDF727FFC40094
:102B900004218C48FDF722FF44EA80040221894881
:102BA000FDF71CFF44EA400401218648FDF716FFAB
:102BB0000443854804608548007860B18248006815
:102BC00083490978884200D11CBD00207F490870E4
:102BD0000620804948707C4800680F287DD07E48D8
:102BE000007858B901207C49087077480078784906
:102BF0000870FDF701FF79490860E0E07648007849
:102C00000128FAD1724800786F4909688842F4D1E6
:102C1000FDF7F2FE71490968441A322C00D8D3E757
:102C2000B4F57A7F7BD900206B4908700120674991
:102C3000087003206749487000F0B4FA012806D0F4
:102C400002281ED0032836D004285BD14FE064A0B0
:102C5000A021684B68A2CDE900106CA10320FFF70A
:102C60002BF86C48007806280AD06B486949097827
:102C700000EBC1004078674908700020FDF736FF7F
:102C800041E066A0A9215B4B5BA2CDE900105FA1EA
:102C90000320FFF711F85F48007806280AD05E4845
:102CA0005C49097800EBC10080785A49087000201F
:102CB000FDF71CFF27E05EA0B2214E4B4EA2CDE9EE
:102CC000001052A10320FEF7F7FF524800780628B3
:102CD0000CD051484F49097800E021E000EBC100D9
:102CE000C0784C4908700020FDF700FF0BE055A0AC
:102CF000BB21404B40A2CDE9001044A10320FEF7C8
:102D0000DBFF00E000BF00BF43484249097800EB09
:102D1000C1004068504908600846006880474EE09E
:102D20002D48007838B3FDF767FE2C490968441A2E
:102D3000322C00D848E7B4F57A7F1BD8FDF75CFE4B
:102D400046490968401AB0F5967F05D801204449E4
:102D500008702049487009E00120424908700020AD
:102D60003F490870FDF748FE3F490860FDF744FE03
:102D70003A49086000BF3B48007801281CD1FDF7A4
:102D80003BFE39490968401AB0F5967F14D934489A
:102D9000007888B905200F49487000203149087033
:102DA0002F49087031A0E621124B13A2CDE9001083
:102DB00016A10320FEF780FF00200749087000BF1E
:102DC00002E7000000080140840000209600002077
:102DD0009500002089000020940000209000002031
:102DE0004B4559315F545950455F4C4F4E472E0D5E
:102DF0000A000000083D0008555345525C4B4559F8
:102E00005C6170705F6B65792E6300004E4F5F549C
:102E10004147000088000020B00800204B4559328F
:102E20005F545950455F4C4F4E472E0D0A0000002D
:102E30004B4559335F545950455F4C4F4E472E0D0B
:102E40000A0000004B4559345F545950455F4C4FC0
:102E50004E472E0D0A000000A80100209C00002013
:102E6000A0000020A1000020980000204B45595FE1
:102E7000545950455F53484F52545F55502E0D0AD8
:102E8000000000001CB500F0E9FA4FF4A060FDF767
:102E9000BFFD4FF4E130FEF733F8FDF7F3FC00F02F
:102EA00029FC00F065FAFEF7F5FD344800F0E8FB78
:102EB000334800F0E5FB3148FDF7B4FD31490860C7
:102EC0000846006848B130A0F021354B35A2CDE965
:102ED000001037A10120FEF7EFFE37A04FF48371F9
:102EE0002F4B30A2CDE9001031A10020FEF7E4FE07
:102EF00038A040F207112A4B2AA2CDE900102CA1DC
:102F00000120FEF7D9FE3AA04FF48471244B25A28C
:102F1000CDE9001026A10220FEF7CEFE3BA040F234
:102F200009111F4B1FA2CDE9001021A10320FEF7BC
:102F3000C3FE3DA04FF48571194B1AA2CDE90010D4
:102F40001BA10420FEF7B8FE3EA040F20B11144B6B
:102F500014A2CDE9001016A10520FEF7ADFE4049F0
:102F60004FF47A7000F022FB4FF6FF723D490520C6
:102F700000F0D0FA01E000F0DFFAFCE720000020CA
:102F800028000020340000206572726F72204F4CC0
:102F90004544313238363420693263210000000064
:102FA0005A3B0008555345525C6D61696E2E6300B3
:102FB0004E4F5F5441470000546869732069732085
:102FC000617373657274206C6F67206F75747075B0
:102FD0007421000054686973206973206572726FF0
:102FE00072206C6F67206F7574707574210000001B
:102FF00054686973206973207761726E696E672007
:103000006C6F67206F7574707574210054686973F4
:1030100020697320696E666F206C6F67206F75740E
:103020007075742100000000546869732069732072
:103030006465627567206C6F67206F757470757456
:1030400021000000546869732069732076657262FC
:103050006F7365206C6F67206F75747075742100D5
:1030600065320008852B0008002115E001EB4100C6
:103070000B4A02EBC000407B60B9012001EB41022A
:10308000074B03EBC202507301EB41001A4602EBFF
:10309000C0007047481CC1B21429E7DB0020F8E7E4
:1030A000D00E0020F0B585B004460D4600200090FB
:1030B000002600273C268DF800408DF80150ADF821
:1030C0000460ADF80600CDF80CD00220ADF8080081
:1030D000012201A903480068FFF79FFCC7B23846E8
:1030E00005B0F0BD9C01002070B505460C46E9B264
:1030F00041F0B00000F090F9C4F3031141F010006A
:1031000000F08AF904F00F0000F086F970BD70B588
:1031100004460D461646324629466068FFF72CFBEA
:1031200070BD00002DE9F04105460E461746FFF739
:103130009BFF04466560A760002020611548006879
:10314000284420600020217B134A50541EB1207B6C
:10315000124941F820600F492068096888420CD262
:103160000F48007E80F0010000EB40000C4A02EBAB
:1031700080012046FFF7A3FC09E00948007E00EB30
:103180004000074A02EB80012046FFF798FC2046EA
:10319000BDE8F081A800002028110020D8100020F0
:1031A000B010002010B501210E48FDF717FC08B93A
:1031B000012010BD02210B48FDF710FC08B90220C8
:1031C000F7E704210748FDF709FC08B90320F0E7F9
:1031D00008210448FDF702FC08B90420E9E70020B3
:1031E000E7E700000008014070B504460748007E8C
:1031F00000EB4000054901EB80052946204600F020
:1032000009F803492046FFF792FC70BDB01000207A
:10321000CC1000200A6882420AD102690A600A685A
:1032200012B900224A600EE0002203695A610AE0E6
:10323000D0E904231A61026912B942694A6002E0C6
:10324000D0E904325A610A7A521E0A7270470000AD
:1032500010B5034890F9000000F038F910BD0000E7
:103260001C00002000B585B01E4880791D494979B1
:103270001C4A12791CA3CDE90132CDE903106C2060
:10328000234B24A226A100900320FEF715FD15482C
:10329000807914494979134A127923A3CDE901327F
:1032A000CDE903106D201A4B1AA21DA10090032036
:1032B000FEF702FD4FF4FA6000F0BCF8094882798D
:1032C0004179007921A3CDE90130CDE903126F20C6
:1032D0000F4B10A212A100900320FEF7EDFC05B0E9
:1032E00000BD0000140000206166746572207275D4
:1032F0006E6C617465723D3D3D3E5B253032643AD3
:10330000253032643A253032645D0D0A0000000039
:103310004C3B0008555345525C6D61696E2E63004D
:103320004E4F5F54414700006265666F72652064CE
:10333000656C61793D3D3D3E5B253032643A253018
:1033400032643A253032645D0D0A000061667465AE
:10335000722064656C61793D3D3D3E5B2530326491
:103360003A253032643A253032645D0D0A0000009F
:1033700010B51548FCF712FF144908801248401D8B
:10338000FCF70CFF114988700F480830FCF706FF66
:103390000E49C8700C480B30FCF700FF0B49087150
:1033A00009480E30FCF7FAFE08494871064811300A
:1033B000FCF7F4FE054988714FF6FF7204494FF49B
:1033C0007A7000F0A7F810BD383B00081400002008
:1033D000D533000810B50F488079401CC0B20D49A4
:1033E00088713C2815D10020887108464079401C1E
:1033F000C0B248713C280CD10020487108460079C1
:10340000401CC0B20871182803D100200871FEF7D3
:1034100077FB10BD1400002010B5044621460020A3
:10342000FFF740FE10BD10B5044621464020FFF7CF
:1034300039FE10BD70B5044672B601220021204647
:10344000FFF770FE054662B600BF287B0249085CA4
:103450000028FAD070BD00002811002070B5154872
:10346000FFF728FB1448FFF725FB13480C30FFF744
:1034700021FB00201049087610490860002514E05F
:1034800005EB45000E4901EBC0040020607360604D
:103490002060A0602061606125730A4941F8250021
:1034A000FF2009494855681CC5B2142DE8DBFDF71B
:1034B0009FFC70BDCC100020B0100020A8000020A0
:1034C000D00E0020D8100020281100202DE9F04156
:1034D000074672B6002414E004EB44000C4901EBEB
:1034E000800631463846FFF733F805463DB1314690
:1034F0002846FFF78FFE2846FFF74AF803E0601CD6
:10350000C4B2022CE8DB00BF62B6BDE8F081000067
:10351000B01000202DE9F04104460D46164672B663
:10352000324629462046FFF7FDFD074662B6387B46
:1035300040B2BDE8F081000070B5002416E01848E4
:10354000005DFF2810D01648005D00280CDD1548EE
:1035500050F8240018B1134951F82400804710484E
:10356000005D401E0E490855601CC4B2142CE6DBF9
:103570000D48007A002812DD0B4805680CE0287B16
:103580000749085C38B908492846FFF743FE284632
:10359000FEF7FEFF02E02D69002DF0D100BF70BDE7
:1035A00028110020D8100020CC10002070B504464F
:1035B0000D4672B6012229462046FFF7B3FD0646A6
:1035C00062B6307B40B270BD70B52A480068401CBE
:1035D00028490968884205D22748007E80F001000A
:1035E0002549087623480068401C22490860224883
:1035F000007E00EB4000204901EB80052C6831E0A3
:10360000207B1E49085C401C217B1C4A50544FF60D
:10361000FF71A068884209D0A068401EA06028B948
:10362000022060732046FFF7DFFD1AE01149606851
:1036300009680844206029462046FFF7EBFD0D4944
:1036400020680968884208D20B48007E80F001009B
:1036500000EB4000084901EB800529462046FFF7B2
:103660002EFA246924B10349206809688842C7D921
:1036700070BD0000A8000020B0100020281100201C
:1036800038B5044601210420FDF74EFAC020ADF8FC
:10369000000014208DF8030003208DF80200694615
:1036A0000C48FDF710F940200A49103108608020CD
:1036B0000860094809490860094888600948486065
:1036C0000948C860094808610846606008482060E9
:1036D00038BD000000080140D12600083C11002040
:1036E000A9260008B9260008992600087D260008AA
:1036F0000F31000808B50020009001211020FDF7CF
:1037000013FA4FF40050ADF8000003208DF80200CA
:1037100010208DF8030069460848FDF7D4F84FF6ED
:10372000FF7207494FF4FA70FFF7F4FE054908707D
:10373000054944F62060FFF739FF08BD001001403D
:103740004D3700081C0000205132000810B50B480E
:10375000007828B94FF400510948FDF748F904E012
:103760004FF400510648FDF744F90448007808B9C1
:10377000012000E000200149087010BD3000002049
:10378000001001407047704708B5204803231422F9
:1037900000210090084600F095F91D4802232422DC
:1037A00000210090142000F08DF91A480223802295
:1037B00000210090702000F085F91748082314229A
:1037C00006210090042000F07DF9144806231C22F5
:1037D000042100900C2000F075F9114808235822AC
:1037E00002210090282000F06DF90E480623732274
:1037F00004210090632000F065F90B4808237B2228
:10380000062100906B2000F05DF908BDAC0100209E
:10381000E80100204C0200207202002098020020E3
:103820000A030020BE020020E402002008B5204860
:103830000323142200210090084600F043F91D489C
:103840000223242200210090142000F03BF91A48A2
:103850000223802200210090702000F033F91748E5
:103860000823142206210090042000F02BF91448AC
:1038700006231C22042100900C2000F023F911489B
:103880000823582202210090282000F01BF90E483E
:103890000623732204210090632000F013F90B48E3
:1038A00008237B22062100906B2000F00BF908BD55
:1038B000AC010020E80100204C0200207202002030
:1038C0009802002090070020BE020020E4020020A1
:1038D0007047704708B52048032314220021009048
:1038E000084600F0EFF81D48022324220021009032
:1038F000142000F0E7F81A480223802200210090EB
:10390000702000F0DFF817480823142206210090E9
:10391000042000F0D7F8144806231C22042100904C
:103920000C2000F0CFF81148082358220221009003
:10393000282000F0C7F80E480623732204210090C7
:10394000632000F0BFF80B4808237B22062100907B
:103950006B2000F0B7F808BDAC010020E8010020A2
:103960004C02002072020020980200205005002026
:10397000BE020020E40200207047000008B5204885
:103980000323142200210090084600F09BF81D48F4
:103990000223242200210090142000F093F81A48FA
:1039A0000223802200210090702000F08BF817483D
:1039B0000823142206210090042000F083F8144804
:1039C00006231C22042100900C2000F07BF81148F3
:1039D0000823582202210090282000F073F80E4896
:1039E0000623732204210090632000F06BF80B483B
:1039F00008237B22062100906B2000F063F808BDAD
:103A0000AC010020E80100204C02002072020020DE
:103A10009802002070060020BE020020E402002070
:103A200008B520480323142200210090084600F026
:103A300049F81D480223242200210090142000F0A0
:103A400041F81A480223802200210090702000F0E3
:103A500039F817480823142206210090042000F0AA
:103A600031F8144806231C22042100900C2000F099
:103A700029F811480823582202210090282000F03C
:103A800021F80E480623732204210090632000F0E1
:103A900019F80B4808237B22062100906B2000F0C8
:103AA00011F808BDAC010020E80100204C02002004
:103AB000720200209802002030040020BE02002084
:103AC000E40200202DE9F05F06460F4690461C46B2
:103AD000DDF828A04FF0000BE11704EB5171C9107D
:103AE000A4EBC10131B92046E11704EB5171C1F3D8
:103AF000C70506E02046E11704EB5171C910491CC7
:103B0000CDB23D4614E031462846FFF7EDFAB14606
:103B10000AE059460BF1010B1AF80100FFF783FC8C
:103B200009F1010000F0FF09C145F2DB681CC5B2D4
:103B3000A542E8DBBDE8F09F323032333A30343A08
:103B400030362331373A31363A30300072756E6C88
:103B5000617465725F74657374006D61696E006590
:103B60006C6F675F737461727400656C6F675F730D
:103B7000746F7000656C6F675F7365745F6F7574E9
:103B80007075745F656E61626C656400656C6F670B
:103B90005F7365745F666D7400656C6F675F7365F6
:103BA000745F66696C74657200656C6F675F7365DE
:103BB000745F66696C7465725F6C766C00656C6FBF
:103BC000675F7365745F66696C7465725F74616763
:103BD0005F6C766C00656C6F675F6765745F6669C4
:103BE0006C7465725F7461675F6C766C00656C6F96
:103BF000675F6F7574707574006765745F666D7468
:103C00005F656E61626C656400656C6F675F6669B5
:103C10006E645F6C766C00656C6F675F66696E647E
:103C20005F74616700656C6F675F7374726370794E
:103C300000656C6F675F6370796C6E00656C6F67B1
:103C40005F6D656D63707900000801400100000040
:103C5000C80000002C01000032000000000000003D
:103C60000000000000000000000000000000000054
:103C700000000000000000000008014002000000F9
:103C8000C80000002C01000032000000000000000D
:103C90000000000000000000000000000000000024
:103CA00000000000000000000008014004000000C7
:103CB000C80000002C0100003200000000000000DD
:103CC00000000000000000000000000000000000F4
:103CD0000000000000000000000801400800000093
:103CE000C80000002C0100003200000000000000AD
:103CF00000000000000000000000000000000000C4
:103D000000000000000000006B65795F7363616E66
:103D10000054494D325F49525148616E646C65727E
:103D2000000040404040404040404041414141410E
:103D30004040404040404040404040404040404083
:103D400040400502020202020202020202020202D4
:103D50000202202020202020202020200202020217
:103D6000020202909090909090101010101010107D
:103D7000101010101010101010101010100202026D
:103D800002020288888888888808080808080808C5
:103D900008080808080808080808080808020202B5
:103DA00002400000223D0008412F0000442F000087
:103DB000452F0000492F0000562F0000572F00000C
:103DC00033323B32326D000033333B32326D000010
:103DD00033343B32326D000033353B32326D0000FC
:103DE00033363B32326D000033313B356D0000001D
:103DF000103E000800000020A80900002808000864
:103E000078420008A8090020F00C0000E411000826
:103E1000412D0102030404000925060708090204D4
:103E2000060884A24A04693C4113A83D1B08B0045B
:103E30001ABC041AB4041AAC041AB8041AD8041A26
:103E4000E8041AC8041AE0041AC0041AD004012CA9
:103E5000200F04244484649C40300FC808082818AC
:103E6000101010080601824C201806010618204088
:103E70008025404042CC1CFC0402043304FC100F9B
:103E800040201F20404F4442407F42444340180B93
:103E90008060F80704E4242424FF042AE4BF12FF0E
:103EA000300C80814529112F41418181801BFE22E8
:103EB000014905311D80601F0201477F02024282D5
:103EC0007F300C302CA67864A420FC8484781F02F8
:103ED00002017E4A4B023A7E1C16E85452D8303614
:103EE0007E908888701C7F0949332D7E4844420E9D
:103EF000194B195D1119A429C71B0201AB323F33BD
:103F00000306280B08C8380C0AE8080888080D1BA7
:103F10000809012E7F090908080FF12809040C146B
:103F200024FC24140CBB2955394F296D11136060F2
:103F3000137878137E7E3A7FA901179F204080FC7A
:103F4000483050064A02013F120C4AE0011A200193
:103F50002AE09D4A07011A0401840701012BF8FC9D
:103F6000112009040484C46424FCF8B00F3F7F408E
:103F70004143464643414040407F3F900880C0E077
:103F8000F0F0F8FCAF010307070F1F22511FFCF8E8
:103F9000F0E0E0C06F717F3F1F0F0707036F414ED6
:103FA000387C7E5E180133F8F0590C290103161F86
:103FB0001F2A807E180A70383C1E1E3C3870F06044
:103FC0008961E9251E783C1C0E0F7299731A01ACA9
:103FD0009E0F0E1C3C783B2A0C252BF1F180011B17
:103FE0002CF0F1F13B720C7CFFFFFF1A5CF0F070DB
:103FF00001190B819921D90F091F0B590F5AE001A3
:1040000009170B01191CE0F0F8FC000C1F1C1E1E08
:104010001E1C3C3CF8F8F0C0494C1BF0F82B390D45
:1040200012FF0C1F6A5A5A30292919083906041739
:104030006B6B6B380BC0F0FCFE3F0F07C0E0F0303D
:10404000000B17E0E0C3071F3FFCF8E080163FFFBE
:10405000FFF0803C1F3F7F2F16FFFF7F3F0E1AC0EF
:104060000802191F00161803070F1F1E3C3C3838A2
:1040700078797838383C3C1E0F0F07010E1280808B
:1040800080C0807C4919A91A1808E0F8FC3E1F0777
:10409000030135070F1E0C8B0C1E011964380B83AE
:1040A000C3C3C78F1F7EFCF0C02E19AB1201B00B2B
:1040B000207070FCFEFEFC70702019FC1BF0F0F804
:1040C0001A0F3512031D03FFFFFE32550FFFFFF8D5
:1040D00015010303018DE0F0F878019679FBF3F305
:1040E000814AFCFDE80E01071F3F7C7870F070707C
:1040F000783C1FE22F030F1F3E78701D0C187C3F89
:104100001FFE01215F80C0E0C08080B73809F8FF42
:104110003F07073FFFF8E0191C391DC1280F020FA8
:104120001F7FF9E1830307070E0E0707C849D0591F
:1041300010500883E1F97F1F07027809E0E0E07082
:10414000707038389E19F21C3C1E0E01561E3CF849
:10415000F0E029E21B383827192D2A07444F0E1C9E
:104160001CFCF8E0731D070F1F3CE259FE49911E2D
:10417000E0F87C1C1C27192D51180940F0FCFE9F0B
:1041800087C1C06C4DF0E0E0C0AD2B80C010195469
:10419000C009C0C1879FFEF8F0404E01030703012C
:1041A0009111680B031FFFFCE0E0FCFF1F031C29BB
:1041B0001DE11D80C0E0F0C6397629773901290C50
:1041C0001B1C1CBA4BF0E07359E1FCFC3E0F41AEE6
:1041D000081E3E3E1C7F260F3EFCF0E0E5F8FFFF88
:1041E0000F1A186606111CDCFEFE3E0009110FFFB7
:1041F000FFF81FFFFFF05DC0FCFF3FBDC125F0FFD2
:10420000FF1FBD070F3F7CA1111E7C7F7F3B38CD78
:10421000BA18DFBD7C3F0F07A11C0E1C3CDC7C7074
:1042200070E001190DBE38383C1C0EDF12011389F5
:1042300037150801020513213A150802030613D5A4
:10424000381508030407137D3915080401081A2DD1
:10425000101E0505050187281E0606060285081E94
:1042600007070903792019011B04D1201E0909073A
:0842700003D30801A8000000BF
:04000005080000ED02
:00000001FF
