:020000040800F2
:10000000F015002005010008390F0008310F000825
:10001000350F00089D0B0008B31500080000000014
:10002000000000000000000000000000CD110008EA
:10003000A10B0008000000008F100008E11200086A
:100040001F0100081F0100081F0100081F01000810
:100050001F0100081F0100081F0100081F01000800
:100060001F0100081F0100081F0100081F010008F0
:100070001F0100081F0100081F0100081F010008E0
:100080001F0100081F0100081F0100081F010008D0
:100090001F0100081F0100081F0100081F010008C0
:1000A0001F0100081F0100081F0100081F010008B0
:1000B000A51300081F010008BD1300081F01000858
:1000C0001F0100081F0100081F0100081F01000890
:1000D0001F010008D51300081F0100081F010008B8
:1000E0001F0100081F0100081F010008DFF810D0E1
:1000F00000F0AAFA00480047BD2F0008AFF30080C7
:10010000F01500200648804706480047FEE7FEE756
:10011000FEE7FEE7FEE7FEE7FEE7FEE7FEE7FEE7B7
:10012000F9120008ED0000080649074A0868504324
:1001300043F23902104408604008704701490860E2
:1001400070470000D80900206D4EC641D2B201E0D0
:1001500000F8012B491EFBD270470022F6E710B5CC
:1001600013460A4604461946FFF7F0FF204610BD25
:1001700030B505462A460B4612F8010B13F8014B21
:1001800008B1A042F8D01CB1002802D06D1CF1E7E4
:10019000284630BD421C10F8011B0029FBD1801AF3
:1001A000704730B505460020034600E05B1C9342D3
:1001B00005D2EC5CC85C201A01D1002CF6D130BD10
:1001C00070B5064601F03CFA046805460A22002193
:1001D000304600F049F82C6070BD30B50B46014642
:1001E00000202022012409E021FA02F59D4205D3D6
:1001F00003FA02F5491B04FA02F52844151EA2F180
:100200000102F1DC30BD2DE9F05F05460020924689
:100210009B4688460646814640241BE028464146C8
:100220004746224600F031FA53465A46C01A9141D9
:1002300010D311461846224600F018FA2D1A67EB23
:1002400001084F4622460120002100F00FFA17EB6B
:1002500000094E41201EA4F10104DFDC484631466E
:100260002A464346BDE8F09F2DE9F04791460F46E8
:1002700080460446002614F8015B2DB100F028FAF0
:100280000068405DC007F6D12B2D02D02D2D18D06F
:10029000641E4A463946204600F01EFA27B13968E6
:1002A000A14201D1C7F8008071054FF002040BD5BF
:1002B0004042002803DD01F0C3F90460A007BDE857
:1002C000F08746F48066E4E70028F8DA01F0B8F930
:1002D00004606FF00040F2E72DE9FE4F804681EAAE
:1002E0000300C00F0C46009021F0004123F00045B0
:1002F000B8EB0200A94105D24046214690461C4673
:100300000B46024623F00040104347D0270DC7F3A9
:100310000A00C3F30A510290401A019040286BDA98
:10032000C3F3130040F4801B0098924620B10023D1
:10033000D2EB030A63EB0B0B01985946C0F1400264
:10034000504600F093F906460D4650465946019A2C
:1003500000F0ABF910EB08006141002487EA11526C
:1003600084EAE7731A4340D0009A62B3019A012AE3
:100370004FEA075215DC001B61EB02014FF000420F
:1003800002EA0752CDE90042001C41F580113246D5
:100390002B4600F0FFF903B0BDE8F08F4046214640
:1003A000F9E7001B61EB0201001C41F58013001806
:1003B0005B412018A2F5001747EB030140EAD57016
:1003C000B6196D4111E06D084FEA360645EAC07571
:1003D0004FEA0752001B61EB0201001C41F580113E
:1003E00049084FEA30000019514132462B4603B00C
:1003F000BDE8F04F00F0BFB9009801224000002393
:10040000D0EB020263EBE073009821464FEAE07400
:10041000B8EB000061EB0401E9E783F000435BE720
:1004200081F0004158E72DE9FE4F81EA030404F012
:10043000004421F0004100944FF0000B23F00043F2
:1004400050EA01045ED052EA03045BD0C3F30A54BD
:10045000C1F30A552C44A4F2F3340194A0FB0254D6
:10046000C1F3130141F48011C3F3130343F4801368
:1004700001FB024400FB034E840A970A44EA8154BC
:1004800047EA8357A4FB076802958D0A05FB078599
:100490004FEA932C04FB0C542705029D4FEA0658A3
:1004A00047EA1637B5EB08056EEB070C870E920E80
:1004B00047EA811742EA8312A7FB0201B6EB0B0160
:1004C00064EB00042B0D43EA0C335E1844EB1C5024
:1004D000DA465146E7FB0201C5F313044FEA0B333A
:1004E00043EA14534FEA0432019C43EA0603A4F1A1
:1004F0000C040294009CCDE900B400F04BF903B069
:10050000BDE8F08F00200146F9E72DE9F04D81EAC2
:10051000030404F0004B21F0004514464FF0000A9C
:1005200023F0004150EA050220D054EA01021DD018
:10053000C5F30A570246C5F31303C1F31300C1F311
:100540000A5640F4801543F48013A7EB0608101BED
:10055000D64608F2FD3873EB050002D308F1010816
:1005600001E092185B41B8F1000F03DA0020014668
:10057000BDE8F08D00204FF48011064684460EE061
:10058000171B73EB050705D3121B63EB050306432B
:100590004CEA010C49084FEA300092185B4150EADE
:1005A0000107EDD152EA030012D082EA040083EA87
:1005B0000501084305D0101BAB4106D201220023E0
:1005C00006E000224FF0004302E06FF001025310FA
:1005D0001AEB06004CEB085110EB0A0041EB0B0143
:1005E000BDE8F04D00F0C7B8C1F30A52C1F31301E2
:1005F00040F2FF3341F480119A4202DA00200146B2
:10060000704740F233439A42A2F2334202DC524234
:1006100000F03BB800F02AB830B5041E71F10004B8
:1006200004DB4FF00044404264EB0101141E73F1FF
:10063000000405DB1C464FF00043524263EB040309
:10064000994208BF904230BD064C074D06E0E06875
:1006500040F0010394E8070098471034AC42F6D309
:10066000FFF748FD1C4E00083C4E0008202A04DB22
:10067000203A00FA02F1002070479140C2F12003B5
:1006800020FA03F3194390407047202A04DB203AF4
:1006900021FA02F00021704721FA02F3D040C2F1A2
:1006A00020029140084319467047202A06DBCB17E9
:1006B000203A41FA02F043EAE07306E041FA02F31D
:1006C000D040C2F120029140084319467047000013
:1006D00000487047D04D00082DE9F05F8246007851
:1006E000002715468B460AF10104B946302801D08F
:1006F0009DB113E014F8010B0127782803D0582886
:1007000001D045B10AE00DB1102D07D10027102509
:1007100014F8010B02E0082500E00A250026B04687
:100720000EE005FB080005FB06F1012701EB104672
:100730001FFA80F8B6F5803F00D3B94614F8010BD4
:10074000294600F075F80028EBDABBF1000F05D060
:100750000FB1641E00E05446CBF80040B9F1000F21
:1007600006D000F06DFF02210160C81EBDE8F09FB9
:1007700048EA0640FAE710B5141E73F1000408DADF
:10078000401C41F1000192185B411A4301D120F055
:10079000010010BD2DE9F04D92469B4611B1B1FA12
:1007A00081F202E0B0FA80F220329046FFF75EFF5D
:1007B00004460F4640EA0A0041EA0B0153465A46F6
:1007C000084313D0114653EA010019D0C8F1400282
:1007D0005046FFF75AFF05460E46504659464246D8
:1007E000FFF744FF084305D0012004E020463946C6
:1007F000BDE8F08D0020054346EAE0762C43374300
:100800000A986305E40AA0EB08000022FD0A44EA06
:1008100047540A3002D500200146E9E701051019C6
:100820006941DDE9084500196941BDE8F04DA2E7DD
:100830003A2800D2303820F02002412A01D3A2F118
:100840003700884201D34FF0FF30704770B58C18E5
:1008500010F8015B15F0070301D110F8013B2A11D4
:1008600006D110F8012B03E010F8016B01F8016BC1
:100870005B1EF9D12B0705D40023521E0DD401F8BD
:10088000013BFAE710F8013BCB1A921C03E013F886
:10089000015B01F8015B521EF9D5A142D8D30020BB
:1008A00070BD00001CB5044605A0F5210B4B0CA241
:1008B000CDE900100FA1042001F00AFE1CBD0000CC
:1008C00042544E315F444F55424C455F436C69631F
:1008D0006B5F48616E646C65720D0A006D400008C4
:1008E000555345525C4B45595C6170705F6B65793F
:1008F0002E6300004E4F5F54414700001CB5044674
:1009000005A04FF480710C4B0CA2CDE9001010A192
:10091000042001F0DDFD1CBD42544E315F4C4F4EB2
:10092000475F50524553535F484F4C445F48616E98
:10093000646C65720D0A0000A540000855534552CD
:100940005C4B45595C6170705F6B65792E6300008C
:100950004E4F5F54414700001CB5044605A0FB21E3
:100960000C4B0DA2CDE9001010A1042001F0B0FD48
:100970001CBD000042544E315F4C4F4E475F5052F9
:100980004553535F53544152545F48616E646C65E4
:10099000720D0A0087400008555345525C4B45597B
:1009A0005C6170705F6B65792E6300004E4F5F5421
:1009B00041470000704770477047000010B504467B
:1009C00002A1094803F083FA10BD0000746869733E
:1009D000206973206274312073696E676C652063CF
:1009E0006C69636B0A000000003801401CB50446C6
:1009F00005A04FF491710B4B0BA2CDE900100FA194
:100A0000042001F065FD1CBD42544E325F444F5539
:100A1000424C455F436C69636B5F48616E646C6513
:100A2000720D0A00DC400008555345525C4B455995
:100A30005C6170705F6B65792E6300004E4F5F5490
:100A4000414700001CB5044605A04FF496710C4BBD
:100A50000CA2CDE9001010A1042001F039FD1CBD4D
:100A600042544E325F4C4F4E475F50524553535F96
:100A7000484F4C445F48616E646C65720D0A00001B
:100A800014410008555345525C4B45595C617070E8
:100A90005F6B65792E6300004E4F5F544147000045
:100AA0001CB5044605A040F227110C4B0CA2CDE961
:100AB000001010A1042001F00BFD1CBD42544E3269
:100AC0005F4C4F4E475F50524553535F5354415212
:100AD000545F48616E646C65720D0A00F640000850
:100AE000555345525C4B45595C6170705F6B65793D
:100AF0002E6300004E4F5F5441470000704770471F
:100B0000704700001CB5044612A04FF48B71184BBF
:100B100018A2CDE900101CA1042001F0D9FC1C484A
:100B2000007806280AD01B481949097800EBC10053
:100B3000807817490870002000F042FA15481449DF
:100B4000097800EBC1004068134908600846006856
:100B500080471CBD42544E325F53494E474C455F5F
:100B6000436C69636B5F48616E646C65720D0A006B
:100B7000C2400008555345525C4B45595C6170704A
:100B80005F6B65792E6300004E4F5F544147000054
:100B900084000020B0080020A801002000BFFEE76C
:100BA000704710B501F06CFC012002F019F8FF212C
:100BB000002001F055FF0321012001F051FF032126
:100BC000022001F04DFF0321084601F049FFE32117
:100BD000042001F045FFFF21052001F041FF02F054
:100BE00005F810BD2DE9F041024600250026002041
:100BF00000230024002791F803C00CF00F0591F8A2
:100C000003C00CF0100CBCF1000F03D091F802C02F
:100C10004CEA050591F800C0BCF1000F31D0146812
:100C200000202BE04FF0010C0CFA00F3B1F800C0EB
:100C30000CEA03069E4220D183004FF00F0C0CFA01
:100C400003F7BC4305FA03FC4CEA040491F803C023
:100C5000BCF1280F06D14FF0010C0CFA00FCC2F8D1
:100C600014C00AE091F803C0BCF1480F05D14FF061
:100C7000010C0CFA00FCC2F810C0401C0828D1D3AB
:100C80001460B1F800C0BCF1FF0F34DD54680020DF
:100C90002EE000F1080C4FF0010808FA0CF3B1F84F
:100CA00000C00CEA03069E4221D183004FF00F0CD6
:100CB0000CFA03F7BC4305FA03FC4CEA040491F870
:100CC00003C0BCF1280F05D100F1080C08FA0CF89C
:100CD000C2F8148091F803C0BCF1480F07D100F1AD
:100CE000080C4FF0010808FA0CF8C2F81080401CFC
:100CF0000828CED35460BDE8F081024600209368F6
:100D00000B400BB1012000E00020704741617047AB
:100D1000016170471CB5D8E06C480078012836D1D5
:100D200002F012FC02F0ECFC6949087008460078F9
:100D300002282BD16748006867490968884203D9AF
:100D400064480068644908600020624908605F499F
:100D500008706249086001206149087008460078FF
:100D600002F010FB5E4801785E48007802F0B8F9A6
:100D7000002000F025F95CA04FF405715E4B5FA2E6
:100D8000CDE9001064A1042001F0A2FB9DE05148D0
:100D90000068401C4F49086050480068002803DC88
:100DA00002F0AEFC4A49087002F0A8FB02F01CFAFF
:100DB0004A480068002803DC45480078012806D12D
:100DC0004748007802F0DEFA4449086001E002F08A
:100DD000A7FA434801784348007802F081F9504966
:100DE00008604048007818B908204E4908700AE0A9
:100DF0003C480078012803D110204A49087002E0DD
:100E0000182048490870464800684649097808444F
:100E100000280FDAFFF788F90446C01704EB90703A
:100E20008010A4EB80002F49087001212D48007824
:100E300002F056F929480068102818DA3848006886
:100E4000102803DB3648006820280DDD3448006890
:100E5000344909780844102809DB314800683149D1
:100E600009780844202802DC0120184908702EA2C5
:100E70000121084600F0F8F8052317480021026810
:100E8000022002F0AEFB0523124801210268022075
:100E900002F0A7FB0020124908700E4800681421D8
:100EA000B0FBF1F021490870084600781D2801DDEB
:100EB0001D2008701D490978C1F11E0188B202F099
:100EC000D3FC00200249087000BF25E7B5090020C7
:100ED000A0090020A4090020A8090020AC090020D6
:100EE000B6090020A1090020737461727420676143
:100EF0006D650D0A00000000424D00085553455233
:100F00005C4F4C45445C6170705F64696E6F6761F3
:100F10006D652E63000000004E4F5F544147000096
:100F2000B0090020A209002048493A00B409002075
:100F300000BFFEE700BFFEE77047000070B500216C
:100F400000230F22C47804B3154C246804F4E06431
:100F5000C4F5E064210AC1F10403CA40447804FAEC
:100F600003F184781440214309010E4C0678A15501
:100F7000047804F01F050124AC4005786D11AD0024
:100F800005F1E025C5F8004109E0047804F01F05EB
:100F90000124AC40044D0678761145F8264070BD1A
:100FA0000CED00E000E400E080E100E002490143D4
:100FB000024A1160704700000000FA050CED00E0E5
:100FC00070B50646002415E004F1B001C8B202F085
:100FD0003DFC002002F03AFC102002F037FC002516
:100FE00004E0304602F039FC681CC5B2802DF8DB05
:100FF000601CC4B2082CE7DB70BD00002DE9F04195
:1010000005460E461746721ED1006A1E500002F0B9
:10101000D5FA002409E0A7F12001124A02EB0111E0
:10102000085D02F01AFC601CC4B2082CF3DB721ECF
:10103000D1006A1E012303EB420002F0BFFA002434
:101040000BE0A7F12001074A02EB011204F10801AD
:10105000505C02F002FC601CC4B2082CF1DBBDE85D
:10106000F0810000C14100082DE9F04107460E461D
:101070001546002406E02A5D31193846FFF7BEFF09
:10108000601CC4B2285D0028F5D1BDE8F08170472E
:1010900029B1064A92690243044B9A6104E0034A6B
:1010A00092698243014B9A61704700000010024030
:1010B00030B500210022002400232D4D6D6805F07D
:1010C0000C0121B1042905D0082923D105E0294DBF
:1010D000056022E0274D05601FE0254D6D6805F491
:1010E0007012234D6D6805F48034022505EB9242A1
:1010F0001CB9214D554305600BE01D4D6D6805F48D
:1011000000351DB11C4D5543056002E0194D554396
:10111000056002E0174D056000BF00BF144D6D680B
:1011200005F0F0010909154D6B5C0568DD4045606F
:101130000F4D6D6805F4E061090A104D6B5C456860
:10114000DD4085600A4D6D6805F46051C90A0B4D9C
:101150006B5C4568DD40C560054D6D6805F4404138
:10116000890B074D6B5CC568B5FBF3F5056130BDB8
:101170000010024000127A0000093D00000000202B
:101180001000002001460020034A506820F0F000C3
:1011900008435060704700000010024001460020E4
:1011A000034A506820F4E060084350607047000034
:1011B0000010024001460020034A506820F46050AD
:1011C00040EAC1005060704700100240704710B5FF
:1011D00000F002F810BD00000CB500200190009056
:1011E0003348006840F480303149086000BF30481F
:1011F000006800F4003000900198401C01900098B5
:1012000018B90198B0F5A06FF1D12948006800F431
:10121000003010B10120009001E000200090009803
:10122000012843D12348006840F01000214908609C
:101230000846006820F0030008600846006840F097
:10124000020008601A48406819494860084640682A
:1012500048600846406840F480604860084640683E
:1012600020F47C1048600846406840F4E81048606C
:101270000846006840F08070086000BF0C480068B5
:1012800000F000700028F9D00948406820F0030001
:10129000074948600846406840F00200486000BFC7
:1012A0000348406800F00C000828F9D10CBD00008C
:1012B0000010024000200240042808D14FF0E02135
:1012C000096941F004014FF0E022116107E04FF09D
:1012D000E021096921F004014FF0E022116170471B
:1012E00010B504480068401C0249086002F086FB03
:1012F00010BD0000A400002010B51348006840F0A5
:1013000001001149086008464068104908400E492C
:101310004860084600680E4908400B4908600846C6
:10132000006820F4802008600846406820F4FE0031
:1013300048604FF41F008860FFF749FF4FF00060DE
:101340000449086010BD0000001002400000FFF8D2
:10135000FFFFF6FE08ED00E070B500244FF47A754B
:101360000420FFF7A9FF0020FFF718FF0020FFF778
:1013700009FF0020FFF71EFF09480068B0FBF5F4E5
:101380004FF0E020006940F002004FF0E0210861DA
:1013900008464461006940F00100086170BD00002A
:1013A000380000204FF08040008A4FF08040008AD3
:1013B00020F001004FF08041088270470448008807
:1013C0000348008820F001000149088070470000B0
:1013D0001008004010B540F22551064800F025F8ED
:1013E00038B1044800F0DCF8C4B22146014800F0EE
:1013F000DCF810BD0038014021B1828942F400526E
:10140000828104E082894DF6FF731A408281704721
:1014100002460020B1F5007F00D100BF13880B40C9
:101420000BB1012000E00020704770B50246002497
:1014300000230025002040F66A16B14200D100BF0B
:10144000C1F3421501F01F03012606FA03F3012D33
:1014500002D19689334006E0022D02D1168A33402C
:1014600001E0968A33400C12012606FA04F416882D
:10147000344013B10CB1012000E0002070BDF0B584
:101480000346002400260025002040F66A17B942D2
:1014900000D100BF1846C1F3421401F01F06012716
:1014A00007FA06F5012C01D10C3004E0022C01D121
:1014B000103000E014301AB107682F43076002E0D3
:1014C0000768AF430760F0BD2DE9F04786B00546D9
:1014D0000E460024A24600BFA1460027B08900B1F5
:1014E00000BF2F462C8A4CF6FF700440F08804435E
:1014F0002C82AC894EF6F3100440B0883189084341
:10150000718908430443AC81AC8A4FF6FF40044024
:10151000B0890443AC8201A8FFF7CAFD1F48874287
:1015200002D1DDF810A001E0DDF80CA0A88900F4DC
:10153000004040B10AEBCA0000EB0A1031684900D4
:10154000B0FBF1F807E00AEBCA0000EB0A103168C3
:101550008900B0FBF1F86420B8FBF0F00401200929
:10156000642101FB1089A88900F4004040B13220B9
:1015700000EBC900B0FBF1F000F00700044308E005
:10158000322000EB09106421B0FBF1F000F00F00F5
:1015900004432C8106B0BDE8F0870000003801400C
:1015A00001468888C0F308007047C1F308028280B2
:1015B000704700BFFEE700000FB4054B10B503A94C
:1015C000044A029800F012F910BC5DF814FB000008
:1015D0008D2D0008DC0900200FB47CB50C0009AD8E
:1015E00001D0611E00E00021CDE90001064B6A46F2
:1015F0002946089800F0FAF8002C02D0009A002141
:1016000011707CBC5DF814FBF31E00087CB50C0067
:101610001D461646014601D0601E00E00020CDE9BF
:101620000010064B6A462946304600F0DFF8002CD1
:1016300002D0009A002111707CBD0000F31E00084A
:1016400000487047E009002002E008C8121F08C1E6
:10165000002AFAD170477047002001E001C1121F33
:10166000002AFBD1704700002DE9FF5F82B0002106
:10167000DDE90430020DDDF840B0034318D044F634
:101680001050A2F2FF3242431514119801281FD0C6
:10169000A5EB0B00401C5FEA000A4FF000064E4F1E
:1016A000DFF83891B046504615D5CAF1000413E072
:1016B000119801244AA3012801D16FEA0B01029875
:1016C000119AC0E90031C0E9024206B0BDE8F09FBE
:1016D000CBF10000DFE704460021404A491842EB05
:1016E0000450CDE9001012E0E00707D032463B4637
:1016F00040464946FEF797FE8046894632463B46BD
:1017000010461946FEF78FFE06460F466410002C61
:10171000EAD1DDE90401DDE90023BAF1000F06DAC0
:10172000FEF781FE42464B46FEF77DFE05E0FEF7E2
:10173000ECFE42464B46FEF7E8FE04460E4600220B
:10174000284BFEF769FF03D84FF0FF30014607E052
:101750000022254B20463146FEF7BEFDFEF744FF32
:10176000102409E0002C0ADB0A220023FEF74BFDBF
:10177000039B30321A55641E50EA0102F2D1641CF8
:10178000039AC4F111031444119A012A03D00122CF
:1017900008430DD10AE0084304D000204FF0110B9C
:1017A000119072E7A3EB0B056D1E0DE05B4504DDA8
:1017B0004FF0000205F1010504E003DA4FF00002EA
:1017C000A5F10105002AECD002981199C0E9023177
:1017D000C0E9004579E70000000014400000F03F38
:1017E000300000000000F0430000E03F2DE9FF4F13
:1017F00095B09A46884606460025EEE1252877D121
:1018000000242746F94A0121039400E0044316F816
:10181000013F203B01FA03F01042F7D130782A282B
:1018200011D06FF02F033078A0F13002092A16D8BA
:10183000039A44F0020402EB820203EB42021044DA
:10184000761C0390EFE758F8042B0392002A03DA82
:10185000504244F40054039044F00204761C307863
:101860002E2816D116F8010F44F004042A280DD0B2
:101870006FF02F023078A0F13003092B09D807EB65
:10188000870302EB4303C718761CF3E758F8047B81
:10189000761C30786C280FD006DC4C2817D06828CE
:1018A0000DD06A2814D104E0742810D07A280FD102
:1018B0000DE044F400140AE044F4801401E044F420
:1018C00040147278824202D104F58014761C761C92
:1018D000307866280BD013DC582877D009DC002834
:1018E00075D04528F6D04628F4D047281AD193E180
:1018F00018E0632835D0642879D0652812D18BE1AF
:10190000702873D008DC6728F1D069286FD06E2862
:101910000DD06F2806D1ACE073282CD0752874D078
:10192000782853D05246179990476D1C54E1C4F360
:101930000250022809D003280DD0D8F8001004283E
:101940000DD00D6008F1040846E1D8F80010EA1740
:10195000C1E90052F6E7D8F800100D80F2E70D70EB
:10196000F0E718F8041B8DF8001000208DF8010036
:10197000EB46012003E058F804BB4FF0FF3061074D
:101980004FF0000102D40DE009F101018946B9428E
:101990000FDA8145F8DB1BF809100029F4D108E0C3
:1019A00009F1010189468142FADB1BF8091000297F
:1019B000F6D103985346A0EB090721463846179AFB
:1019C00000F080FA284400EB090507E044E008E154
:1019D0000DE01BF8010B524617999047B9F1010928
:1019E000F7D2534621463846179AF2E039E00A21E9
:1019F000C4F302524FF0000B0091022A06D058F8AF
:101A0000040BC117032A09D00AE023E008F10700FC
:101A100020F00702F2E80201904605E000B2C1178B
:101A2000042A01D140B2C117002906DA0A46002172
:101A3000404261EB02012D2202E0220504D52B2257
:101A40008DF80420012203E0E20701D02022F7E70D
:101A5000914657E00A2100E010214FF0000B009161
:101A60000BE010214FF0000B44F004040827009114
:101A700003E008204FF0000B0090C4F30252022A4A
:101A800005D058F8040B0021032A08D008E008F11B
:101A9000070020F00702F2E80201904603E080B25E
:101AA000042A00D1C0B24FF0000922072AD53278AB
:101AB000702A07D0DDF800C08CF0100C5CEA0B0C2B
:101AC00005D00EE040228DF80420012208E050EA03
:101AD000010306D030238DF804308DF80520022252
:101AE0009146009B83F0080353EA0B030AD150EAA6
:101AF000010201D1620705D530228DF804204FF094
:101B000001097F1E3278582A04D039A20C920CAAFF
:101B100002920BE03BA2F9E75B46009AFEF773FBEB
:101B20000C9B9B5C029A521E0292137050EA0102B7
:101B3000F2D1029804A9081A00F1200B600702D51F
:101B400024F4803400E001275F4502DDA7EB0B00A1
:101B500000E0002000EB0B01009003984944401A7C
:101B60000390E00306D453462146179A039800F0E9
:101B7000A9F90544002706E001A85246C05D17995F
:101B800090476D1C7F1C4F45F6DBE0030CD5534698
:101B90002146179A039800F095F9054404E0302097
:101BA0005246179990476D1C0099481E00900029D5
:101BB000F5DC08E00298029952460078491C02912F
:101BC000179990476D1CBBF10001ABF1010BF1DCE3
:101BD0005BE100F065F90544761C307800287FF45D
:101BE0000DAE19B02846BDE8F08F000009280100AD
:101BF0003031323334353637383961626364656683
:101C00000000000030313233343536373839414244
:101C10004344454600000000600700D4062708F151
:101C2000070020F00700F0E80223804603F0004C94
:101C30005FEA0C0001D097A009E0200501D596A02D
:101C400005E0E00701D095A001E0AFF24C00139051
:101C5000307823F0004365280CD006DC452809D0F5
:101C600046281DD047287FD13BE0662818D067283A
:101C70007AD136E00021112F01DB112000E0781C21
:101C8000CDE9000104A90CA8FFF7EEFCDDE90D0188
:101C90000C9A4FF0000B07F10109109200914EE0F1
:101CA0004FF000400097CDE9011004A90CA8FFF700
:101CB000DBFCDDE90D020C9B0F994FF0000B914608
:101CC0001093009211B9791C00EB0109B7EB0900E0
:101CD00003D4C0F1FF3B07F10109A9EB0700019014
:101CE00042E0012F00DA01270021112F01DD112030
:101CF00000E03846CDE9000104A90CA8FFF7B4FCC8
:101D0000DDE90D010C9A00914FF0000BB9461092DD
:101D100021070FD4009A4A4503DA914601E0A9F160
:101D20000109B9F1010F05DD109AA9F10101515C1A
:101D30003029F4D0B84202DA10F1040F03DA01219D
:101D4000CDE9011010E0002803DC8344A9EB000179
:101D500002E0411C494500DD8946A0EB0B00401C18
:101D600001904FF000400290200705D401984845AB
:101D700002DB4FF0FF30019000208DF84B000298FD
:101D80000DF14B07B0F1004F25D002200C902B2015
:101D90000D90029800280CDA404202902D200D9000
:101DA00007E00A210298FEF718FA3031029007F88E
:101DB000011D0C99481E0C900029F2DC02980028A5
:101DC000EFD1791E0D980870307800F0200040F0B7
:101DD000450007F8020D11A8C01BC01D0290139802
:101DE000007800B1012000EB0901019801EBE071DE
:101DF000029801440398401A401E0390E00306D461
:101E000053462146179A039800F05CF8054413984E
:101E1000007818B15246179990476D1CE00323D5FE
:101E200053462146179A039800F04CF805441BE0EE
:101E3000BBF1000F07DB0098584504DD1098179997
:101E400010F80B0001E01799302052469047019896
:101E50000BF1010B401E05F10105019004D12E206C
:101E60005246179990476D1CB9F10001A9F101097B
:101E7000DEDC05E017F8010B5246179990476D1C00
:101E80000299481E02900029F4DC53462146179A15
:101E900003989EE62D0000002B00000020000000AB
:101EA0002DE9F041044600251E461746880404D457
:101EB00005E039462020B0476D1C641EF9D5284640
:101EC000BDE8F0812DE9F041044600251E4690460C
:101ED000C80301D5302700E02027880404D505E099
:101EE00041463846B0476D1C641EF9D52846BDE80A
:101EF000F0814A68002A06D00A68531C0B601070F3
:101F00004868401E4860704708B5002000901821BE
:101F10001748FEF722F901210420FFF7B9F8002045
:101F2000144908601FE048208DF8030003208DF855
:101F300002001048006800EB40000F4901EB001060
:101F40008088ADF800000B49096801EB41010A4A9D
:101F500002EB011108686946FEF744FE0548006877
:101F6000401C04490860034800680228DBDB08BD08
:101F70006C0F0020880000200440000810B5234AA0
:101F80000021234800F062F8224A0121204800F095
:101F90005DF8214A02211E4800F058F81F4A03212B
:101FA0001B4800F053F81E4A0421194800F04EF86F
:101FB0001C4A0521164800F049F81B4A062114481E
:101FC00000F044F8194A0021194800F03FF8194A76
:101FD0000121174800F03AF8174A0221144800F08E
:101FE00035F8164A0321124800F030F8144A04214B
:101FF0000F4800F02BF8134A05210D4800F026F891
:10200000114A06210A4800F021F810BDB509000860
:10201000E4090020B9090008B7090008BD09000853
:10202000A508000859090008FD080008FD0A000875
:10203000100A0020010B0008FF0A0008050B000829
:10204000ED090008A10A0008450A000800F10C0388
:1020500043F82120704770B504462079A16888476D
:102060000546E07800F00700002802DD2088401CCB
:102070002080E078B5EBD01F13D0E078C008401C7A
:10208000E17860F3C501E170C1F3C20003280CDB05
:10209000E07865F3C710E070E07820F03800E07079
:1020A00003E0E07820F03800E070E07800F007000E
:1020B000062876D2DFE800F00326529DE7C6E078D6
:1020C000C0F38010E178B0EBD11F15D1A07820F0DB
:1020D000F000A070E06810B12046E1688847002059
:1020E0002080A07820F00F00401CA070E07820F045
:1020F0000700401CE07004E0A07820F0F000803081
:10210000A070C5E0E078C0F38010E178B0EBD11F9B
:1021100011D0A07820F0F0001030A070206910B12C
:1021200020462169884700202080E07820F00700C1
:10213000801CE07011E02088C8280EDDA07820F017
:10214000F0005030A070206A10B12046216A884704
:10215000E07820F00700401DE07099E0E078C0F3DF
:102160008010E178B0EBD11F1CD1A07820F0F000F6
:10217000A070E06810B12046E1688847A078401C54
:10218000A17860F30301A170606910B12046616914
:10219000884700202080E07820F00700C01CE07015
:1021A00026E070E020883C2822DDA07800F00F00B7
:1021B00001280AD1A07820F0F0003030A070A0698A
:1021C00090B12046A16988470EE0A07800F00F008A
:1021D000022809D1A07820F0F0004030A070E0691A
:1021E00010B12046E1698847E07820F00700E070F0
:1021F0004EE0E078C0F38010E178B0EBD11F19D049
:10220000A07820F0F0001030A070206910B12046B6
:102210002169884720883C2807DA00202080E07860
:1022200020F00700801CE0700BE0E07820F0070051
:10223000E07006E020883C2803DDE07820F007000D
:10224000E07025E0E078C0F38010E178B0EBD11FBA
:102250000AD1A07820F0F0006030A070606A88B1E8
:102260002046616A88470DE0A07820F0F000103029
:10227000A070206910B1204621698847E07820F0DD
:102280000700E07004E0E07820F00700E07000BF95
:1022900000BF70BD2DE9F04104460E4617461D46AD
:1022A0002C212046FDF759FFA07820F0F000803067
:1022B000A070A6602846A1688847E17860F3C7113E
:1022C000E170E07867F38610E0702571BDE8F08179
:1022D00001460948026805E08A4202D14FF0FF300A
:1022E0007047926A002AF7D1034800688862024862
:1022F00001600020F4E70000A000002010B50548B0
:10230000046803E02046FFF7A6FEA46A002CF9D17A
:1023100010BD0000A000002010B5174880780D28DF
:1023200027D2DFE800F0260718081109120A0B135C
:102330000C140D0000BF00BF00BF00BF00BF00BFF6
:102340001F2000F0B9FD15E000BF00BF00BF1E2038
:1023500000F0B2FD0EE00849088800F016FE0128E2
:1023600003D11D2000F0A8FD02E01C2000F0A4FD18
:1023700000E000BF00BF10BD1400002070B586B0A3
:102380000546002D1BD12648006888B94FF4EE7031
:10239000244925A229A3CDE90310CDE901320090FB
:1023A0000B462FA233A1002000F092F800BFFEE7F9
:1023B0004FF4EE721B491CA0194B1B689847002470
:1023C00005262E4890F8F00010B9304606B070BDD2
:1023D00000F068FA00241BE004EB44112748313078
:1023E000084490F82000012810D104EB441223483F
:1023F00031301044411C1E222846FDF7D2FE28B978
:1024000004EB44111D483130465C03E0601CC4B24B
:10241000052CE1DB00BF00F079FA3046D6E700007A
:102420007C000020903F000874616720213D202837
:1024300028766F6964202A2930290000282573290D
:102440002068617320617373657274206661696CC2
:1024500065642061742025733A256C642E000000A9
:10246000555345525C756172745C656C6F672E6381
:1024700000000000656C6F6700000000740A002017
:1024800010B50024114890F8F000012801D1204631
:1024900010BD00F05BFA04460CB12046F8E70120BD
:1024A00000F014FA0020094981F8F30081F8F400E3
:1024B000012000F095FB052000F05AFA00F0B2FA76
:1024C0000120024981F8F0002046E1E7740A00206B
:1024D0002DE9F04F8DB005460F4693469846384695
:1024E000FDF758FE814600244FF0020A00200B90B1
:1024F0000C900790089009900A90052D1BDDC148AB
:10250000006888B940F23A20BF49C0A2C6A3CDE90D
:102510000310CDE9013200900B46CCA2D0A10020DF
:10252000FFF7D6FF00BFFEE740F23A22B649B7A058
:10253000B44B1B689847CC4890F8F10010B90DB027
:10254000BDE8F08FC8480078A84204DB3846FFF7A2
:1025500015FFA84200DAF2E7C349491C3846FDF7E7
:1025600007FE00B9EBE718A8069000F09BF9BE48FB
:1025700090F8F50078B1BD480119BDA2204600F0E1
:1025800077FB0444BB4850F82520B8480119204681
:1025900000F06EFB04440121284600F01FFC40B10E
:1025A000B54850F82520B1480119204600F060FBDD
:1025B00004440221284600F011FCE8B1AB4801199F
:1025C0003A46204600F054FB0444B9F10F0F0CD8F2
:1025D000C9F10F01202207A8FDF7B8FDA348011992
:1025E00007AA204600F044FB0444A0480119A3A216
:1025F000204600F03DFB04441C21284600F0EEFB81
:10260000002852D0994801199DA2204600F030FBC5
:1026100004440421284600F0E1FBA8B100F092F93F
:102620000590924801192046059A00F021FB0444C8
:102630001821284600F0D2FB30B18C4801198FA236
:10264000204600F015FB04440821284600F0C6FB94
:10265000A8B100F06FF90590844801192046059A49
:1026600000F006FB04441021284600F0B7FB30B10F
:102670007E48011981A2204600F0FAFA0444102194
:10268000284600F0ABFB48B100F058F905907748B8
:1026900001192046059A00F0EBFA04447348011929
:1026A00078A2204600F0E4FA0444E021284600F035
:1026B00095FB00285CD06D48011973A2204600F0FC
:1026C000D7FA04442021284600F088FBF8B1674877
:1026D00001195A46204600F0CBFA0444402128460E
:1026E00000F07CFB38B16148011968A2204600F077
:1026F000BFFA04440BE08021284600F06FFB30B1A4
:102700005A4801195DA2204600F0B2FA0444802123
:10271000284600F063FBC0B15DA205210BA8169B03
:10272000FEF75AFF514801190BAA204600F0A0FA03
:1027300004444021284600F051FB30B14B480119B8
:102740004EA2204600F094FA04444021284600F0AE
:1027500045FB30B1454801194246204600F088FA51
:102760000444424801194BA2204600F081FA044477
:10277000C4F580613D4A1019069B179AFEF746FF83
:10278000064600200690A019B0F5806F03D8002EF1
:1027900001DB344401E04FF48064201D5044B0F567
:1027A000806F04D94FF48064241FA4EB0A042E48E0
:1027B00090F8200058B100202C4908552A492031B2
:1027C0002A48FDF7D5FC10B900F0A0F8B7E6264876
:1027D00090F8F50030B1254801192FA2204600F0ED
:1027E00047FA0444214801192DA2204600F040FA7E
:1027F000044421461D4800F0ABF800F087F800BF04
:102800009DE600007C000020A83F00086C6576650E
:102810006C203C3D20454C4F475F4C564C5F564525
:1028200052424F53450000002825732920686173E8
:1028300020617373657274206661696C65642061E0
:10284000742025733A256C642E00000055534552C0
:102850005C756172745C656C6F672E6300000000CC
:10286000656C6F6700000000740A00206C0B00208C
:102870001B5B0000640000204C00002020000000D2
:102880005B0000005D200000280000003A0000000E
:10289000256C6400290000001B5B306D0000000007
:1028A0000D0A000010B5084890F8F20030B100F0B1
:1028B0005DF80120044981F8F40003E00120024999
:1028C00081F8F30010BD0000740A002010B5044622
:1028D0000D4880F8F24090F8F200A0B10A4890F854
:1028E000F40030B9084890F8F30010B100F03EF859
:1028F00009E0054890F8F40028B1034890F8F30087
:1029000008B900F034F810BD740A002010B508486A
:1029100090F8F20030B100F02AF80020044981F864
:10292000F40003E00020024981F8F30010BD00002C
:10293000740A002000A070470000000000A070474B
:102940000000000000A07047000000000020704759
:1029500070B504460D462246294602A0FEF72CFE1D
:1029600070BD0000252E2A730000000070477047DC
:1029700010B586B00446052C1BDD1048006888B9E8
:102980004FF4AB700E490FA215A3CDE90310CDE9AA
:10299000013200900B461BA21FA10020FFF798FDFB
:1029A00000BFFEE74FF4AB72054906A0034B1B685E
:1029B00098471B48047006B010BD00007C00002042
:1029C000643F00086C6576656C203C3D20454C4FAB
:1029D000475F4C564C5F564552424F5345000000EE
:1029E00028257329206861732061737365727420D0
:1029F0006661696C65642061742025733A256C6496
:102A00002E000000555345525C756172745C656C14
:102A10006F672E6300000000656C6F6700000000A8
:102A2000740A002010B5002400BF13E004EB441228
:102A30000A491144481C1F21FDF78FFB002104EBBC
:102A400044120648815404EB4412104480F82010CC
:102A5000601CC4B2052CE9DB10BD0000A50A0020F3
:102A600030B585B004460D46052C1BDD10480068C6
:102A700088B94FF49E700F490FA216A3CDE9031039
:102A8000CDE9013200900B461BA220A10020FFF7E8
:102A90001FFD00BFFEE74FF49E72064906A0044BDF
:102AA0001B6898471B4840F8245005B030BD000013
:102AB0007C000020473F00086C6576656C203C3D3B
:102AC00020454C4F475F4C564C5F564552424F5342
:102AD0004500000028257329206861732061737305
:102AE000657274206661696C656420617420257369
:102AF0003A256C642E000000555345525C75617296
:102B0000745C656C6F672E6300000000656C6F6716
:102B1000000000004C0B002010B586B00446002CCD
:102B20001ED0012C1CD011480068002811D140F2A1
:102B300013100F490FA219A3CDE90310CDE90132FB
:102B400000900B461EA223A10020FFF7C1FC00BF8E
:102B5000FEE740F21312064906A0044B1B68984793
:102B60001E4880F8F14006B010BD00007C00002037
:102B70002F3F000828656E61626C6564203D3D2032
:102B800066616C736529207C7C2028656E61626CAF
:102B90006564203D3D2074727565290028257329E0
:102BA0002068617320617373657274206661696C5B
:102BB00065642061742025733A256C642E00000042
:102BC000555345525C756172745C656C6F672E631A
:102BD00000000000656C6F6700000000740A0020B0
:102BE000014981F8F5007047740A00200EB50B48C2
:102BF00090F8F00000B90EBD0120FFF78DFF08A08E
:102C000009A1F422124BCDE90021029011A216A1D4
:102C10000420FFF75DFC00BFEDE70000740A002010
:102C2000322E322E39390000456173794C6F676757
:102C300065722056257320697320696E6974696115
:102C40006C697A6520737563636573732E00000089
:102C50001A3F0008555345525C756172745C656C8F
:102C60006F672E6300000000656C6F670000000056
:102C7000F0B585B006460D4614462746002D19D1FD
:102C80002448006880B92C20234924A224A3CDE93C
:102C90000310CDE9013200900B462AA22FA100209B
:102CA000FFF716FC00BFFEE72C221B491BA0194BA7
:102CB0001B689847002C19D11648006880B92D2050
:102CC000154928A216A3CDE90310CDE901320090E1
:102CD0000B461CA221A10020FFF7FAFB00BFFEE774
:102CE0002D220D491FA00B4B1B6898470AE0304668
:102CF000761CB0F5806F04D214F8010B05F8010BB7
:102D000000E002E020780028F1D100BFE01B05B010
:102D1000F0BD00007C000020E03F000864737400F8
:102D2000282573292068617320617373657274208C
:102D30006661696C65642061742025733A256C6452
:102D40002E000000555345525C756172745C656CD1
:102D50006F675F7574696C732E630000656C6F67D5
:102D6000000000007372630010B50246086800237B
:102D700006E0047B944200D105E000695C1CE3B2EC
:102D80000C7A9C42F5DC00BF10BD000070B5044613
:102D90000D46E1B20548FEF708FC00BF802103485C
:102DA000FEF736FB0028F9D0204670BD0038014000
:102DB0000021027B074B43F82210FF21027B064BC8
:102DC000995400214173416081600160416101615A
:102DD000704700008C110020DC11002030B585B058
:102DE00004460D46052C1BDD1248006888B940F2E8
:102DF000D920114911A218A3CDE90310CDE9013260
:102E000000900B461DA222A10020FFF761FB00BF2E
:102E1000FEE740F2D922084908A0064B1B689847F4
:102E20001D4850F82400284010B1012005B030BDE5
:102E30000020FBE77C000020B43F00086C6576654D
:102E40006C203C3D20454C4F475F4C564C5F5645EF
:102E500052424F53450000002825732920686173B2
:102E600020617373657274206661696C65642061AA
:102E7000742025733A256C642E000000555345528A
:102E80005C756172745C656C6F672E630000000096
:102E9000656C6F67000000004C0B00202DE9F041CD
:102EA00004460D4616463246294620462368984772
:102EB00007463846BDE8F0810B49C978491CC9B2BC
:102EC000094AD17081420EDD0121D1701146897805
:102ED000491CC9B291700C2905DD01219170114680
:102EE0000988491C118070471400002000214160AE
:102EF0000160017270472DE9F04107460C46207AC7
:102F000020B92146384600F02EF81AE02568002640
:102F100008E038682968884201D92D6900E004E09A
:102F2000701CC6B2207AB042F3DC00BF25B921463E
:102F3000384600F018F804E022462946384600F0EA
:102F400002F8BDE8F08101614B691BB910600023F4
:102F5000436103E04B6943614B6918614861137A2F
:102F60005B1C137270474A680B7A2BB90860486083
:102F700000230361436104E01061426100230361A7
:102F800048600B7A5B1C0B7270470146CA1701EB55
:102F900092729210A1EB820272B9642291FBF2F359
:102FA00002FB131242B14FF4C87291FBF2F302FB21
:102FB00013120AB9012070470020FCE700F068FCFA
:102FC0004FF4A060FDF7F2FF4FF4E131184800F034
:102FD00023FFFDF7E6FD00F06DFD00F0E3FBFEF7DB
:102FE00093FF0123002213491348FFF753F90223EB
:102FF000002210491148FFF74DF9FEF7BFFF0E48B8
:10300000FFF766F90D48FFF763F94FF6FF720C49B9
:10301000052000F099FC0BA1054800F058FF0DA118
:10302000034800F054FF01E000F0A0FCFCE70000C2
:1030300000380140D5360008E4090020100A0020BD
:10304000FD2200087468697320666F635F633874DB
:10305000360D0A00BCF2B5A5B2E2CAD40D0A0000D2
:10306000002115E001EB41000B4A02EBC000407B60
:1030700060B9012001EB4102074B03EBC202507320
:1030800001EB41001A4602EBC0007047481CC1B278
:103090001429E7DB0020F8E7840F0020F0B585B0A5
:1030A00004460D4600200090002600273C268DF89F
:1030B00000408DF80150ADF80460ADF80600CDF881
:1030C0000CD00220ADF80800012201A903480068D5
:1030D000FFF7E4FEC7B2384605B0F0BD9C01002002
:1030E0002DE9F84F04468A464FF005084FF0000BD3
:1030F0004FF000090026BAF1010F0AD180203549AE
:10310000086042460621002000F08CFA8020BDE8CD
:10311000F88F14B94FF008090AE0012C02D14FF0E2
:10312000100905E0022C01D0032C01D14FF0180941
:1031300000253AE027480068002808DA254800689A
:10314000C0F1000BA81D002100F038FA04E0A81D12
:103150002049096800F032FA0BF0FF0720E01D4813
:10316000006838447F2800DD1CE005FB09761CB9A7
:103170001948805D00900EE0012C03D11748805D56
:10318000009008E0022C03D11548805D009002E019
:103190001448805D0090009800F05FFB781CC7B277
:1031A0004F45DCDB00BF681CC5B2022DC2DB0949FC
:1031B000096801EB09004246062100F033FA054890
:1031C0000068A0EB08000349086008460068404416
:1031D0009DE70000D4090020564C0008664C00080A
:1031E000864C0008B64C00082DE9FE430326002754
:1031F000182533A0EB21364B36A2CDE9010500910D
:103200003BA10420FFF764F93B4800682844714261
:10321000884215DC802038490860FCF785FF0321CF
:1032200090FBF1F201FB12003449087034A0F12147
:10323000274B28A2CDE900102DA10120FFF748F966
:103240002D480068002809DA2B48006847422B49BE
:103250000978481C002100F0B1F906E027490978F7
:10326000481C2549096800F0A9F93C461CE02248A1
:10327000006820447F280BDD23A04FF48071144B9D
:1032800014A2CDE900101AA10120FFF721F90EE0E8
:10329000AC4203DA214810F8048001E04FF0000846
:1032A000404600F0DAFA641CA819A042DFDC00BF37
:1032B00011480068801B10490860BDE8FE830000CB
:1032C0006C656E677468203D3D2025640D0A000022
:1032D0002E4D0008555345525C4F4C45445C61707F
:1032E000705F64696E6F67616D652E63000000003A
:1032F0004E4F5F5441470000B8090020BC09002030
:103300007768790D0A000000706F73206F76657220
:103310002072616E67650D0A00000000A94900086F
:103320002DE9F041002715480078401C134908702A
:10333000087800EBD0714910A0EB41010F4A1170E1
:10334000002416E0A01D102100F038F900250CE043
:1033500005EB04170A480949097800EB4110C65DDE
:10336000304600F07AFA681CC5B2102DF0DB601C04
:10337000C4B2022CE6DBBDE8F0810000CD090020DC
:10338000164C00082DE9FE43074655A207CA8DE8F2
:1033900007004FF000090026012F0AD100205349F1
:1033A0000860534908700820524908600020BDE8B1
:1033B000FE834F48007898B94E4909681DF801000E
:1033C0004A4909680844494908604A480068401E5B
:1033D0004849086008460068002801DA00200860B3
:1033E00043480078012813D1424909681DF80100BB
:1033F0003E490968081A3D4908603E480068401C7B
:103400003C49086008460068082801D9082008607F
:10341000364800681F2805DB0120354908701F2049
:103420003249086031480068002804DC0020304937
:1034300008702E4908602D480068072801DC002626
:1034400012E02A4800680F2801DC01260CE027481A
:103450000068172801DC022606E0244800681F28BF
:1034600001DC032600E00426002421E0C6F105016A
:103470000819102100F0A2F8002515E005EB041949
:103480001A490868C11700EB5171C910A0EBC101BE
:1034900001EB4101184A02EB011111F80980404685
:1034A00000F0DBF9681CC5B2102DE7DB601CC4B26C
:1034B000032CDBDB0E48007828B9C6F10801102286
:1034C000104600F0AFF80A480078012805D1C6F18F
:1034D00004011022104600F0A5F80448006866E7D1
:1034E000010103030404050607000000C8090020C9
:1034F000CC090020C4090020294800082DE9F0412A
:10350000052540F255260021072000F057F8002439
:103510000DE00B4800682044B0FBF6F106FB1100FB
:1035200008490F5C384600F098F9601CC4B2802C42
:10353000EFDB03480068284401490860BDE8F081DA
:10354000C0090020C14900082DE9F04100270224EC
:1035500012E03421204600F031F8002508E038461A
:103560007F1C0C490E5C304600F077F9681CC5B230
:10357000182DF4DB601CC4B2052CEADB06A2032183
:103580000A20FDF771FD06A203215620FDF76CFD10
:10359000BDE8F081E64C000847414D4500000000C1
:1035A0004F5645520000000010B50246012000E0D1
:1035B00050430B1EA1F10101FAD110BD70B50546B3
:1035C0000C46E9B241F0B00000F040F9C4F3031139
:1035D00041F0100000F03AF904F00F0000F036F965
:1035E00070BD2DE9F04780460E4617461D46002463
:1035F00014E0281B411E0A20FFF7D6FFB7FBF0F0AE
:103600000A21B0FBF1F201FB120000F1300931197F
:103610004A464046FDF7F2FC601CC4B2AC42E8DB0F
:10362000BDE8F0872DE9F04104460E4617462146D5
:103630003046FFF7C3FF002507E06019802800D956
:1036400005E0002000F009F96D1CBD42F5D300BF74
:10365000BDE8F0812DE9F04105460E461746FFF71B
:10366000FFFC04466560A7600020206115480068E3
:10367000284420600020217B134A50541EB1207B37
:10368000124941F820600F492068096888420CD22D
:103690000F48007E80F0010000EB40000C4A02EB76
:1036A00080012046FFF727FC09E00948007E00EB77
:1036B0004000074A02EB80012046FFF71CFC204631
:1036C000BDE8F081A8000020DC1100208C11002052
:1036D0006411002010B50446012C02D0022C0AD13E
:1036E00004E004210548FDF708FB10BD082103484C
:1036F000FDF703FBF9E70020F7E7000000080140B1
:1037000010B504210748FDF7F8FA08B9012010BDEB
:1037100008210448FDF7F1FA08B90220F7E7002074
:10372000F5E700000008014070B504460748007E38
:1037300000EB4000054901EB80052946204600F0DA
:1037400009F803492046FFF70EFC70BD6411002004
:10375000801100200A6882420AD102690A600A6860
:1037600012B900224A600EE0002203695A610AE0A1
:10377000D0E904231A61026912B942694A6002E081
:10378000D0E904325A610A7A521E0A727047000068
:1037900010B5034890F9000000F0B2F810BD000029
:1037A0001C00002010B51548FCF70AFD14490880DC
:1037B0001248401DFCF704FD114988700F4808307D
:1037C000FCF7FEFC0E49C8700C480B30FCF7F8FC07
:1037D0000B49087109480E30FCF7F2FC08494871A2
:1037E00006481130FCF7ECFC054988714FF6FF7272
:1037F00004494FF47A7000F0A7F810BDF83E0008B5
:10380000140000200938000810B50F488079401CCA
:10381000C0B20D4988713C2815D100208871084636
:103820004079401CC0B248713C280CD1002048713E
:1038300008460079401CC0B20871182803D1002046
:103840000871FEF769FD10BD1400002010B5044694
:1038500021460020FFF722FC10BD10B5044621468A
:103860004020FFF71BFC10BD70B5044672B6012264
:1038700000212046FFF7EEFE054662B600BF287B1A
:103880000249085C0028FAD070BD0000DC1100205D
:1038900070B51548FFF72AFB1448FFF727FB1348BC
:1038A0000C30FFF723FB0020104908761049086010
:1038B000002514E005EB45000E4901EBC004002093
:1038C000607360602060A0602061606125730A49B8
:1038D00041F82500FF2009494855681CC5B2142D40
:1038E000E8DBFDF739FD70BD801100206411002078
:1038F000A8000020840F00208C110020DC11002083
:103900002DE9F041074672B6002414E004EB4400B0
:103910000C4901EB800631463846FFF725FA05468B
:103920003DB131462846FFF715FF2846FFF740FA1C
:1039300003E0601CC4B2022CE8DB00BF62B6BDE845
:10394000F0810000641100202DE9F04104460D468D
:10395000164672B6324629462046FFF77BFE0746DA
:1039600062B6387B40B2BDE8F081000070B500243B
:1039700016E01848005DFF2810D01648005D0028AA
:103980000CDD154850F8240018B1134951F82400F3
:1039900080471048005D401E0E490855601CC4B2A7
:1039A000142CE6DB0D48007A002812DD0B48056870
:1039B0000CE0287B0749085C38B908492846FFF71E
:1039C000C9FE2846FFF7F4F902E02D69002DF0D179
:1039D00000BF70BDDC1100208C1100208011002080
:1039E00070B504460D4672B6012229462046FFF7FF
:1039F00031FE064662B6307B40B270BD70B52A48D3
:103A00000068401C28490968884205D22748007E82
:103A100080F001002549087623480068401C2249AF
:103A200008602248007E00EB4000204901EB800541
:103A30002C6831E0207B1E49085C401C217B1C4A1D
:103A400050544FF6FF71A068884209D0A068401E0C
:103A5000A06028B9022060732046FFF765FE1AE0D7
:103A60001149606809680844206029462046FFF72C
:103A700071FE0D4920680968884208D20B48007E13
:103A800080F0010000EB4000084901EB8005294669
:103A90002046FFF730FA246924B1034920680968F9
:103AA0008842C7D970BD0000A80000206411002022
:103AB000DC11002008B50020009001211020FDF746
:103AC000E7FA4FF40050ADF8000003208DF8020033
:103AD00010208DF8030069460848FDF783F84FF67B
:103AE000FF7207494FF4FA70FFF72EFF054908707F
:103AF000054944F62060FFF773FF08BD0010014040
:103B00000D3B00081C0000209137000810B50B4841
:103B1000007828B94FF400510948FDF7F7F804E0A0
:103B20004FF400510648FDF7F3F80448007808B94F
:103B3000012000E000200149087010BD3000002085
:103B4000001001401CB5FDF7E5F806A04FF48D719B
:103B50000A4B0BA2CDE900100FA10320FEF7B8FC21
:103B60001CBD0000746F6B5F636F6E72746F6C4787
:103B7000616D655F706167650D0A0000144800089B
:103B8000555345525C4F4C45445C6170705F6D65A8
:103B90006E752E63000000004E4F5F5441470000D9
:103BA0001CB506A04FF48A71094B0AA2CDE900109A
:103BB0000EA10320FEF78CFC1CBD0000746F6B5F30
:103BC00064687431315F706167650D0A0000000040
:103BD00005480008555345525C4F4C45445C6170A4
:103BE000705F6D656E752E63000000004E4F5F5470
:103BF000414700001CB505A0DA21074B07A2CDE91B
:103C000000100CA10320FEF763FC1CBD686F6D65FE
:103C10005F70616765000000B14700085553455269
:103C20005C4F4C45445C6170705F6D656E752E63D2
:103C3000000000004E4F5F54414700001CB506A035
:103C40004FF48771074B08A2CDE900100CA10320A7
:103C5000FEF73EFC1CBD0000696E666F5F70616719
:103C600065000000F7470008555345525C4F4C452E
:103C7000445C6170705F6D656E752E6300000000BE
:103C80004E4F5F544147000010B508A2012108467D
:103C9000FDF7EAF908A201210220FDF7E5F90AA2E1
:103CA00001210320FDF7E0F910BD000041757468A3
:103CB0006F723A6C77790000446174653A32303241
:103CC000332F342F313700004C61623A204D756C30
:103CD00074692D6C6576656C206D656E75000000ED
:103CE00010B54FF400510248FDF710F810BD000068
:103CF000001001401CB505A0F421084B08A2CDE935
:103D000000100DA10320FEF7E3FB1CBD706C617970
:103D10005F67616D655F706167650000D44700088B
:103D2000555345525C4F4C45445C6170705F6D6506
:103D30006E752E63000000004E4F5F544147000037
:103D400010B503A201210846FDF78EF910BD000051
:103D50007365742070616765000000001CB506A0E3
:103D600040F20111084B09A2CDE900100DA103207A
:103D7000FEF7AEFB1CBD000073657474696E675F6F
:103D80007061676500000000E64700085553455222
:103D90005C4F4C45445C6170705F6D656E752E6361
:103DA000000000004E4F5F54414700001CB505A0C5
:103DB000E721074B07A2CDE900100CA10320FEF775
:103DC00087FB1CBD74656D705F70616765000000E6
:103DD000BF470008555345525C4F4C45445C6170E9
:103DE000705F6D656E752E63000000004E4F5F546E
:103DF0004147000008B50020009025208DF8000004
:103E000001208DF801008DF802008DF8030068464E
:103E1000FDF794F808BD000030B585B005460C46A6
:103E20000020049000900190029003900121042052
:103E3000FDF72EF901218803FDF72AF94FF40070F0
:103E4000ADF8100003208DF8120018208DF8130033
:103E500004A91648FCF7C6FE4FF48060ADF81000C8
:103E600004208DF8130004A91048FCF7BBFE009451
:103E70000020ADF80400ADF80600ADF80800ADF87C
:103E80000C000C20ADF80A0069462846FDF71CFB23
:103E9000FFF7B0FF012240F225512846FDF7EFFA67
:103EA00001212846FDF7A8FA05B030BD0008014001
:103EB00070B504460D4629462046FDF776FB00BF47
:103EC00080212046FDF7A4FA0028F9D070BD70B516
:103ED00006460C46002500BF615D3046FFF7E8FF4F
:103EE0006D1C605D0028F7D100BF40213046FDF712
:103EF0008FFA0028F9D070BD323032333A30343A7C
:103F000030362331373A31363A30300072756E6CC4
:103F1000617465725F7465737400656C6F675F735D
:103F20007461727400656C6F675F73746F700065A5
:103F30006C6F675F7365745F6F75747075745F65C0
:103F40006E61626C656400656C6F675F7365745F5A
:103F5000666D7400656C6F675F7365745F66696C2E
:103F600074657200656C6F675F7365745F66696C1A
:103F70007465725F6C766C00656C6F675F736574F7
:103F80005F66696C7465725F7461675F6C766C0004
:103F9000656C6F675F6765745F66696C7465725F97
:103FA0007461675F6C766C00656C6F675F6F7574CA
:103FB000707574006765745F666D745F656E6162CD
:103FC0006C656400656C6F675F66696E645F6C76D4
:103FD0006C00656C6F675F66696E645F7461670033
:103FE000656C6F675F73747263707900656C6F677F
:103FF0005F6370796C6E00656C6F675F6D656D6394
:10400000707900000008014004000000C8000000B2
:104010002C01000032000000000000000000000041
:104020000000000000000000000000000000000090
:10403000000000000008014008000000C800000067
:104040002C01000032000000000000000000000011
:104050000000000000000000000000000000000060
:10406000000000006B65795F7363616E0042544E1F
:10407000315F444F55424C455F436C69636B5F4809
:10408000616E646C65720042544E315F4C4F4E4716
:104090005F50524553535F53544152545F48616ED1
:1040A000646C65720042544E315F4C4F4E475F5016
:1040B000524553535F484F4C445F48616E646C6592
:1040C000720042544E325F53494E474C455F436C39
:1040D00069636B5F48616E646C65720042544E3276
:1040E0005F444F55424C455F436C69636B5F486169
:1040F0006E646C65720042544E325F4C4F4E475FA7
:1041000050524553535F53544152545F48616E645B
:104110006C65720042544E325F4C4F4E475F5052B6
:104120004553535F484F4C445F48616E646C657201
:104130000008F8888888887000203F2000030C3031
:1041400020180808F8080818000000203F20000088
:104150000000000000000000000001010101010159
:1041600001180808F8080818000000203F20000087
:104170000008F8008080800000203F210000203FE0
:1041800020808080008080800020203F212000014E
:10419000000000808080800000001F222222221365
:1041A0000000008080808000000019242222223F2D
:1041B00020000000808088F800000E112020103FB1
:1041C00020000000000000000000000000000000CF
:1041D00000000000F8000000000000003330000084
:1041E0000000100C06100C0600000000000000008B
:1041F0000040C07840C0784000043F04043F0404FD
:1042000000007088FC08300000001820FF211E000C
:1042100000F008F000E018000000211C031E211E21
:104220000000F00888700000001E212324192721B7
:104230001010160E0000000000000000000000003A
:1042400000000000E01804020000000007182040F1
:104250000000020418E000000000402018070000E1
:1042600000404080F0804040000202010F01020245
:1042700000000000F0000000000101011F01010129
:1042800000000000000000000080B070000000008E
:104290000000000000000000000001010101010118
:1042A00001000000000000000000303000000000AD
:1042B0000000000000806018040060180601000083
:1042C0000000E010080810E000000F102020100F80
:1042D00000001010F8000000000020203F20200007
:1042E000000070080808887000003028242221305F
:1042F0000000300888884830000018202020110E67
:10430000000000C02010F8000000070424243F240F
:104310000000F80888880808000019212020110EE4
:104320000000E0108888180000000F112020110EF6
:104330000000380808C83808000000003F000000EE
:10434000000070880808887000001C222121221CAF
:104350000000E010080810E0000000312222110FD8
:1043600000000000C0C0000000000000303000006D
:1043700000000000800000000000008060000000DD
:1043800000000080402010080000010204081020F6
:104390000040404040404040000404040404040441
:1043A00000000810204080000000201008040201D6
:1043B00000007048080808F00000000030360100D6
:1043C00000C030C828E810E0000718272423140B89
:1043D000000000C038E0000000203C230202273823
:1043E0002008F8888888700000203F202020110EC7
:1043F00000C03008080808380007182020201008DE
:104400000008F808080810E000203F202020100FC6
:104410000008F88888E8081000203F202023201892
:104420000008F88888E8081000203F2000030000FA
:1044300000C03008080838000007182020221E029B
:104440000008F808000008F808203F210101213F7A
:1044500020000808F8080800000020203F20200065
:104460000000000808F8080800C08080807F000075
:104470000008F888C028180800203F2001263820AE
:104480000008F8080000000000203F202020203015
:104490000008F8F800F8F80800203F003F003F202F
:1044A0000008F830C00008F808203F200007183F37
:1044B00000E01008080810E0000F10202020100F66
:1044C0000008F808080808F000203F210101010059
:1044D00000E01008080810E0000F18242438504F9E
:1044E0000008F8888888887000203F2000030C307E
:1044F0002000708808080838000038202121221C7C
:1045000000180808F8080818000000203F200000E4
:104510000008F808000008F808001F202020201FCD
:10452000000878880000C83808000007380E01002D
:1045300000F80800F80008F800033C0700073C03F7
:1045400000081868808068180820302C03032C307D
:10455000200838C800C83808000000203F200000AC
:104560000010080808C83808002038262120201824
:1045700000000000FE020202000000007F404040F8
:1045800000000C30C000000000000000010638C030
:104590000000020202FE000000004040407F0000D8
:1045A00000000004020202040000000000000000FD
:1045B000000000000000000000808080808080807B
:1045C0008000020204000000000000000000000063
:1045D0000000008080808000000019242222223FF9
:1045E0002008F8008080000000003F112020110EFC
:1045F000000000008080800000000E1120202011AB
:1046000000000000808088F800000E112020103F7C
:10461000200000808080800000001F2222222213C0
:1046200000008080F0888888180020203F2020002B
:10463000000000808080808000006B9494949360E0
:104640000008F8008080800000203F210000203F0B
:104650002000809898000000000020203F202000CB
:1046600000000000809898000000C08080807F00DB
:104670000008F8000080808000203F24022D3020B8
:1046800000000808F8000000000020203F20200063
:10469000008080808080808000203F20003F2000BC
:1046A0003F8080008080800000203F210000203F6C
:1046B000200000808080800000001F202020201F1C
:1046C00000808000808000000080FFA12020110E6B
:1046D000000000008080808000000E112020A0FFDC
:1046E00080808080008080800020203F2120000189
:1046F000000000808080808000003324242424195E
:1047000000008080E0808000000000001F2020006A
:10471000008080000000808000001F202020103FCB
:1047200020808080000080808000010E300806011B
:104730000080800080008080800F300C030C300FE0
:104740000000808000808080000020312E0E31200B
:1047500000808080000080808080818E701806013B
:104760000000808080808080000021302C22213059
:104770000000000000807C020200000000003F40BA
:104780004000000000FF00000000000000FF0000EB
:10479000000002027C800000000040403F0000005A
:1047A00000000601010202040400000000000000F5
:1047B00000746F6B5F686F6D655F70616765007433
:1047C0006F6B5F74656D70657261747572655F7033
:1047D00061676500746F6B5F70616C7967616D65AF
:1047E0005F7061676500746F6B5F73657474696E89
:1047F000675F7061676500746F6B5F696E666F5F9E
:104800007061676500746F6B5F64687431315F70ED
:1048100061676500746F6B5F636F6E72746F6C4776
:10482000616D655F70616765000000000000000059
:10483000000000000000000000E08000000080C0D8
:10484000C0FEFFFDBFAF2F2F0E03070F1FFFBF1FBF
:104850003FFF8F0700010000000000000000000083
:10486000000080808080808000F0C0808080C0E078
:10487000E0FFFFFE5FD71717070103070F7F5F0FEA
:104880001F7F470300000000000000000000000040
:104890000080C040C0C0C0C080F8E0C0C0C0E0F030
:1048A000F0FFFFFF2F6B0B0B03000103073F2F07E8
:1048B0000F3F230100000000000000000000000086
:1048C00000C0E0A0E0E0E0E0C07CF0E0E0E0F0F874
:1048D000F8FFFFFF1735050501000001031F17034F
:1048E000071F110000000000000000000000000091
:1048F00000E0F0D0F0F0F0F0E03E78F0F0F0F8FCFE
:10490000FCFFFF7F0B1A020200000000010F0B01E9
:10491000030F08000000000000000000000000007D
:1049200000F0F8E8F8787878701F3C78F8F8FCFE2A
:10493000FEFF7F3F050D010100000000000705009C
:1049400001070400000000000080000000000000DB
:1049500000F8FCF4FCBCBCBC380F1E3C7CFCFE7FA9
:10496000FFFF3F1F020600000000000000030200DE
:10497000000302000000000000C0000000000080F2
:1049800080FCFEFA7E5E5E5E1C070F1E3EFE7F3FD1
:104990007FFF1F0F01030000000000000001010065
:1049A00000010100000000000080C0E070B0B0B065
:1049B00098888E8383838181938E8C888898B0F0C9
:1049C000C0C8C8C828282808C8C80808080808088F
:1049D000080808080808480808C8C8C80838380877
:1049E0000808080848480808080808082808484827
:1049F0004808080828280808080808080808C808F7
:104A00000808080808084808080808080838380886
:104A10000808080808080808080848082828084856
:104A200048080808080808080808080808280808A6
:104A30000808383808680808080808082808080816
:104A400008080808480848480808080808084848A6
:104A50000808080808080868080808080808080876
:104A6000080828080808080808C8C8080908080825
:104A70000808383808082808090808080808080835
:104A800028280808080908080808080808086868A5
:104A900008C9C8C8080808C8080808082829080854
:104AA0000808080808080808084849080808080805
:104AB0000808080808086868080828280808080876
:104AC00008080868680808C8C80808080808080826
:104AD0000828280828080808080828282808084856
:104AE00008383808080808C80808080808C8C8C8E6
:104AF00028282808C8C80808080808080808080856
:104B00000848480808C8C8C8083838080808080805
:104B10004848080808080828280848484808080895
:104B200028280808080808080808C80808080C0603
:104B3000024242060C0808080838380818181010F5
:104B400010101018180848082828084848080808AD
:104B50000808080808080808282808080808383835
:104B600068680808080808082808080808080808E5
:104B70004808484808080808080848480808080875
:104B800008086868080808080808080808282808A5
:104B900008080808C8C8C8080808080808283838D5
:104BA0000808280808080808080808282828080805
:104BB00008080808080808080808686808C8C8C875
:104BC000080808C8080808082828080808080C0465
:104BD000060202060C4C480808080C0406020206ED
:104BE0000C0C68680828282808080808080868685D
:104BF000680808C8C80808080808080808282828F5
:104C000028080808080828282808084828383808E4
:104C1000080808C80808E08000000080C0E0FEFF27
:104C2000FDBFAF2F2F0E03070F1EFFBF1F1F3F2F0C
:104C3000070001000000E08000000080C0E0FEFFEF
:104C4000FDBFAF2F2F0E03070F1E3F7F5F3FFF8F6C
:104C5000070001000000F0F000FFFF00F0F0030784
:104C600086FFFF060301F0E000FFFE80FC00007CF1
:104C7000C0FEFF0080FC030706FFFF01109090902C
:104C800000FFFF030301F0E000FFFE80FC00FCFEDC
:104C900000FFFF00F8F000FE80FEFFFE78FC131717
:104CA00006FFFF011010133704FFFF080F17101045
:104CB00001FFFF031311F0E000FFFE00F000C00051
:104CC000FFFE603C8000007CC0FEFF00F0F8434720
:104CD00086FFFF26A3A02704FFFF0008FF882F0000
:104CE00000FFFF062321FCFFFFFFFFFF3F3F3F3F89
:104CF0000F1F3FFFFFFF3F3FFFFFFFFFFFFCFFFFD7
:104D0000FFFFFF00007E7E7E787C7E7F7F7F7E00BF
:104D100000FFFFFFFFFF3FFFFFFFFFFFFCFCFCFC6E
:104D2000FCFCFCFCFCFCFCFCFFFFFFFFFF3F6F6C8E
:104D30006564313330365F647261775F636C6F75C1
:104D4000640047616D655F636F6E74726F6C000025
:104D5000404040404040404040414141414140404E
:104D60004040404040404040404040404040404043
:104D70000502020202020202020202020202020210
:104D800020202020202020202020020202020202D7
:104D90000290909090909010101010101010101021
:104DA0001010101010101010101010020202020249
:104DB0000288888888888808080808080808080879
:104DC0000808080808080808080808020202024043
:104DD000504D0008412F0000442F0000452F0000D7
:104DE000492F0000562F0000572F000033323B326E
:104DF000326D000033333B32326D000033343B32CE
:104E0000326D000033353B32326D000033363B32B9
:104E1000326D000033313B356D0000003C4E000820
:104E200000000020E40900004C080008B05200080F
:104E3000E40900200C0C000058160008412D010266
:104E4000030404000925060708090204060884A2D1
:104E50004A04693C13D44D1B08DC041AE8041AE028
:104E6000041AD8041AE40413044E1B0814041AF498
:104E70000C1A0C081AEC081AFC040130200F042448
:104E80004484649C40300FC808082818101010088B
:104E90000601824C2018060106182040802540405B
:104EA00042CC1CFC0402043304FC100F40201F20E1
:104EB000404F4442407F42444340180B8060F80713
:104EC00004E4242424FF042AE4BF12FF300C808170
:104ED0004529112F41418181801BFE220149053165
:104EE0001D80601F0201477F020242827F300C302A
:104EF0002CA67864A420FC8484781F0202017E4AD8
:104F00004B023A7E1C16E85452D830367E90888880
:104F1000701C7F0949332D7E4844420E194B195DA0
:104F20001119A429C71B0201AB323F330306280B1A
:104F300008C8380C0AE8080888080D1B0809012E63
:104F40007F090908080FF12809040C1424FC241413
:104F50000CBB2955394F296D1113606013787813F4
:104F60007E7E3A7FA901179F204080FC4830500682
:104F70004A02013F120C4AE0011A20012AE09D4A30
:104F800007011A0401840701012BF8FC1120090410
:104F90000484C46424FCF8B00F3F7F40414346467C
:104FA00043414040407F3F900880C0E0F0F0F8FC73
:104FB000AF010307070F1F22511FFCF8F0E0E0C00C
:104FC0006F717F3F1F0F0707036F414E387C7E5E76
:104FD000180133F8F0590C290103161F1F2A807E8F
:104FE000180A70383C1E1E3C3870F0608961E92553
:104FF0001E783C1C0E0F7299731A01AC9E0F0E1C8A
:105000003C783B2A0C252BF1F180011B2CF0F1F1AF
:105010003B720C7CFFFFFF1A5CF0F07001190B81F2
:105020009921D90F091F0B590F5AE00109170B01DC
:10503000191CE0F0F8FC000C1F1C1E1E1E1C3C3C42
:10504000F8F8F0C0494C1BF0F82B390D12FF0C1F7B
:105050006A5A5A3029291908390604176B6B6B38BC
:105060000BC0F0FCFE3F0F07C0E0F030000B17E074
:10507000E0C3071F3FFCF8E080163FFFFFF0803CD5
:105080001F3F7F2F16FFFF7F3F0E1AC00802191F18
:1050900000161803070F1F1E3C3C38387879783803
:1050A000383C3C1E0F0F07010E12808080C0807CB0
:1050B0004919A91A1808E0F8FC3E1F070301350733
:1050C0000F1E0C8B0C1E011964380B83C3C3C78FD2
:1050D0001F7EFCF0C02E19AB1201B00B207070FCCB
:1050E000FEFEFC70702019FC1BF0F0F81A0F351250
:1050F000031D03FFFFFE32550FFFFFF815010303E9
:10510000018DE0F0F878019679FBF3F3814AFCFD1C
:10511000E80E01071F3F7C7870F07070783C1FE24A
:105120002F030F1F3E78701D0C187C3F1FFE0121BE
:105130005F80C0E0C08080B73809F8FF3F07073FB5
:10514000FFF8E0191C391DC1280F020F1F7FF9E17C
:10515000830307070E0E0707C849D059105008836C
:10516000E1F97F1F07027809E0E0E07070703838DD
:105170009E19F21C3C1E0E01561E3CF8F0E029E27E
:105180001B383827192D2A07444F0E1C1CFCF8E049
:10519000731D070F1F3CE259FE49911EE0F87C1C6D
:1051A0001C27192D51180940F0FCFE9F87C1C06CC7
:1051B0004DF0E0E0C0AD2B80C0101954C009C0C153
:1051C000879FFEF8F0404E01030703019111680B21
:1051D000031FFFFCE0E0FCFF1F031C291DE11D80F5
:1051E000C0E0F0C6397629773901290C1B1C1CBA9E
:1051F0004BF0E07359E1FCFC3E0F41AE081E3E3E11
:105200001C7F260F3EFCF0E0E5F8FFFF0F1A186642
:1052100006111CDCFEFE3E0009110FFFFFF81FFF08
:10522000FFF05DC0FCFF3FBDC125F0FFFF1FBD07C4
:105230000F3F7CA1111E7C7F7F3B38CDBA18DFBDAC
:105240007C3F0F07A11C0E1C3CDC7C7070E0011938
:105250000DBE38383C1C0EDF120113F53B1508015A
:10526000020513AD3D150802030613F53C150803AE
:1052700004071A5D10140401081A3D101E050505E7
:1052800001A1281E0606060245081E07070903415C
:105290002019011B0489201E09090703E10801A246
:1052A000C9A33280321E0A15402229202904C100D8
:04000005080000ED02
:00000001FF
